:020000040800F2
:10000000005000200D0A0008E1050008E305000883
:10001000E5050008E7050008E90500080000000004
:10002000000000000000000000000000EB050008D8
:10003000ED05000800000000EF050008F1050008CC
:10004000550A0008550A0008550A0008550A000814
:10005000550A0008550A0008550A0008550A000804
:10006000550A0008550A0008550A0008F905000855
:10007000550A0008550A0008550A00080906000834
:10008000550A000819060008550A0008550A000814
:10009000550A0008550A0008550A0008550A0008C4
:1000A000550A0008550A0008550A0008550A0008B4
:1000B000550A00082906000839060008550A0008F4
:1000C000550A0008550A0008550A000849060008A4
:1000D000550A0008550A0008550A0008550A000884
:1000E000550A0008550A0008550A000800000000DB
:1000F0000000000000000000000000000000000000
:0C01000000000000000000005FF808F1A3
:10010C000348044B834202D0034B03B1184770479A
:10011C00700400207004002000000000054806490F
:10012C000B1AD90F01EBA301491002D0034B03B1F9
:10013C001847704770040020700400200000000075
:10014C0010B5064C237843B9FFF7DAFF044B13B113
:10015C000448AFF300800123237010BD700400200D
:10016C0000000000C428000808B5044B1BB104496A
:10017C000448AFF30080BDE80840CFE70000000062
:10018C0074040020C4280008002301461A461846AF
:10019C0000F08EB838B50A4C0A4D641BA4100AD076
:1001AC0004F18043013B05EB8305013C55F8043910
:1001BC009847002CF9D1BDE8384002F083BB00BF52
:1001CC00102900080C29000870B50D4E0D4D761B3A
:1001DC00B61006D00024013455F8043B9847A642CB
:1001EC00F9D1094E094D02F067FB761BB61006D00B
:1001FC000024013455F8043B9847A642F9D170BD50
:10020C0004290008042900080C2900080429000806
:10021C00F0B4860746D0541E002A3CD0CAB203461E
:10022C0002E014F1FF3436D303F8012B9D07F8D10B
:10023C00032C29D9CDB245EA05250F2C45EA0545F5
:10024C0033D9A4F11006360903F1200707EB061782
:10025C0003F1100242E9045542E902551032BA4248
:10026C00F8D1721C14F00C0F03EB021204F00F0601
:10027C0013D0331F23F003030433134442F8045BFD
:10028C009342FBD106F003042CB1C9B21C4403F811
:10029C00011B9C42FBD1F0BC704734461346002C2A
:1002AC00F3D1F8E714460346C2E71A462646E0E7C0
:1002BC00F0B4174C2568D5F848410CB365681F2D70
:1002CC0023DC38B900206B1C0235636044F8251020
:1002DC00F0BC7047012604EB850CCCF88820D4F8D0
:1002EC00887106FA05F217430228C4F88871CCF815
:1002FC000831E7D1D4F88C311A43C4F88C21E1E7EA
:10030C0005F5A674C5F84841D8E74FF0FF30DFE794
:10031C00DC28000800B583B0124B5A6942F0010288
:10032C005A615B6903F001030193019B00221146A2
:10033C000B2000F0FBFB0B2000F02CFC00221146E4
:10034C000F2000F0F3FB0F2000F024FC00221146DC
:10035C00112000F0EBFB112000F01CFC03B05DF849
:10036C0004FB00BF001002402DE9F04188B00024CE
:10037C000494059406940794254B9A6942F0200244
:10038C009A619A6902F020020192019A9A6942F0EC
:10039C0004029A619A6902F004020292029A9A6922
:1003AC0042F008029A619B6903F008030393039BD4
:1003BC00184E2246C521304600F09BFE164F2246B1
:1003CC004FF40041384600F094FEC52304934FF0DF
:1003DC000108CDF8148006940225079504A930462F
:1003EC0000F070FD04950594069404A9304600F0C5
:1003FC0069FD4FF400430493CDF8148006940795DF
:10040C0004A9384600F05EFD08B0BDE8F08100BFDD
:10041C0000100240000C01400008014072B6FEE7DB
:10042C0000B591B0002309930B930C9301930293A5
:10043C00039304930593012106914FF480320792A4
:10044C0008930A9102230D930E924FF480130F938D
:10045C0006A800F06BFE80B90F23019302210291D4
:10046C00002303934FF480620492059301A801F0DA
:10047C00A1F820B911B05DF804FBFFF7CFFFFFF72F
:10048C00CDFF000008B500F007FBFFF7C9FFFFF731
:10049C006BFFFFF73FFF00F01DF800F05BFA00F078
:1004AC0011FA00F0D5F802F0BDF8002002F013F9B3
:1004BC0002F0B0F9054801F0CDFA012204210448FC
:1004CC0000F017FE02F0D6F9FCE700BFF80500209B
:1004DC00000C014008B50B480B4B03600023436034
:1004EC008360C36003614361836180220262436263
:1004FC0083620A23C36201F013F900B908BDFFF748
:10050C008DFFFBE78C0400200030014030B587B034
:10051C000023029303930493059302681A4B9A42A7
:10052C0001D007B030BD03F560439A6942F48052A4
:10053C009A619A6902F480520092009A9A6942F088
:10054C0004029A619B6903F004030193019BB0239D
:10055C0002930024039404940C4D02A9284600F045
:10056C00B1FC40230293022303930323059302A9B6
:10057C00284600F0A7FC22462146232000F0D6FA9C
:10058C00232000F007FBCCE70030014000080140BD
:10059C0082B00E4B9A6942F001029A619A6902F09C
:1005AC0001020092009ADA6942F08052DA61DB694A
:1005BC0003F080530193019B054A536823F0E063D9
:1005CC0043F00073536002B0704700BF001002404C
:1005DC0000000140FEE7FEE7FEE7FEE7FEE770479E
:1005EC007047704708B500F069FA08BD08B50248B5
:1005FC0000F0C6FB08BD00BF2805002008B5024866
:10060C0000F0BEFB08BD00BF6C05002008B5024819
:10061C0000F0B6FB08BD00BFE404002008B502489A
:10062C0001F0A7FA08BD00BFF805002008B5024884
:10063C0001F09FFA08BD00BF4006002008B5024833
:10064C0001F0CAF808BD00BF8C0400207047000000
:10065C0000B587B000230293039304930593009392
:10066C0001931548154A026047224260836040F2AC
:10067C00E732C2600361836101F0A2FB90B94FF4D1
:10068C008053029302A90C4801F097FC68B900232F
:10069C00009301936946084801F09EFE40B907B0EB
:1006AC005DF804FBFFF7BAFEE9E7FFF7B7FEEEE7EC
:1006BC00FFF7B4FEF3E700BFF8050020000400408C
:1006CC0010B582B004460368B3F1804F04D0364AAB
:1006DC0093423ED002B010BD03F50433DA6942F008
:1006EC000102DA61DB6903F001030093009B2F48E0
:1006FC002F4B03600023436083608022C2604FF461
:10070C0080720261436120228261C36100F07CFA35
:10071C00C8B9264BA3625C6223632648264B036050
:10072C0010234360002383608022C2604FF48072E8
:10073C00026143618361C36100F066FA30B91D4BFD
:10074C00E3625C62C6E7FFF769FEE2E7FFF766FE6D
:10075C00F5E71A4BDA6942F00402DA61DB6903F05F
:10076C0004030193019B1648164B0360102343604E
:10077C00002383608022C2604FF480720261436167
:10078C008361C36100F040FA58B90D4BE3625C62BF
:10079C00002211461E2000F0C9F91E2000F0FAF9C3
:1007AC0098E7FFF73BFEF0E700080040E404002068
:1007BC008000024028050020080002400010024082
:1007CC006C0500205800024002680E4B9A4200D083
:1007DC00704700B583B003F50333DA6942F00202C7
:1007EC00DA61DB6903F002030193019B00221146DD
:1007FC001D2000F09BF91D2000F0CCF903B05DF832
:10080C0004FB00BF0004004010B588B00023049323
:10081C000593069307930368B3F1804F04D0244AE1
:10082C00934230D008B010BD03F504339A6942F0FE
:10083C0004029A619A6902F004020192019A9A697F
:10084C0042F008029A619B6903F008030293029B31
:10085C00022404940594079404A9164800F032FB72
:10086C004FF4806304930594079404A9124800F094
:10087C0029FB124A536823F4407343F0E06343F4BA
:10088C0000735360CEE70E4B9A6942F008029A61EE
:10089C009B6903F008030393039B4FF44073049389
:1008AC0002230593079304A9034800F00BFBB9E757
:1008BC000008004000080140000C0140000001400D
:1008CC000010024000B58BB00023089309930193EC
:1008DC000293039304930593069307931C484FF0DC
:1008EC0080420260436083605922C260036183616D
:1008FC0001F092FA00BB00230893099308A914484D
:10090C0001F06AFDD8B9602301930023029303938D
:10091C00059304220DEB02010D4801F0DBFA88B9B6
:10092C00082201A90A4801F0D5FA70B90848FFF766
:10093C006BFF0BB05DF804FBFFF770FDDBE7FFF717
:10094C006DFDE0E7FFF76AFDEAE7FFF767FDEDE70E
:10095C00B005002000B58BB00023089309930193D8
:10096C000293039304930593069307931B481C4A25
:10097C000260436083605922C2600361836101F0AD
:10098C004BFAF8B900230893099308A9134801F00E
:10099C0023FDD0B9602301930023029303930593A5
:1009AC00082201A90D4801F095FA88B90C2201A979
:1009BC000A4801F08FFA70B90848FFF725FF0BB011
:1009CC005DF804FBFFF72AFDDCE7FFF727FDE1E705
:1009DC00FFF724FDEAE7FFF721FDEDE740060020D5
:1009EC000008004008B50821034801F083FC0821E9
:1009FC00024801F07FFC08BD40060020B005002035
:100A0C000C480D490D4A002302E0D458C45004335D
:100A1C00C4188C42F9D30A4A0A4C002301E0136033
:100A2C000432A242FBD3FFF711FEFFF7CDFBFFF719
:100A3C0029FD7047000000207004002010290008D8
:100A4C007004002070350020FEE7000010B504464D
:100A5C000E4B18784FF47A73B3FBF0F30C4A106812
:100A6C00B0FBF3F000F0A4F868B90F2C01D9012009
:100A7C000AE0002221464FF0FF3000F057F8054BFA
:100A8C001C60002000E0012010BD00BF34040020D9
:100A9C00300400203804002008B5074A136843F0DE
:100AAC0010031360032000F02FF80F20FFF7CEFF88
:100ABC00FFF76EFD002008BD00200240034A1168BC
:100ACC00034B1B780B441360704700BF8806002053
:100ADC0034040020014B1868704700BF88060020C2
:100AEC0038B50446FFF7F6FF0546B4F1FF3F02D0D8
:100AFC00044B1B781C44FFF7EDFF401BA042FAD3BC
:100B0C0038BD00BF34040020074AD36823F4E063E7
:100B1C001B041B0C000200F4E060034343F0BF63B2
:100B2C0043F40033D360704700ED00E030B4174B52
:100B3C00DB68C3F30223C3F10704042C28BF04248D
:100B4C001D1D062D18D9033B4FF0FF3505FA04F493
:100B5C0021EA0401994005FA03F322EA030319433D
:100B6C0000280BDB0901C9B200F1604000F56140BF
:100B7C0080F8001330BC70470023E5E700F00F004D
:100B8C000901C9B2024B1954F4E700BF00ED00E0B3
:100B9C0014ED00E0002807DB00F01F0240090123E0
:100BAC009340024A42F82030704700BF00E100E059
:100BBC000138B0F1807F0AD2064B5860064AF0210A
:100BCC0082F823100020986007221A6070470120D9
:100BDC00704700BF10E000E000ED00E070B4066C60
:100BEC00C56B0124B4406C60046863604368102BCF
:100BFC0005D0036899600368DA6070BC70470368BD
:100C0C009A600368D960F8E760B310B402460168D3
:100C1C00154B0B441548A0FB03031B099B001364E5
:100C2C00134BD363022382F82130086820F47F50E1
:100C3C0020F03000536894682343D468234314692C
:100C4C0023435469234394692343D46923430343C3
:100C5C000B6000209063012382F8213082F8200081
:100C6C0010BC704701207047F8FFFDBFCDCCCCCC39
:100C7C000000024038B5044690F82000012831D01D
:100C8C00012084F8200094F82100012804D00023CE
:100C9C0084F82030022038BD022084F82100002086
:100CAC00A0632568286820F0010028602046FFF723
:100CBC0095FFE36A5BB12268136843F00E0313607F
:100CCC002268136843F0010313600020E3E72268F5
:100CDC00136823F0040313602268136843F00A03BB
:100CEC001360EDE70220D6E708B590F82130022B0F
:100CFC0003D004238363012008BD0268136823F02A
:100D0C000E0313600268136823F001031360036879
:100D1C00194A934214D0143293421FD01432934286
:100D2C001ED0143293421ED0143293421ED0143271
:100D3C00934202D04FF0807203E04FF4801200E037
:100D4C0001220E4B5A60012380F82130002380F8D9
:100D5C002030436B6BB198470020CDE71022F0E7B1
:100D6C004FF48072EDE74FF48052EAE74FF4803293
:100D7C00E7E70020C0E700BF080002400000024087
:100D8C0038B5C36B1A6804682568016C04238B4062
:100D9C00134235D015F0040F32D0236813F0200F16
:100DAC0003D1236823F0040323600368434A93426E
:100DBC0014D01432934218D01432934217D01432F8
:100DCC00934217D01432934217D01432934202D06C
:100DDC004FF0806203E04FF4800200E00422384BB5
:100DEC005A60C36A03B1984738BD4022F7E74FF405
:100DFC008062F4E74FF48042F1E74FF48022EEE793
:100E0C0002238B4013423CD015F0020F39D02368DB
:100E1C0013F0200F06D1236823F00A03236001236B
:100E2C0080F821300368254A934214D0143293423F
:100E3C001CD0143293421BD0143293421BD0143268
:100E4C0093421BD01432934202D04FF0007203E055
:100E5C004FF4001200E00222194B5A60002380F874
:100E6C002030836A002BBFD09847BDE72022F3E7E0
:100E7C004FF40072F0E74FF40052EDE74FF40032FC
:100E8C00EAE7082303FA01F11142ADD015F0080F7F
:100E9C00AAD0236823F00E032360026CC16B0123DC
:100EAC0003FA02F24A60836380F82130002380F851
:100EBC002030036B002B97D0984795E70800024031
:100ECC0000000240F0B482B000252C46A3E07F4F16
:100EDC00BB4210D007D97E4FBB420CD007F58037F0
:100EEC00BB4208D013E0A7F58017BB4203D007F52F
:100EFC007027BB4207D18B68002B58D0012B51D0E7
:100F0C004261082503E0A7F58017BB42F3D0FF2E02
:100F1C004FD88446FF2E4FD8A200DCF800300F27A4
:100F2C00974023EA070305FA02F21343CCF800308A
:100F3C004B6813F0805F6DD0664B9A6942F00102EA
:100F4C009A619B6903F001030193019BA208971C12
:100F5C00614B53F8273004F00307BF004FF00F0C20
:100F6C000CFA07FC23EA0C0C5C4B98422AD003F5D4
:100F7C008063984200F08A8003F58063984200F009
:100F8C00878003F5806398421AD004231BE0CD6858
:100F9C00BDE7CD680435BAE7CD680835B7E7CD684D
:100FAC000C35B4E702610825B1E70025AFE704254D
:100FBC00ADE700F1040CADE7A4F108029200ACE738
:100FCC00032300E00023BB4043EA0C030232424FF0
:100FDC0047F822304B6813F4803F5BD0404A1368CB
:100FEC00334313604B6813F4003F59D03C4A5368A9
:100FFC00334353604B6813F4801F57D0384A9368BF
:10100C00334393604B6813F4001F55D0344AD368B4
:10101C001E43D66001340B6833FA04F252D001221D
:10102C00A24003EA020632EA0303F3D14B68122B07
:10103C003FF64DAF122B3FF66AAF01A757F823F0DE
:10104C00030F00089B0F0008A50F0008B70F00083E
:10105C001B0F00081B0F00081B0F00081B0F0008BC
:10106C001B0F00081B0F00081B0F00081B0F0008AC
:10107C001B0F00081B0F00081B0F00081B0F00089C
:10108C001B0F00089F0F0008AB0F000801239AE705
:10109C00022398E7124A136823EA06031360A1E7B8
:1010AC000F4A536823EA06035360A3E70C4A93687C
:1010BC0023EA06039360A5E7094AD36823EA0606E8
:1010CC00D660A7E702B0F0BC704700BF000022104A
:1010DC0000003110001002400000014000080140E7
:1010EC00000401408368194201D0012070470020A0
:1010FC0070470AB101617047090401617047000033
:10110C0082B0084B1B68084AA2FB03235B0A00FB56
:10111C0003F3019300BF019B5A1E0192002BF9D1DE
:10112C0002B0704730040020D34D6210002800F04C
:10113C00F18170B582B00446036813F0010F2CD016
:10114C00AA4B5B6803F00C03042B1DD0A74B5B6808
:10115C0003F00C03082B12D06368B3F5803F41D029
:10116C00002B55D103F1804303F504331A6822F4A4
:10117C0080321A601A6822F480221A6037E09B4B86
:10118C005B6813F4803FE7D0984B1B6813F4003F67
:10119C0003D06368002B00F0BF81236813F0020FAB
:1011AC0075D0924B5B6813F00C0F5FD08F4B5B6864
:1011BC0003F00C03082B54D02369002B00F089801A
:1011CC008B4B01221A60FFF785FC0546874B1B6889
:1011DC0013F0020F74D1FFF77DFC401B0228F5D9E8
:1011EC0003209EE1814A136843F4803313606368E3
:1011FC0043B3FFF76FFC05467C4B1B6813F4003FB1
:10120C00CBD1FFF767FC401B6428F5D9032088E19C
:10121C00B3F5A02F09D0754B1A6822F480321A60EE
:10122C001A6822F480221A60E1E703F18043A3F5E7
:10123C003C331A6842F480221A601A6842F48032F5
:10124C001A60D4E7FFF746FC0546684B1B6813F49D
:10125C00003FA2D0FFF73EFC401B6428F5D90320C9
:10126C005FE1624B5B6813F4803FA5D15F4B1B6859
:10127C0013F0020F03D02369012B40F04F815B4A1E
:10128C00136823F0F803616943EAC1031360236810
:10129C0013F0080F32D0A369002B45D0554B012217
:1012AC001A60FFF717FC0546504B5B6A13F0020FF0
:1012BC0021D1FFF70FFC401B0228F5D9032030E1A8
:1012CC004A4A136823F0F803616943EAC1031360C7
:1012DC00DDE7474B00221A60FFF7FCFB0546434B4A
:1012EC001B6813F0020FD2D0FFF7F4FB401B02284F
:1012FC00F5D9032015E10120FFF702FF236813F055
:10130C00040F00F09780394BDB6913F0805F1DD11F
:10131C00364BDA6942F08052DA61DB6903F08053B4
:10132C000193019B012512E0324B00221A60FFF75A
:10133C00D1FB05462D4B5B6A13F0020FDED0FFF795
:10134C00C9FB401B0228F5D90320EAE000252A4BF3
:10135C001B6813F4807F11D0E368012B22D0002B83
:10136C0038D103F1804303F504331A6A22F00102E9
:10137C001A621A6A22F004021A6218E01E4A1368F2
:10138C0043F480731360FFF7A5FB06461A4B1B68EA
:10139C0013F4807FE0D1FFF79DFB801B6428F5D907
:1013AC000320BEE0114A136A43F001031362E368A1
:1013BC0073B3FFF78FFB06460C4B1B6A13F0020F3F
:1013CC0037D1FFF787FB801B41F288339842F3D962
:1013DC000320A6E0052B11D0044B1A6A22F001025F
:1013EC001A621A6A22F004021A62E0E70010024044
:1013FC000000424280044242007000404D4B1A6A89
:10140C0042F004021A621A6A42F001021A62CEE732
:10141C00FFF760FB0646474B1B6A13F0020F08D020
:10142C00FFF758FB801B41F288339842F3D9032015
:10143C0077E0E5B9E369002B72D03E4A526802F0BE
:10144C000C02082A56D0022B17D03B4B00221A60F4
:10145C00FFF740FB0446374B1B6813F0007F47D067
:10146C00FFF738FB001B0228F5D9032059E0314A5D
:10147C00D36923F08053D361DCE72F4B00221A6031
:10148C00FFF728FB05462B4B1B6813F0007F06D09B
:10149C00FFF720FB401B0228F5D9032041E0236A0B
:1014AC00B3F5803F1AD023494B6823F47413226A96
:1014BC00606A024313434B601F4B01221A60FFF713
:1014CC0009FB04461B4B1B6813F0007F0ED1FFF782
:1014DC0001FB001B0228F5D9032022E0154A5368B2
:1014EC0023F40033A1680B435360DCE7002018E0C1
:1014FC00002016E0012B16D00E4B5B6803F48031F4
:10150C00226A914211D103F47013626A93420ED194
:10151C00002006E001207047012002E0012000E0DD
:10152C00002002B070BD0120FBE70120F9E701208B
:10153C00F7E700BF001002406000424286B0184B33
:10154C000FCB0DF1180C0CE90F0040F20123ADF894
:10155C000430144B5A6802F00C03042B1AD0082BDD
:10156C001AD1C2F38343634413F8101C12F4803F66
:10157C000CD00C4B5B68C3F34043634413F8143C2E
:10158C00094800FB01F0B0FBF3F006E0074800FB54
:10159C0001F002E0044800E0054806B0704700BFC7
:1015AC00F028000800100240001BB70000093D00A5
:1015BC0000127A00002800F0A08070B50D46044699
:1015CC00524B1B6803F007038B420BD24F4A136834
:1015DC0023F007030B431360136803F007038B42DC
:1015EC0040F08D80236813F0020F17D013F0040F16
:1015FC0004D0474A536843F4E0635360236813F004
:10160C00080F04D0424A536843F460535360404A75
:10161C00536823F0F003A1680B435360236813F065
:10162C00010F31D06368012B20D0022B25D0384A12
:10163C00126812F0020F64D035494A6822F0030296
:10164C0013434B60FFF746FA0646314B5B6803F0D9
:10165C000C036268B3EB820F16D0FFF73BFA801BCA
:10166C0041F288339842F0D9032045E0284A1268A9
:10167C0012F4003FE0D101203EE0254A126812F03E
:10168C00007FD9D1012037E0204B1B6803F0070302
:10169C00AB420AD91D4A136823F007032B4313608E
:1016AC00136803F00703AB422DD1236813F0040F2A
:1016BC0006D0174A536823F4E063E1680B43536088
:1016CC00236813F0080F07D0114A536823F46053B2
:1016DC00216943EAC1035360FFF730FF0C4B5B6891
:1016EC00C3F303130B4AD35CD8400B4B18600B4B62
:1016FC001868FFF7ABF9002070BD0120704701207E
:10170C00FAE70120F8E70120F6E700BF00200240CD
:10171C0000100240E02800083004002038040020AB
:10172C00002856D010B50446436A33B94368B3F564
:10173C00827F05D00023C36102E000230361436173
:10174C000023A36294F85130002B3CD0022384F880
:10175C0051302268136823F040031360636803F46C
:10176C008273A26802F404421343E26802F400623A
:10177C001343226902F002021343626902F0010270
:10178C001343A26902F400721343E26902F03802B7
:10179C001343226A02F080021343A26A02F400523D
:1017AC00216813430B60638B226803F004035360BE
:1017BC002268D36923F40063D361002060650123A0
:1017CC0084F8513010BD84F850302046FEF79EFE50
:1017DC00BCE701207047704730B585B004460268FD
:1017EC0051689368C3F3801013F0400F05D113F0C8
:1017FC00010F02D011F0400F5AD113F0020F02D09A
:10180C0011F0800F58D1C3F3401513F0200F01D104
:10181C00002854D011F0200F51D078B194F85130E9
:10182C00DBB2032B4DD0636D43F0040363650023DF
:10183C000193D368019393680193019B65B1636D28
:10184C0043F00103636500230393936803931368C8
:10185C0023F040031360039B636D002B2FD0226891
:10186C00536823F0E0035360012384F8513011F0E6
:10187C00030F2ED02268536823F003035360E36CEC
:10188C004BB1164A5A63E06CFFF72EFA18B1636D30
:10189C0043F040036365A36C8BB1104A5A63A06C90
:1018AC00FFF722FA58B1636D43F04003636506E01D
:1018BC00236C2046984702E0636C2046984705B09D
:1018CC0030BD00230293D368029393680293029B6A
:1018DC00F5E72046FFF77FFFF1E700BFED180008A2
:1018EC0008B5406A0023C387C386FFF774FF08BDA1
:1018FC0070B4036A23F001030362036A46688269C9
:10190C0022F073020C6844EA020523F002028B6891
:10191C0013430D4CA04209D00B4CA0420DD0466095
:10192C0085614A684263036270BC704723F0080308
:10193C00CA68134323F00403EEE726F440764A69A1
:10194C0032438E691643EAE7002C014030B4036A37
:10195C0023F480730362036A4568C26922F0730240
:10196C000C68224323F400738C6843EA04230F4C65
:10197C00A04209D00D4CA0420ED04560C2614A680D
:10198C00C263036230BC704723F40063CC6843EA43
:10199C00042323F48063EDE725F440554C6945EAB4
:1019AC0004158C6945EA0415E7E700BF002C0140DB
:1019BC0030B4036A23F480530362036A4468C26937
:1019CC0022F4E6420D6842EA052223F400538D68A6
:1019DC0043EA0533074DA84206D04460C2614A6809
:1019EC000264036230BC704724F480444D6944EABD
:1019FC008514F2E7002C014030B4036A056A25F027
:101A0C0001050562846924F0F00444EA021423F011
:101A1C000A030B438461036230BC704730B4056A1F
:101A2C0025F0100505628469036A24F4704444EAC5
:101A3C00023423F0A00343EA01138461036230BC37
:101A4C007047836823F070030B4343F007038360F4
:101A5C007047000090F83D30DBB2012B27D10223F8
:101A6C0080F83D300268D36843F00103D36003680B
:101A7C00114A934210D0B3F1804F0DD0A2F594329D
:101A8C00934209D002F58062934205D01A6842F065
:101A9C0001021A60002070479A6802F00702062AB9
:101AAC0007D01A6842F001021A600020704701202A
:101ABC0070470020704700BF002C014070477047F2
:101ACC0010B5446A636A83420ED0A36A834214D071
:101ADC00E36A83421AD0236B834220D02046FEF760
:101AEC0081FF0023237710BD012323778369002B0B
:101AFC00F4D1012384F83E30F0E702232377836985
:101B0C00002BEBD1012384F83F30E7E70423237744
:101B1C008369002BE2D1012384F84030DEE70823EF
:101B2C0023778369002BD9D1012384F84130D5E781
:101B3C00704710B5446A636A83420BD0A36A834230
:101B4C0010D0E36A834210D0236B834204D1082364
:101B5C00237701E0012323772046FFF7E9FF0023D9
:101B6C00237710BD02232377F6E704232377F3E7CB
:101B7C00704710B5044603681A6912F0020F11D0B1
:101B8C00DA6812F0020F0DD06FF002021A61012315
:101B9C00037703689B6913F0030F70D0FFF78FFF77
:101BAC000023237723681A6912F0040F12D0DA6825
:101BBC0012F0040F0ED06FF004021A610223237787
:101BCC0023689B6913F4407F5FD02046FFF777FFB3
:101BDC000023237723681A6912F0080F12D0DA68F1
:101BEC0012F0080F0ED06FF008021A61042323774D
:101BFC002368DB6913F0030F4ED02046FFF75FFF1D
:101C0C000023237723681A6912F0100F12D0DA68B8
:101C1C0012F0100F0ED06FF010021A610823237708
:101C2C002368DB6913F4407F3DD02046FFF747FF64
:101C3C000023237723681A6912F0010F03D0DA68A6
:101C4C0012F0010F36D123681A6912F0800F03D0FD
:101C5C00DA6812F0800F34D123681A6912F0400F41
:101C6C0003D0DA6812F0400F32D123681A6912F0EF
:101C7C00200F03D0DA6812F0200F30D110BDFFF71F
:101C8C001DFF2046FEF7AEFE8AE72046FFF716FF43
:101C9C002046FEF7A7FE9BE72046FFF70FFF2046E6
:101CAC00FEF7A0FEACE72046FFF708FF2046FEF744
:101CBC0099FEBDE76FF001021A61204600F0C2FBED
:101CCC00C1E76FF080021A61204600F0BAFBC3E74F
:101CDC006FF040021A612046FFF74AFFC5E76FF02C
:101CEC0020021A61204600F0ABFBC7E7704710B525
:101CFC00446A636A83420CD0A36A834213D0E36ABA
:101D0C00834216D0236B834219D0012384F83D30D3
:101D1C0003E00123237784F83E302046FFF7E6FFEB
:101D2C000023237710BD02232377012384F83F304F
:101D3C00F3E704232377012384F84030EDE70823ED
:101D4C002377012384F84130E7E7000003681B4A3E
:101D5C0090420AD0B0F1804F07D0A2F59432904255
:101D6C0003D002F58062904203D123F070034A68DD
:101D7C001343124A90420AD0B0F1804F07D0A2F51B
:101D8C009432904203D002F58062904203D123F446
:101D9C004073CA68134323F080034A6913430360FA
:101DAC008B68C3620B688362044B984202D0012398
:101DBC00436170470B690363F9E700BF002C0140D6
:101DCC0040B310B5044690F83D30F3B1022384F8CB
:101DDC003D30214651F8040BFFF7B8FF012384F87E
:101DEC00463084F83E3084F83F3084F8403084F834
:101DFC00413084F8423084F8433084F8443084F81D
:101E0C00453084F83D30002010BD80F83C30FEF7A2
:101E1C00DBFCDBE70120704740B310B5044690F8BB
:101E2C003D30F3B1022384F83D30214651F8040BC8
:101E3C00FFF78CFF012384F8463084F83E3084F899
:101E4C003F3084F8403084F8413084F8423084F8D4
:101E5C00433084F8443084F8453084F83D30002019
:101E6C0010BD80F83C30FEF72BFCDBE701207047FF
:101E7C0030B4036A23F010030362036A4468826976
:101E8C0022F4E6420D6842EA052223F020038D6815
:101E9C0043EA05130E4DA84209D00D4DA8420ED0B1
:101EAC00446082614A688263036230BC704723F0ED
:101EBC008003CD6843EA051323F04003EDE724F4D7
:101ECC0040644D6944EA85048D6944EA8504E7E77A
:101EDC00002C014038B590F83C30012B60D0044602
:101EEC000D46012380F83C300C2A1AD8DFE802F0AA
:101EFC00071919191D1919193119191944000068F4
:101F0C00FFF7F6FC2268936943F00803936122689B
:101F1C00936923F0040393612268936929690B4345
:101F2C009361002084F83C0038BD0068FFF7A0FFE7
:101F3C002268936943F4006393612268936923F4E4
:101F4C008063936122689369296943EA0123936151
:101F5C00E7E70068FFF7FAFC2268D36943F008034F
:101F6C00D3612268D36923F00403D3612268D36957
:101F7C0029690B43D361D4E70068FFF719FD226888
:101F8C00D36943F40063D3612268D36923F480637B
:101F9C00D3612268D369296943EA0123D361C0E77D
:101FAC000220C1E710B4846824F47F4442EA03227F
:101FBC000A432243826010BC704790F83C30012BDE
:101FCC0066D010B50446012380F83C30022380F81B
:101FDC003D300268936823F47F4323F077039360CA
:101FEC000B68602B40D022D8402B47D00BD9502BFC
:101FFC000ED1CA6849680068FFF7FEFC50212068C2
:10200C00FFF71FFD04E0202B0CD008D9302B09D092
:10201C00012384F83D30002084F83C0010BD0BB146
:10202C00102BF5D119462068FFF70BFDF0E7702B4C
:10203C000ED0B3F5005FEBD1CB684A6889680068B5
:10204C00FFF7B0FF2268936843F480439360DFE7A7
:10205C00CB684A6889680068FFF7A4FF2268936818
:10206C0043F077039360D3E7CA6849680068FFF7C9
:10207C00D5FC60212068FFF7E4FCC9E7CA68496811
:10208C000068FFF7B9FC40212068FFF7DAFCBFE7D6
:10209C000220704710B401F01F01012303FA01F470
:1020AC00036A23EA04030362036A02FA01F10B4395
:1020BC00036210BC7047000070B5044616460D460E
:1020CC0000292DD190F83E00C0B2022814BF002088
:1020DC000120002840F0F880002D3DD194F83E20DE
:1020EC00D2B2012A14BF00220122002A00F0EE8095
:1020FC00002E4DD0002D4FD1022284F83E200C2D05
:10210C0070D8DFE815F059006F006F006F008D007C
:10211C006F006F006F00A4006F006F006F00BB00BA
:10212C00042909D008290FD090F84100C0B2022828
:10213C0014BF00200120CCE790F83F00C0B2022869
:10214C0014BF00200120C4E790F84000C0B2022860
:10215C0014BF00200120BCE7042D09D0082D0FD09E
:10216C0094F84120D2B2012A14BF00220122BCE70C
:10217C0094F83F20D2B2012A14BF00220122B4E706
:10218C0094F84020D2B2012A14BF00220122ACE7FD
:10219C00002BAFD001209AE0042D05D0082D07D0DC
:1021AC00022284F84120AAE7022284F83F20A6E705
:1021BC00022284F84020A2E7626A4A499162626A6C
:1021CC004949D162626A4949116322683432314605
:1021DC00606AFEF74FFD00287AD12268D36843F479
:1021EC000073D360012229462068FFF753FF236850
:1021FC003F4A934258D023683D4A934259D0B3F199
:10220C00804F56D0A2F59432934252D002F58062A0
:10221C0093424ED01A6842F001021A60002056E038
:10222C00A26A30499162A26A2F49D162A26A2F49EF
:10223C001163226838323146A06AFEF71BFD002874
:10224C0048D12268D36843F48063D360CAE7E26A5A
:10225C0024499162E26A2449D162E26A23491163FA
:10226C0022683C323146E06AFEF704FD002833D187
:10227C002268D36843F40063D360B3E7226B194937
:10228C009162226B1849D162226B18491163226842
:10229C0040323146206BFEF7EDFCF8B92268D3686A
:1022AC0043F48053D3609DE75A6C42F400425A6465
:1022BC00A1E79A6802F00702062A11D01A6842F0C8
:1022CC0001021A60002002E0022000E0012070BD33
:1022DC000120FCE70120FAE70120F8E70120F6E7EE
:1022EC000020F4E7CD1A00083F1B0008FB1C000877
:1022FC00002C014038B504460D460C2910D8DFE8F7
:10230C0001F0070F0F0F2E0F0F0F370F0F0F40009D
:10231C000268D36823F40073D360406AFEF7E4FCD0
:10232C00002229462068FFF7B5FE2368294A93420C
:10233C0030D02368196A41F21112114208D1196A7E
:10234C0040F24442114203D11A6822F001021A6091
:10235C00002D2ED1012384F83E30002038BD0268B8
:10236C00D36823F48063D360806AFEF7BDFCD7E7A3
:10237C000268D36823F40063D360C06AFEF7B4FC30
:10238C00CEE70268D36823F48053D360006BFEF76A
:10239C00ABFCC5E7196A41F211121142C9D1196A95
:1023AC0040F244421142C4D15A6C22F400425A64A5
:1023BC00BFE7042D05D0082D07D0012384F8413048
:1023CC00CBE7012384F83F30C7E7012384F8403082
:1023DC00C3E700BF002C014090F83C30012B2BD000
:1023EC0030B4012380F83C30022380F83D30036880
:1023FC005C689D6824F070040A6822435A60036884
:10240C000E4A93420AD0B3F1804F07D0A2F5943212
:10241C00934203D002F58062934204D125F08005EB
:10242C004A6815439D60012380F83D30002380F8F5
:10243C003C30184630BC704702207047002C0140DD
:10244C0070477047024A136801331360704700BF2E
:10245C008C06002030B40E4B1C680E4BA3FB0434CE
:10246C00A40C0D4B5D6800FB04F49B68002104E098
:10247C00E81A02441144A14208D21A46064B9B6842
:10248C009A42FBD0F4D9D21A1144F4E730BC70470D
:10249C003004002083DE1B4310E000E010B50F4C2D
:1024AC00012280212046FEF724FE012240212046F5
:1024BC00FEF71FFE0220FFF7CDFF002280212046F1
:1024CC00FEF717FE0220FFF7C5FF00224021204631
:1024DC00FEF70FFE0220FFF7BDFF10BD000C014000
:1024EC0010B50B4C012240212046FEF702FE0022C3
:1024FC0080212046FEF7FDFD0220FFF7ABFF0122F5
:10250C0080212046FEF7F5FD0220FFF7A3FF10BD4A
:10251C00000C014038B5134C012280212046FEF7F7
:10252C00E8FD012240212046FEF7E3FD0220FFF7E3
:10253C0091FF002480210B48FEF7D4FD054630B1F5
:10254C000134FA2CF6DDFFF7CBFF012507E0002262
:10255C0040210448FEF7CDFD0220FFF77BFF284603
:10256C0038BD00BF000C014070B50446002516E0D4
:10257C00012280211448FEF7BCFD134E012240219C
:10258C003046FEF7B6FD0220FFF764FF0022402123
:10259C003046FEF7AEFD6400E4B20135EDB2072D16
:1025AC0010D8002240210848FEF7A3FD0220FFF7B7
:1025BC0051FF14F0800FDBD1002280210248FEF77E
:1025CC0098FDDAE770BD00BF000C014010B5044661
:1025DC00FFF764FF7820FFF7C7FFFFF79BFF002092
:1025EC00FFF7C2FFFFF796FF2046FFF7BDFFFFF78F
:1025FC0091FFFFF775FF10BD10B50446FFF74EFFB6
:10260C007820FFF7B1FFFFF785FF4020FFF7ACFF05
:10261C00FFF780FF2046FFF7A7FFFFF77BFFFFF7D1
:10262C005FFF10BD08B56420FEF75AFAAE20FFF725
:10263C00CDFF2020FFF7CAFF1020FFF7C7FFB02007
:10264C00FFF7C4FFC820FFF7C1FF0020FFF7BEFF54
:10265C001020FFF7BBFF4020FFF7B8FF8120FFF7EA
:10266C00B5FFFF20FFF7B2FFA120FFF7AFFFA620B9
:10267C00FFF7ACFFA820FFF7A9FF3F20FFF7A6FF4D
:10268C00A420FFF7A3FFD320FFF7A0FF0020FFF744
:10269C009DFFD520FFF79AFFF020FFF797FFD92079
:1026AC00FFF794FF2220FFF791FFDA20FFF78EFF50
:1026BC001220FFF78BFFDB20FFF788FF2020FFF7AE
:1026CC0085FF8D20FFF782FF1420FFF77FFFAF20DF
:1026DC00FFF77CFF08BD70B50546002601E001360A
:1026EC00F6B2072E14D8A6F15000C0B2FFF76EFF59
:1026FC000020FFF76BFF1020FFF768FF002414F099
:10270C00800FECD12846FFF777FF0134E4B2F6E7EF
:10271C0070BD0000F0B405460C464FF0000C674647
:10272C0032E01522CA540133DBB2172B14D825FA28
:10273C0003F212F0010FF4D03422CA54F3E706EB83
:10274C00CC0000EB4000C000172B05D8C218152197
:10275C00A1540133DBB2F7E70136F6B2072E0DD8E0
:10276C0006EBC7030D4AD35C002BE8D006EBCC017B
:10277C0001EB410104EBC1010023D6E70137FFB2A5
:10278C00062F06D00CF1010CBCF11F0F03D800264C
:10279C00E4E70027F6E7F0BC704700BF40040020D8
:1027AC0030B40D4600240EE01522CA540133DBB2BE
:1027BC00172B07D820FA03F212F0010FF4D03422B1
:1027CC00CA54F3E70134FF2C05D804EB440105EBA4
:1027DC00C1010023ECE730BC704770B400260EE05A
:1027EC001524EC540133DBB2172B07D821FA03F470
:1027FC0014F0010FF4D03424EC54F3E70136964274
:10280C0005D206EB460500EBC5050023ECE770BCD2
:10281C0070470000F8B5134D41F618073A460021F1
:10282C002846FDF7F5FC104C41F2C86632460021F3
:10283C002046FDF7EDFC29460020FFF76BFFF22246
:10284C0000212046FFF7C9FF3B462A4608210748CE
:10285C00FFF732FC3346224608210548FFF72CFCD3
:10286C00F8BD00BF90060020A81E0020B005002077
:10287C004006002008B5084C2146084B1868FFF7A5
:10288C008FFF41F61803224608210548FFF714FC78
:10289C000A20FEF725F9FEE7900600203C040020F4
:1028AC00B0050020024B13B10248FDF76DBC704718
:1028BC0000000000A1010008F8B500BFF8BC08BC7E
:1028CC009E467047F8B500BFF8BC08BC9E467047E2
:1028DC0008000020000000000000000001020304BA
:1028EC000607080902030405060708090A0B0C0D64
:0828FC000E0F10100000000097
:08290400B1280008750100086C
:04290C004D01000871
:10291000080000200000000000000000F402002079
:102920005C030020C4030020000000000000000041
:102930000000000000000000000000000000000097
:102940000000000000000000000000000000000087
:102950000000000000000000000000000000000077
:102960000000000000000000000000000000000067
:102970000000000000000000000000000000000057
:102980000000000000000000000000000000000047
:102990000000000000000000000000000000000037
:1029A0000000000000000000000000000000000027
:1029B0000000000000000000000000000000000017
:1029C00001000000000000000E33CDAB34126DE6B4
:1029D000ECDE05000B00000000000000000000001D
:1029E00000000000000000000000000000000000E7
:1029F00000000000000000000000000000000000D7
:102A000000000000000000000000000000000000C6
:102A100000000000000000000000000000000000B6
:102D40000024F40001000000100000000032000028
:102D50000000000000000000000100000000010071
:102D60000001010000010100000101010101010059
:102D7000000001010101000000000001010000004D
:0400000508000A0DD8
:00000001FF
