:020000040800F2
:10000000005000201D0A00082104000823040008F5
:100010002504000827040008290400080000000047
:100020000000000000000000000000002B04000899
:100030002D040008000000002F040008310400080F
:10004000650A0008650A0008650A0008650A0008D4
:10005000650A0008650A0008650A0008650A0008C4
:10006000650A0008650A0008650A000839040008E6
:10007000650A0008490400085904000869040008DA
:10008000650A000879040008650A0008650A000886
:10009000650A0008650A0008650A0008650A000884
:1000A000650A0008650A0008650A0008650A000874
:1000B000650A00088904000899040008650A000818
:1000C000650A0008650A0008650A0008A904000816
:1000D000650A0008650A0008650A0008650A000844
:1000E000650A0008650A0008650A000800000000AB
:1000F0000000000000000000000000000000000000
:0C01000000000000000000005FF808F1A3
:10010C0010B5054C237833B9044B13B10448AFF345
:10011C0000800123237010BD740400200000000037
:10012C007036000808B5034B1BB103490348AFF305
:10013C00008008BD00000000780400207036000824
:10014C0000B583B01A4B5A6942F001025A615B69DF
:10015C0003F001030193019B002211460B2000F0D8
:10016C00EDFC0B2000F022FD002211460D2000F0CA
:10017C00E5FC0D2000F01AFD002211460E2000F0C7
:10018C00DDFC0E2000F012FD002211460F2000F0C5
:10019C00D5FC0F2000F00AFD00221146112000F0C2
:1001AC00CDFC112000F002FD03B05DF804FB00BF94
:1001BC00001002402DE9F04188B00024049405940D
:1001CC0006940794254B9A6942F020029A619A6929
:1001DC0002F020020192019A9A6942F004029A619B
:1001EC009A6902F004020292029A9A6942F0080299
:1001FC009A619B6903F008030393039B184E2246F4
:10020C000521304600F081FF164F22464FF4004185
:10021C00384600F07AFF052304934FF00108CDF81F
:10022C00148006940225079504A9304600F054FE6C
:10023C0004950594069404A9304600F04DFE4FF445
:10024C0000430493CDF814800694079504A938460E
:10025C0000F042FE08B0BDE8F08100BF0010024083
:10026C00000C01400008014072B6FEE700B591B0E9
:10027C002822002106A803F033F9002301930293EE
:10028C00039304930593012206924FF48033079352
:10029C000A9202220D920E934FF480130F9306A82C
:1002AC0000F050FF80B90F2301930221029100232B
:1002BC0003934FF480620492059301A801F088F92E
:1002CC0020B911B05DF804FBFFF7CEFFFFF7CCFFB0
:1002DC0008B500F0E9FBFFF7C9FFFFF76BFFFFF76D
:1002EC002FFF00F019F800F03BFB00F0F1FA00F0E2
:1002FC00DFF800F093FA02F0ABFF054801F06EFE58
:10030C0001220421034800F000FF02F0D9FFFCE7B2
:10031C00CC060020000C014008B50B480B4B0360C9
:10032C00002343608360C360036143618361802267
:10033C000262436283620A23C36201F0B5FA00B918
:10034C0008BDFFF791FFFBE790040020003001404F
:10035C0010B586B0002302930393049305930268AF
:10036C00194B9A4201D006B010BD03F560439A694F
:10037C0042F480529A619A6902F480520092009A77
:10038C009A6942F004029A619B6903F00403019399
:10039C00019BB02302930D4C02A9204600F09CFD5A
:1003AC0040230293022303930323059302A92046BF
:1003BC0000F092FD00221146232000F0BFFB232009
:1003CC0000F0F4FBCFE700BF003001400008014013
:1003DC0082B00E4B9A6942F001029A619A6902F05E
:1003EC0001020092009ADA6942F08052DA61DB690C
:1003FC0003F080530193019B054A536823F0E0639B
:10040C0043F00073536002B0704700BF001002400D
:10041C0000000140FEE7FEE7FEE7FEE7FEE770475F
:10042C007047704708B500F051FB08BD08B502488D
:10043C0000F0B0FC08BD00BF7005002008B50248F4
:10044C0000F0A8FC08BD00BFE804002008B5024875
:10045C0000F0A0FC08BD00BFB405002008B50248A0
:10046C0000F098FC08BD00BFF805002008B5024854
:10047C0000F090FC08BD00BF2C05002008B5024818
:10048C0001F03BFE08BD00BFCC06002008B50248B9
:10049C0001F033FE08BD00BF1407002008B5024868
:1004AC0001F05EFC08BD00BF900400207047000006
:1004BC0000B587B000230293039304930593009334
:1004CC0001931548154A026047224260836040F24E
:1004DC00E732C2600361836101F036FF90B94FF4DB
:1004EC008053029302A90C4802F02CF868B900233F
:1004FC00009301936946084802F030FA40B907B0FE
:10050C005DF804FBFFF7B0FEE9E7FFF7ADFEEEE7A1
:10051C00FFF7AAFEF3E700BFCC0600200004004062
:10052C0010B588B0044600230493059306930793F3
:10053C000368604A934207D0B3F1804F27D05E4ADC
:10054C00934261D008B010BD5C4B9A6942F40062D2
:10055C009A619B6903F400630093009B5848594BC4
:10056C00036010234360002383608022C2604FF439
:10057C008072026143618361C36100F04FFB18B963
:10058C004F4BA3625C62DDE7FFF76EFEF8E703F505
:10059C000433DA6942F00102DA61DB6903F001032A
:1005AC000193019B4848494B0360002343608360DF
:1005BC008022C2604FF4807202614361202282610A
:1005CC00C36100F02BFBC8B93F4BA3625C62236391
:1005DC003F48404B0360102343600023836080221C
:1005EC00C2604FF48072026143618361C36100F0A9
:1005FC0015FB30B9364BE3625C62A3E7FFF734FEC0
:10060C00E2E7FFF731FEF5E72C4BDA6942F0040222
:10061C00DA61DA6902F004020292029A9A6942F0F3
:10062C0008029A619B6903F008030393039B4FF440
:10063C000073049302230593079304A9264800F042
:10064C004BFC2648264B0360102343600023836039
:10065C008022C2604FF48072026143618361C36186
:10066C0000F0DCFA00BB1D4BA3625C621D481E4B04
:10067C00036010234360002383608022C2604FF428
:10068C008072026143618361C36100F0C7FA70B983
:10069C00144BE3625C62002211461E2000F04EFAFD
:1006AC001E2000F083FA4DE7FFF7DEFDDBE7FFF7D6
:1006BC00DBFDEDE7002C014000080040001002407B
:1006CC00E8040020300002402C050020800002408D
:1006DC007005002008000240000C0140B405002009
:1006EC0044000240F80500205800024002680E4BFE
:1006FC009A4200D0704700B583B003F50333DA6932
:10070C0042F00202DA61DB6903F002030193019B00
:10071C00002211461D2000F011FA1D2000F046FAAF
:10072C0003B05DF804FB00BF0004004010B588B0B6
:10073C00002304930593069307930368314A93426D
:10074C0007D0B3F1804F19D02F4A934245D008B04F
:10075C0010BD2E4B9A6942F004029A619B6903F01A
:10076C0004030093009B4FF400730493022305933E
:10077C00079304A9264800F0AFFBE8E703F5043320
:10078C009A6942F004029A619A6902F00402019299
:10079C00019A9A6942F008029A619B6903F0080376
:1007AC000293029B022404940594079404A918480C
:1007BC0000F092FB4FF4806304930594079404A912
:1007CC00144800F089FB144A536823F4407343F037
:1007DC00E06343F400735360B9E70C4B9A6942F041
:1007EC0008029A619B6903F008030393039B4FF47F
:1007FC00C073049302230593079304A9054800F0E2
:10080C006BFBA4E7002C01400008004000100240E4
:10081C0000080140000C01400000014010B592B0EE
:10082C0000241094119409940A940B940C940D9434
:10083C000E940F942022214601A802F051FE22486A
:10084C00224B0360446084605923C360046144619B
:10085C00846101F0A5FD00282AD100231093119387
:10086C0010A9194802F07AF828BB602309930023D9
:10087C000A930B930C930D930E930F93042209A9D7
:10088C00114801F0EBFDC8B90023019302930393C7
:10089C00049305934FF400520692089301A90A4859
:1008AC0002F092F868B90848FFF740FF12B010BD8B
:1008BC00FFF7DAFCD1E7FFF7D7FCD6E7FFF7D4FC5C
:1008CC00E2E7FFF7D1FCEEE73C060020002C0140EC
:1008DC0000B58BB000230893099301930293039303
:1008EC0004930593069307931C484FF080420260D3
:1008FC00436083605922C2600361836101F050FD43
:10090C0000BB00230893099308A9144802F026F8A9
:10091C00D8B9602301930023029303930593042217
:10092C000DEB02010D4801F099FD88B9082201A9CF
:10093C000A4801F093FD70B90848FFF7F7FE0BB0B9
:10094C005DF804FBFFF790FCDBE7FFF78DFCE0E7BD
:10095C00FFF78AFCEAE7FFF787FCEDE78406002047
:10096C0000B58BB000230893099301930293039372
:10097C0004930593069307931C481D4A0260436039
:10098C0083605922C2600361836101F009FD00BBE1
:10099C0000230893099308A9144801F0DFFFD8B984
:1009AC0060230193002302930393059304220DEB20
:1009BC0002010E4801F052FD88B9082201A90B482A
:1009CC0001F04CFD70B90948FFF7B0FE0BB05DF8B3
:1009DC0004FBFFF749FCDBE7FFF746FCE0E7FFF71A
:1009EC0043FCEAE7FFF740FCEDE700BF14070020EB
:1009FC000008004008B50821034801F03DFF08211C
:100A0C00024801F039FF08BD1407002084060020BD
:100A1C000C480D490D4A002302E0D458C45004334D
:100A2C00C4188C42F9D30A4A0A4C002301E0136023
:100A3C000432A242FBD3FFF739FD02F02DFDFFF784
:100A4C0047FC70470000002074040020BC360008EE
:100A5C0074040020DC480020FEE7000010B50446BA
:100A6C000E4B18784FF47A73B3FBF0F30C4A106802
:100A7C00B0FBF3F000F0A8F868B90F2C01D90120F5
:100A8C000AE0002221464FF0FF3000F057F8054BEA
:100A9C001C60002000E0012010BD00BF04000020FD
:100AAC00000000200800002008B5074A136843F036
:100ABC0010031360032000F02FF80F20FFF7CEFF78
:100ACC00FFF786FC002008BD00200240034A116895
:100ADC00034B1B780B441360704700BF5C0700206E
:100AEC0004000020014B1868704700BF5C07002011
:100AFC0038B50446FFF7F6FF0546B4F1FF3F02D0C8
:100B0C00044B1B781C44FFF7EDFF401BA042FAD3AB
:100B1C0038BD00BF04000020074AD36823F4E0630B
:100B2C001B041B0C000200F4E060034343F0BF63A2
:100B3C0043F40033D360704700ED00E000B5194B6F
:100B4C00DB68C3F30223C3F1070CBCF1040F28BF0D
:100B5C004FF0040C03F1040EBEF1060F18D9033B41
:100B6C004FF0FF3E0EFA0CFC21EA0C0199400EFAF4
:100B7C0003F322EA0303194300280BDB0901C9B272
:100B8C0000F1604000F5614080F800135DF804FB53
:100B9C000023E5E700F00F000901C9B2024B19541C
:100BAC00F4E700BF00ED00E014ED00E0002807DBE7
:100BBC0000F01F02400901239340024A42F8203002
:100BCC00704700BF00E100E00138B0F1807F0BD22C
:100BDC004FF0E0235861054AF02182F823100020E1
:100BEC00986107221A6170470120704700ED00E000
:100BFC0030B40124056CAC40C56B6C600468636058
:100C0C004368102B05D0036899600368DA6030BC28
:100C1C00704703689A600368D960F8E760B310B452
:100C2C0002460168154B0B441548A0FB03031B0936
:100C3C009B001364134BD363022382F821300868A2
:100C4C0020F47F5020F03000536894682343D4681C
:100C5C002343146923435469234394692343D4697C
:100C6C00234303430B6000209063012382F821305F
:100C7C0082F8200010BC704701207047F8FFFDBFC0
:100C8C00CDCCCCCC0000024038B5044690F8200006
:100C9C00012831D0012084F8200094F8210001288B
:100CAC0004D0002384F82030022038BD022084F8C0
:100CBC0021000020A0632568286820F0010028602E
:100CCC002046FFF795FFE36A5BB12268136843F097
:100CDC000E0313602268136843F0010313600020B5
:100CEC00E3E72268136823F0040313602268136897
:100CFC0043F00A031360EDE70220D6E708B590F83D
:100D0C002130022B03D004238363012008BD026829
:100D1C00136823F00E0313600268136823F00103B9
:100D2C0013600368194A934214D0143293421FD0B3
:100D3C00143293421ED0143293421ED0143293427A
:100D4C001ED01432934202D04FF0807203E04FF465
:100D5C00801200E001220E4B5A60012380F82130F2
:100D6C00002380F82030436B6BB198470020CDE70F
:100D7C001022F0E74FF48072EDE74FF48052EAE76F
:100D8C004FF48032E7E70020C0E700BF08000240C4
:100D9C000000024038B5C36B1A6804682568016C02
:100DAC0004238B40134235D015F0040F32D0236846
:100DBC0013F0200F03D1236823F00403236003688E
:100DCC00434A934214D01432934218D014329342B3
:100DDC0017D01432934217D01432934217D01432D6
:100DEC00934202D04FF0806203E04FF4800200E0A7
:100DFC000422384B5A60C36A03B1984738BD40226D
:100E0C00F7E74FF48062F4E74FF48042F1E74FF4D8
:100E1C008022EEE702238B4013423CD015F0020FE8
:100E2C0039D0236813F0200F06D1236823F00A036E
:100E3C002360012380F821300368254A934214D0A3
:100E4C00143293421CD0143293421BD0143293426E
:100E5C001BD0143293421BD01432934202D04FF069
:100E6C00007203E04FF4001200E00222194B5A60AA
:100E7C00002380F82030836A002BBFD09847BDE751
:100E8C002022F3E74FF40072F0E74FF40052EDE745
:100E9C004FF40032EAE7082303FA01F11142ADD016
:100EAC0015F0080FAAD0236823F00E032360026C00
:100EBC00C16B012303FA02F24A60836380F821308C
:100ECC00002380F82030036B002B97D0984795E7D0
:100EDC00080002400000024070B582B00024A44615
:100EEC00A6E0804DAA4210D007D97F4DAA420CD063
:100EFC0005F58035AA4208D013E0A5F58015AA4265
:100F0C0003D005F57025AA4207D18A68002A58D06B
:100F1C00012A51D04361082403E0A5F58015AA42AB
:100F2C00F3D0BEF1FF0F4ED80646BEF1FF0F4CD8E2
:100F3C004FEA8C0233680F25954023EA050304FA27
:100F4C0002F2134333604B6813F0805F6ED0674B33
:100F5C009A6942F001029A619B6903F001030193C3
:100F6C00019B4FEA9C02951C614B53F825600CF0D9
:100F7C0003039D000F23AB4026EA03065D4B98420A
:100F8C0029D003F58063984200F08E8003F58063CE
:100F9C00984200F08B8003F58063984219D00423AB
:100FAC001AE0CC68BDE7CC680434BAE7CC680834E6
:100FBC00B7E7CC680C34B4E703610824B1E700242C
:100FCC00AFE70424ADE7061DAFE7ACF108029200D1
:100FDC00B0E7032300E00023AB4033430232444D1F
:100FEC0045F822304B6813F4803F61D0424A1368B5
:100FFC0043EA0E0313604B6813F4003F5ED03E4A85
:10100C00536843EA0E0353604B6813F4801F5BD0A4
:10101C00394A936843EA0E0393604B6813F4001F3C
:10102C0058D0354AD36843EA0E03D3600CF1010C57
:10103C000A6832FA0CF353D0012303FA0CF302EAD8
:10104C00030E33EA0202F1D14A68122A3FF649AF85
:10105C00122A3FF666AF01A555F822F0170F0008CB
:10106C00AF0F0008B90F0008CB0F00082F0F0008B6
:10107C002F0F00082F0F00082F0F00082F0F00084C
:10108C002F0F00082F0F00082F0F00082F0F00083C
:10109C002F0F00082F0F00082F0F00082F0F00082C
:1010AC00B30F0008BF0F0008012395E7022393E755
:1010BC00114A136823EA0E0313609CE70E4A536827
:1010CC0023EA0E0353609FE70B4A936823EA0E034F
:1010DC009360A2E7084AD36823EA0E03D360A5E71E
:1010EC0002B070BD00002210000031100010024050
:1010FC0000000140000801400004014083681942CF
:10110C0001D001207047002070470AB1016170477F
:10111C00090401617047000082B0084B1B68084A43
:10112C00A2FB03235B0A00FB03F3019300BF019BAB
:10113C005A1E0192002BF9D102B07047000000201A
:10114C00D34D6210002800F0F18170B582B00446D6
:10115C00036813F0010F2CD0994B5B6803F00C0360
:10116C00042B1DD0964B5B6803F00C03082B12D09C
:10117C006368B3F5803F41D0002B55D103F1804318
:10118C0003F504331A6822F480321A601A6822F4C8
:10119C0080221A6037E08A4B5B6813F4803FE7D0FB
:1011AC00874B1B6813F4003F03D06368002B00F0DF
:1011BC00BF81236813F0020F75D0814B5B6813F06D
:1011CC000C0F5FD07E4B5B6803F00C03082B54D0E4
:1011DC002369002B00F08A807A4B01221A60FFF7FA
:1011EC0081FC0546764B1B6813F0020F75D1FFF797
:1011FC0079FC401B0228F5D903209EE1704A136844
:10120C0043F480331360636843B3FFF76BFC05460C
:10121C006B4B1B6813F4003FCBD1FFF763FC401BF7
:10122C006428F5D9032088E1B3F5A02F09D0644BCD
:10123C001A6822F480321A601A6822F480221A602A
:10124C00E1E703F18043A3F53C331A6842F48022B2
:10125C001A601A6842F480321A60D4E7FFF742FC35
:10126C000546574B1B6813F4003FA2D0FFF73AFC1E
:10127C00401B6428F5D903205FE1514B5B6813F4E4
:10128C00803FA5D14E4B1B6813F0020F03D023698E
:10129C00012B40F04F814A4A136823F0F80361692F
:1012AC0043EAC1031360236813F0080F33D0A3691A
:1012BC00002B5CD0434B0122C3F88024FFF712FCB7
:1012CC0005463F4B5B6A13F0020F21D1FFF70AFC76
:1012DC00401B0228F5D903202FE1394A136823F06B
:1012EC00F803616943EAC1031360DCE7354B002264
:1012FC001A60FFF7F7FB0546314B1B6813F0020F22
:10130C00D1D0FFF7EFFB401B0228F5D9032014E1E5
:10131C000120FFF701FF236813F0040F00F0968003
:10132C00274BDB6913F0805F34D1254BDA6942F02F
:10133C008052DA61DB6903F080530193019B012534
:10134C00214B1B6813F4807F26D0E368012B3DD022
:10135C00002B53D103F1804303F504331A6A22F0B6
:10136C0001021A621A6A22F004021A6233E0154B67
:10137C000022C3F88024FFF7B5FB0546104B5B6ACF
:10138C0013F0020FC7D0FFF7ADFB401B0228F5D9B5
:10139C000320D2E00025D3E70B4A136843F4807393
:1013AC001360FFF79FFB0646074B1B6813F4807F07
:1013BC00CBD1FFF797FB801B6428F5D90320BCE049
:1013CC000010024000004242007000405F4A136A65
:1013DC0043F001031362E36833B3FFF783FB064664
:1013EC005A4B1B6A13F0020F2FD1FFF77BFB801BAC
:1013FC0041F288339842F3D903209EE0052B09D0A3
:10140C00524B1A6A22F001021A621A6A22F0040282
:10141C001A62E0E74D4B1A6A42F004021A621A6A29
:10142C0042F001021A62D6E7FFF75CFB0646474B17
:10143C001B6A13F0020F08D0FFF754FB801B41F21C
:10144C0088339842F3D9032077E0E5B9E369002BA0
:10145C0072D03E4A526802F00C02082A56D0022B77
:10146C0017D03B4B00221A66FFF73CFB0446374B68
:10147C001B6813F0007F47D0FFF734FB001B0228DA
:10148C00F5D9032059E0314AD36923F08053D36155
:10149C00DCE72F4B00221A66FFF724FB05462B4B8B
:1014AC001B6813F0007F06D0FFF71CFB401B0228C3
:1014BC00F5D9032041E0236AB3F5803F1AD02349C4
:1014CC004B6823F47413226A606A024313434B6023
:1014DC001F4B01221A66FFF705FB04461B4B1B68CA
:1014EC0013F0007F0ED1FFF7FDFA001B0228F5D98F
:1014FC00032022E0154A536823F40033A1680B4300
:10150C005360DCE7002018E0002016E0012B16D019
:10151C000E4B5B6803F48031226A914211D103F4C3
:10152C007013626A93420ED1002006E001207047CE
:10153C00012002E0012000E0002002B070BD01207B
:10154C00FBE70120F9E70120F7E700BF001002409C
:10155C000000424286B0194B0FCB0DF1180C0CE970
:10156C000F0040F20123ADF80430154B5A6802F01D
:10157C000C03042B1CD0082B1CD1C2F3834318334F
:10158C006B4413F8100C12F4803F0DD00C4B5B68BD
:10159C00C3F3404318336B4413F8143C094A02FB61
:1015AC0000F0B0FBF3F006E0074B03FB00F002E0A9
:1015BC00044800E0054806B0704700BF98360008A4
:1015CC0000100240001BB70000093D0000127A0019
:1015DC00002800F0A08070B50D460446524B1B68E5
:1015EC0003F007038B420BD24F4A136823F0070317
:1015FC000B431360136803F007038B4240F08D809C
:10160C00236813F0020F17D013F0040F04D0474ACD
:10161C00536843F4E0635360236813F0080F04D05D
:10162C00424A536843F460535360404A536823F072
:10163C00F003A1680B435360236813F0010F31D002
:10164C006368012B20D0022B25D0384A126812F087
:10165C00020F64D035494A6822F0030213434B60F1
:10166C00FFF740FA0646314B5B6803F00C036268E7
:10167C00B3EB820F16D0FFF735FA801B41F288339B
:10168C009842F0D9032045E0284A126812F4003F32
:10169C00E0D101203EE0254A126812F0007FD9D13A
:1016AC00012037E0204B1B6803F00703AB420AD93B
:1016BC001D4A136823F007032B431360136803F0D0
:1016CC000703AB422DD1236813F0040F06D0174A41
:1016DC00536823F4E063E1680B435360236813F011
:1016EC00080F07D0114A536823F46053216943EA69
:1016FC00C1035360FFF72EFF0C4B5B68C3F303135E
:10170C000B4AD35CD8400B4B18600B4B1868FFF797
:10171C00A5F9002070BD012070470120FAE70120D7
:10172C00F8E70120F6E700BF00200240001002405D
:10173C008836000800000020080000202DE9F04742
:10174C0082B00546884617461E46FFF7CBF90A9B22
:10175C001B1A03EB0609FFF7C5F982462B4B1B68D6
:10176C00C3F3CB3309FB03F301932B689C6838EA72
:10177C0004030CBF4FF0010C4FF0000CBC4540D0E3
:10178C00B6F1FF3FF1D0FFF7ADF9A0EB0A004845E9
:10179C000AD2B9F1000F07D0019A02B14A46019B57
:1017AC00013B01939146E0E72A68536823F0E0037C
:1017BC0053606B68B3F5827F0BD0AB6AB3F5005FF7
:1017CC0014D0012385F85130002385F850300320C4
:1017DC0018E0AB68B3F5004F02D0B3F5806FECD1D5
:1017EC002A68136823F040031360E6E72A6813683D
:1017FC0023F4005313602A68136843F400531360F6
:10180C00DFE7002002B0BDE8F08700BF0000002039
:10181C0010B582B004460B46009200228021FFF7DF
:10182C008DFF08B902B010BD636D43F020036365F2
:10183C000320F7E710B582B004460B464168B1F5BA
:10184C00827F10D06168B1F5827F03D1A168B1F5B8
:10185C00806F15D00092002280212046FFF76EFF8A
:10186C00E0B902B010BD8168B1F5004F02D0B1F5FE
:10187C00806FE7D12068016821F040010160E1E749
:10188C000092002201212046FFF758FF0028E8D0E3
:10189C00636D43F0200363650320E2E7636D43F05F
:1018AC00200363650320DCE7002856D010B50446FE
:1018BC00436A33B94368B3F5827F05D00023C36113
:1018CC0002E00023036143610023A36294F85130CA
:1018DC00002B3CD0022384F851302268136823F08B
:1018EC0040031360636803F48273A26802F4044239
:1018FC001343E26802F400621343226902F002020D
:10190C001343626902F001021343A26902F40072EC
:10191C001343E26902F038021343226A02F0800298
:10192C001343A26A02F40052216813430B60638BC9
:10193C00226803F0040353602268D36923F4006324
:10194C00D36100206065012384F8513010BD84F808
:10195C0050302046FEF7FCFCBCE70120704700002D
:10196C00844690F85000012864D010B401208CF803
:10197C0050009CF85100C0B2DCF80440012808D09B
:10198C00B4F5827F44D1DCF80840002C46D1042801
:10199C0046D1002946D0002A46D0002B46D09CF8D0
:1019AC005100C0B2042802D005208CF85100002050
:1019BC00CCF85400CCF83010ACF83430ACF83630ED
:1019CC00CCF83820ACF83C30ACF83E30DCF80C30BD
:1019DC00BBB1194BCCF84030184BCCF84430DCF888
:1019EC000020536843F0E0035360DCF800301A68C1
:1019FC0012F0400F1CD11A6842F040021A6000200D
:101A0C0007E00F4BCCF840300E4BCCF84430E6E7F7
:101A1C00022000238CF8503010BC70470220F8E7ED
:101A2C000220F6E70120F4E70120F2E70120F0E7BD
:101A3C000020EEE702207047351D0008FD1C000851
:101A4C00C51C00088D1C000808B5844683681BB9AA
:101A5C004068B0F5827F3ED09CF8500001285BD0E6
:101A6C0001208CF850009CF85100C0B201284CD1D8
:101A7C0000294BD0002A49D004208CF851000020BA
:101A8C00CCF85400CCF83810ACF83C20ACF83E2024
:101A9C00CCF83000ACF83400ACF83600CCF844008C
:101AAC00DCF80C2002B31D4ACCF84020B3F5004FF3
:101ABC001ED0DCF80020536843F060035360DCF860
:101ACC0000301A6812F0400F24D11A6842F040021C
:101ADC001A6000201AE004238CF8513013460A4691
:101AEC006046FFF73DFF14E00D4ACCF84020DDE7DF
:101AFC00DCF80020136823F040031360DCF80020AE
:101B0C00136823F480431360D3E7022000238CF87E
:101B1C00503008BD0020F9E70220FAE7B51B000899
:101B2C008D1B000870477047704710B582B0044693
:101B3C000268536823F060035360FEF7D3FF02463C
:101B4C0064212046FFF776FE18B1636D43F0200345
:101B5C006365A36833B901932368DA6801929B68C3
:101B6C000193019B012384F85130636D23B9204606
:101B7C00FFF7D8FF02B010BD2046FFF7D5FFF9E7FD
:101B8C0008B50268836B127B1A70836B0133836315
:101B9C00C38F9BB2013B9BB2C387C38F9BB203B174
:101BAC0008BDFFF7C2FFFBE708B50368DA68836B73
:101BBC001A80836B02338363C38F9BB2013B9BB24E
:101BCC00C387C38F9BB203B108BDFFF7AEFFFBE722
:101BDC0010B582B00446284B1B68284AA2FB03238D
:101BEC005B0A642202FB03F30193FEF77BFF0246C0
:101BFC0021684B6823F020034B60019B43B1019B90
:101C0C00013B019323689B6813F0020FF5D003E0AE
:101C1C00636D43F02003636564212046FFF7F8FDF4
:101C2C0018B1636D43F020036365A36833B9009367
:101C3C002368DA6800929B680093009B636D9BB9E4
:101C4C0094F85130DBB2042B07D0012384F85130C7
:101C5C002046FFF768FF02B010BD012384F8513015
:101C6C002046FFF75FFFF6E7012384F8513020464A
:101C7C00FFF75AFFEFE700BF00000020F1197605CF
:101C8C0008B5026B036812781A73036B0133036394
:101C9C00C38E9BB2013B9BB2C386C38E9BB23BB936
:101CAC000268536823F080035360C38F9BB203B167
:101CBC0008BDFFF78DFFFBE708B50268836B127B4D
:101CCC001A70836B01338363C38F9BB2013B9BB24E
:101CDC00C387C38F9BB23BB90268536823F0600380
:101CEC005360C38E9BB203B108BDFFF771FFFBE7D6
:101CFC0008B5026B03681288DA60036B0233036366
:101D0C00C38E9BB2013B9BB2C386C38E9BB23BB9C5
:101D1C000268536823F080035360C38F9BB203B1F6
:101D2C0008BDFFF755FFFBE708B50368DA68836B5E
:101D3C001A80836B02338363C38F9BB2013B9BB2CC
:101D4C00C387C38F9BB23BB90268536823F040032F
:101D5C005360C38E9BB203B108BDFFF739FFFBE79D
:101D6C0030B585B00446026851689368C3F380109F
:101D7C0013F0400F05D113F0010F02D011F0400FFA
:101D8C005AD113F0020F02D011F0800F58D1C3F3C7
:101D9C00401513F0200F01D1002854D011F0200F62
:101DAC0051D078B194F85130DBB2032B4DD0636D28
:101DBC0043F00403636500230193D3680193936894
:101DCC000193019B65B1636D43F0010363650023CF
:101DDC00039393680393136823F040031360039BEE
:101DEC00636D002B2FD02268536823F0E0035360FF
:101DFC00012384F8513011F0030F2ED02268536860
:101E0C0023F003035360E36C4BB1164A5A63E06C46
:101E1C00FEF774FF18B1636D43F040036365A36C68
:101E2C008BB1104A5A63A06CFEF768FF58B1636D12
:101E3C0043F04003636506E0236C2046984702E0BC
:101E4C00636C2046984705B030BD00230293D368DD
:101E5C00029393680293029BF5E72046FFF764FE1A
:101E6C00F1E700BF751E000808B5406A0023C38760
:101E7C00C386FFF759FE08BD70B4036A23F0010353
:101E8C000362036A4668826922F073020C6844EAB2
:101E9C00020523F002028B6813430D4CA04209D0BB
:101EAC000B4CA0420DD0466085614A6842630362C8
:101EBC0070BC704723F00803CA68134323F0040373
:101ECC00EEE726F440764A6932438E691643EAE718
:101EDC00002C014030B4036A23F480730362036A5C
:101EEC004568C26922F073020C68224323F4007324
:101EFC008C6843EA04230F4CA04209D00D4CA0423D
:101F0C000ED04560C2614A68C263036230BC704740
:101F1C0023F40063CC6843EA042323F48063EDE7E5
:101F2C0025F440554C6945EA04158C6945EA0415BD
:101F3C00E7E700BF002C014030B4036A23F4805360
:101F4C000362036A4468C26922F4E6420D6842EAFD
:101F5C00052223F400538D6843EA0533074DA8424C
:101F6C0006D04460C2614A680264036230BC7047A8
:101F7C0024F480444D6944EA8514F2E7002C0140B6
:101F8C0010B4036A046A24F001040462846924F026
:101F9C00F00C4CEA021223F00A030B438261036239
:101FAC0010BC704710B4046A24F0100404628469F5
:101FBC00036A24F4704C4CEA023223F0A00343EA87
:101FCC0001138261036210BC7047836823F07003B5
:101FDC000B4343F0070383607047000090F83D30DB
:101FEC00DBB2012B27D1022380F83D300268D36885
:101FFC0043F00103D3600368114A934210D0B3F14C
:10200C00804F0DD0A2F59432934209D002F5806234
:10201C00934205D01A6842F001021A600020704702
:10202C009A6802F00702062A07D01A6842F00102E9
:10203C001A6000207047012070470020704700BFD5
:10204C00002C01407047704710B5446A636A8342A4
:10205C000ED0A36A834214D0E36A83421AD0236B56
:10206C00834220D02046FEF7C5FC0023237710BD09
:10207C00012323778369002BF4D1012384F83E30AC
:10208C00F0E7022323778369002BEBD1012384F83B
:10209C003F30E7E7042323778369002BE2D1012348
:1020AC0084F84030DEE7082323778369002BD9D1ED
:1020BC00012384F84130D5E7704710B5446A636A50
:1020CC0083420BD0A36A834210D0E36A834210D0C0
:1020DC00236B834204D10823237701E00123237768
:1020EC002046FFF7E9FF0023237710BD0223237757
:1020FC00F6E704232377F3E7704710B5044603682B
:10210C001A6912F0020F11D0DA6812F0020F0DD01A
:10211C006FF002021A610123037703689B6913F0C5
:10212C00030F70D0FFF78FFF0023237723681A6902
:10213C0012F0040F12D0DA6812F0040F0ED06FF008
:10214C0004021A610223237723689B6913F4407FEE
:10215C005FD02046FFF777FF0023237723681A69A7
:10216C0012F0080F12D0DA6812F0080F0ED06FF0D0
:10217C0008021A61042323772368DB6913F0030F29
:10218C004ED02046FFF75FFF0023237723681A69A0
:10219C0012F0100F12D0DA6812F0100F0ED06FF090
:1021AC0010021A61082323772368DB6913F4407F3C
:1021BC003DD02046FFF747FF0023237723681A6999
:1021CC0012F0010F03D0DA6812F0010F36D1236838
:1021DC001A6912F0800F03D0DA6812F0800F34D134
:1021EC0023681A6912F0400F03D0DA6812F0400F1E
:1021FC0032D123681A6912F0200F03D0DA6812F07A
:10220C00200F30D110BDFFF71DFF2046FEF7F2FB6B
:10221C008AE72046FFF716FF2046FEF7EBFB9BE70D
:10222C002046FFF70FFF2046FEF7E4FBACE7204605
:10223C00FFF708FF2046FEF7DDFBBDE76FF001025C
:10224C001A61204600F0ECFBC1E76FF080021A61C6
:10225C00204600F0E3FBC3E76FF040021A61204612
:10226C00FFF74AFFC5E76FF020021A61204600F025
:10227C00D4FBC7E7704710B5446A636A83420CD03D
:10228C00A36A834213D0E36A834216D0236B834242
:10229C0019D0012384F83D3003E00123237784F81F
:1022AC003E302046FFF7E6FF0023237710BD0223C4
:1022BC002377012384F83F30F3E7042323770123AA
:1022CC0084F84030EDE708232377012384F841306C
:1022DC00E7E7000003681B4A90420AD0B0F1804F38
:1022EC0007D0A2F59432904203D002F5806290425E
:1022FC0003D123F070034A681343124A90420AD068
:10230C00B0F1804F07D0A2F59432904203D002F581
:10231C008062904203D123F44073CA68134323F0C4
:10232C0080034A69134303608B68C3620B68836242
:10233C00044B984202D00123436170470B6903633D
:10234C00F9E700BF002C014040B310B5044690F8EB
:10235C003D30F3B1022384F83D30214651F8040B93
:10236C00FFF7B8FF012384F8463084F83E3084F838
:10237C003F3084F8403084F8413084F8423084F89F
:10238C00433084F8443084F8453084F83D300020E4
:10239C0010BD80F83C30FEF7A9F9DBE7012070474F
:1023AC0040B310B5044690F83D30F3B1022384F8E5
:1023BC003D30214651F8040BFFF78CFF012384F8C4
:1023CC00463084F83E3084F83F3084F8403084F84E
:1023DC00413084F8423084F8433084F8443084F837
:1023EC00453084F83D30002010BD80F83C30FEF7BD
:1023FC0097F8DBE70120704730B4036A23F0100331
:10240C000362036A4468826922F4E6420D6842EA78
:10241C00052223F020038D6843EA05130E4DA842D4
:10242C0009D00D4DA8420ED0446082614A68826387
:10243C00036230BC704723F08003CD6843EA051378
:10244C0023F04003EDE724F440644D6944EA85042D
:10245C008D6944EA8504E7E7002C014038B590F813
:10246C003C30012B60D004460D46012380F83C30F3
:10247C000C2A1AD8DFE802F0071919191D191919B5
:10248C003119191944000068FFF7F6FC22689369AA
:10249C0043F0080393612268936923F0040393616A
:1024AC002268936929690B439361002084F83C00EE
:1024BC0038BD0068FFF7A0FF2268936943F40063FE
:1024CC0093612268936923F4806393612268936912
:1024DC00296943EA01239361E7E70068FFF7FAFCF7
:1024EC002268D36943F00803D3612268D36923F0CF
:1024FC000403D3612268D36929690B43D361D4E700
:10250C000068FFF719FD2268D36943F40063D361B7
:10251C002268D36923F48063D3612268D369296963
:10252C0043EA0123D361C0E70220C1E710B48468F9
:10253C0024F47F4C42EA03220A4342EA0C028260F2
:10254C0010BC704790F83C30012B66D010B5044697
:10255C00012380F83C30022380F83D3002689368F8
:10256C0023F47F4323F0770393600B68602B40D0F8
:10257C0022D8402B47D00BD9502B0ED1CA684968B2
:10258C000068FFF7FDFC50212068FFF71EFD04E0FA
:10259C00202B0CD008D9302B09D0012384F83D30E6
:1025AC00002084F83C0010BD0BB1102BF5D119465E
:1025BC002068FFF70AFDF0E7702B0ED0B3F5005F33
:1025CC00EBD1CB684A6889680068FFF7AFFF2268D7
:1025DC00936843F480439360DFE7CB684A6889686B
:1025EC000068FFF7A3FF2268936843F077039360BA
:1025FC00D3E7CA6849680068FFF7D4FC60212068FB
:10260C00FFF7E3FCC9E7CA6849680068FFF7B8FC44
:10261C0040212068FFF7D9FCBFE70220704701F08A
:10262C001F01012303FA01FC036A23EA0C03036272
:10263C00036A02FA01F10B430362704770B504465A
:10264C0016460D4600292DD190F83E00C0B2022846
:10265C0014BF00200120002840F0F880002D3DD14F
:10266C0094F83E20D2B2012A14BF00220122002A83
:10267C0000F0EE80002E4DD0002D4FD1022284F8B8
:10268C003E200C2D70D8DFE815F059006F006F005C
:10269C006F008D006F006F006F00A4006F006F0063
:1026AC006F00BB00042909D008290FD090F8410015
:1026BC00C0B2022814BF00200120CCE790F83F00E4
:1026CC00C0B2022814BF00200120C4E790F84000DB
:1026DC00C0B2022814BF00200120BCE7042D09D091
:1026EC00082D0FD094F84120D2B2012A14BF002239
:1026FC000122BCE794F83F20D2B2012A14BF002279
:10270C000122B4E794F84020D2B2012A14BF00226F
:10271C000122ACE7002BAFD001209AE0042D05D0AC
:10272C00082D07D0022284F84120AAE7022284F85F
:10273C003F20A6E7022284F84020A2E7626A4A49B9
:10274C009162626A4949D162626A4949116322689D
:10275C0034323146606AFEF797FA00287AD1226843
:10276C00D36843F40073D360012229462068FFF735
:10277C0056FF23683F4A934258D023683D4A934200
:10278C0059D0B3F1804F56D0A2F59432934252D027
:10279C0002F5806293424ED01A6842F001021A6030
:1027AC00002056E0A26A30499162A26A2F49D16298
:1027BC00A26A2F491163226838323146A06AFEF7AB
:1027CC0063FA002848D12268D36843F48063D3604D
:1027DC00CAE7E26A24499162E26A2449D162E26A58
:1027EC002349116322683C323146E06AFEF74CFA09
:1027FC00002833D12268D36843F40063D360B3E775
:10280C00226B19499162226B1849D162226B1849CB
:10281C001163226840323146206BFEF735FAF8B965
:10282C002268D36843F48053D3609DE75A6C42F41A
:10283C0000425A64A1E79A6802F00702062A11D0F6
:10284C001A6842F001021A60002002E0022000E047
:10285C00012070BD0120FCE70120FAE70120F8E718
:10286C000120F6E70020F4E755200008C7200008F7
:10287C0083220008002C014038B504460D460C2973
:10288C0010D8DFE801F0070F0F0F2E0F0F0F370FC7
:10289C000F0F40000268D36823F40073D360406AC2
:1028AC00FEF72CFA002229462068FFF7B8FE2368B1
:1028BC00294A934230D02368196A41F2111211420D
:1028CC0008D1196A40F24442114203D11A6822F02D
:1028DC0001021A60002D2ED1012384F83E30002015
:1028EC0038BD0268D36823F48063D360806AFEF736
:1028FC0005FAD7E70268D36823F40063D360C06A93
:10290C00FEF7FCF9CEE70268D36823F48053D3605A
:10291C00006BFEF7F3F9C5E7196A41F21112114287
:10292C00C9D1196A40F244421142C4D15A6C22F402
:10293C0000425A64BFE7042D05D0082D07D00123AF
:10294C0084F84130CBE7012384F83F30C7E70123FB
:10295C0084F84030C3E700BF002C014090F83C30B5
:10296C00012B2CD010B4012380F83C30022380F8CA
:10297C003D3003685A689C6822F0700C0A6842EA81
:10298C000C025A6003680F4A93420AD0B3F1804F8D
:10299C0007D0A2F59432934203D002F580629342A1
:1029AC0004D124F080044A6814439C60012380F80D
:1029BC003D30002380F83C30184610BC7047022094
:1029CC00704700BF002C014090F83C30012B22D006
:1029DC00012380F83C30CB6823F440738A6813439E
:1029EC0023F480634A68134323F400630A68134397
:1029FC0023F480530A69134323F400534A691343A5
:102A0C0023F48043CA69134302685364002380F89B
:102A1C003C301846704702207047704770470000E2
:102A2C00024A136801331360704700BF600700202F
:102A3C00014B1868704700BF60070020014B1860FD
:102A4C00704700BF60070020044B1B685B6AB3FB38
:102A5C00F0F200FB12300130704700BFCC060020B2
:102A6C0030B50D460024A64637E01522CA54013372
:102A7C00DBB2172B14D820FA03F212F0010FF4D0AA
:102A8C003422CA54F3E70CEBC40101EB410105EB12
:102A9C00C10103E01522CA540133DBB2172BF9D95B
:102AAC000CF1010C5FFA8CFCBCF1070F0DD80CEB90
:102ABC00CE030E4AD35C002BE5D00CEBC40101EB2A
:102ACC00410105EBC1010023D3E70EF1010E5FFAC2
:102ADC008EFEBEF1060F05D001341F2C05D84FF029
:102AEC00000CE1E74FF0000EF6E730BD14000020BB
:102AFC0000B58E464FF0000C0FE01522CA5401337E
:102B0C00DBB2172B07D820FA03F212F0010FF4D026
:102B1C003422CA54F3E70CF1010CBCF1FF0F05D8B9
:102B2C000CEB4C010EEBC1010023EAE75DF804FB52
:102B3C0030B58BB00546144CEC46A646BEE80F00EB
:102B4C00ACE80F00BEE80F00ACE80F009EE80300F5
:102B5C008CE8030004F1280393E8030084E80300E5
:102B6C0004F1080C6C460FCCACE80F000FCCACE8B1
:102B7C000F0094E803008CE8030004492846FFF793
:102B8C006FFF0BB030BD00BF1400002064070020A5
:102B9C0010B504461046002212E04FF0150C0EF84A
:102BAC0003C00133DBB2172B09D821FA03FC1CF04C
:102BBC00010FF2D04FF0340C0EF803C0F1E70132E4
:102BCC00824205D202EB420E04EBCE0E0023EAE762
:102BDC0010BD30B5B1F5485F05D0B1F5481F0ED02A
:102BEC0019B98E4601E001F5A06E022B00F08E8023
:102BFC00012B00F01681002B00F0488130BD01F54F
:102C0C00A02EF2E70CEB4C0C00EBCC0C002304E0F8
:102C1C0015250CF803500133DBB2172B5ED82EFAB6
:102C2C0003F515F0010FF3D034250CF80350F2E73F
:102C3C000CEB4C0C00EBCC0C002304E015250CF831
:102C4C0003500133DBB2172B48D82EFA03F515F0DD
:102C5C00010FF3D034250CF80350F2E70CEB4C0CBD
:102C6C0000EBCC034FF0000C06E0152503F80C50DC
:102C7C000CF1010C5FFA8CFCBCF1170F2ED82EFA5C
:102C8C000CF515F0010FF0D0342503F80C50EFE7DC
:102C9C000CEB4C0C00EBCC0C002304E015250CF8D1
:102CAC0003500133DBB2172B18D82EFA03F515F0AD
:102CBC00010FF3D034250CF80350F2E715250CF86E
:102CCC0003500133DBB2172B08D821FA03F515F0AA
:102CDC00010FF3D034250CF80350F2E70134A4466D
:102CEC0094428BD2532C8DDDACF15F032A2B9FD9F0
:102CFC00ACF1C003132BB1D9ACF1DB03142BC7D946
:102D0C000CEB4C0C00EBCC0C0023DCE70024E6E7CE
:102D1C0004EB440400EBC404002303E01525E55444
:102D2C000133DBB2172B4FD82EFA03F515F0010F38
:102D3C00F4D03425E554F3E704EB440400EBC4036E
:102D4C00002403E015251D550134E4B2172C3BD8A3
:102D5C0021FA04F515F0010FF4D034251D55F3E7D5
:102D6C0004EB440400EBC403002403E015251D55BB
:102D7C000134E4B2172C27D82EFA04F515F0010F04
:102D8C00F4D034251D55F3E704EB440400EBC403E5
:102D9C00002403E015251D550134E4B2172C13D87B
:102DAC002EFA04F515F0010FF4D034251D55F3E778
:102DBC0004EB440400EBC403002403E015251D556B
:102DCC000134E4B2172CF9D90CF1010C644694458A
:102DDC00BFF414AFACF10D030B2B99D9A4F1540330
:102DEC000A2BA9D9A4F1C003132BB9D9A4F1DB0385
:102DFC00142BC9D9BCF18B0FDADD04EB440400EBC6
:102E0C00C404002303E01525E5540133DBB2172B72
:102E1C00DAD821FA03F515F0010FF4D03425E55476
:102E2C00F3E74FF0000CD1E70EEB4E0E00EBCE04A7
:102E3C009C4607E04FF0150E04F80CE00CF1010C69
:102E4C005FFA8CFCBCF1170F13D821FA0CFE1EF0A4
:102E5C00010FEFD04FF0340E04F80CE0EEE7152420
:102E6C000EF80C400CF1010C5FFA8CFCBCF1170F46
:102E7C00F5D90135AE469542BFF4C0AE8B2DD3DDEE
:102E8C000EEB4E0E00EBCE0E9C46EFE70025F1E765
:102E9C0010B5022808D00446002800F0CB80012889
:102EAC0040F0D4800020D3E00A20FFF7CDFD864609
:102EBC0001284BD04FF0010C83E01522CA5401338A
:102ECC00DBB2172B07D820FA03F212F0010FF4D063
:102EDC003422CA54F3E70EF1010E0CFB0CC3BEEB0B
:102EEC00830F21DA0EEB4E03964901EBC301964B8F
:102EFC0018680023E5E70CF1FF300CFB00F08000B4
:102F0C0006E01522CA540133DBB2172BF9D9013074
:102F1C000CFB0CC3B0EB830F06DA00EB40038949C2
:102F2C0001EBC3010023F0E70CF1010CBCF10A0F1B
:102F3C0052DCBCF1010F02D01CF0010FDBD10CF103
:102F4C00FF3E0CFB0EFE4FEA8E0EC6E74FF0010C57
:102F5C00ECE70CF1FF340CFB04F4A4000EE015229A
:102F6C00CA540133DBB2172B07D820FA03F212F044
:102F7C00010FF4D03422CA54F3E701340CFB0CC318
:102F8C00B4EB830F1BDA04EB44036E4901EBC30172
:102F9C006D4B18680023E6E701300CFB0CC3B0EB5B
:102FAC00830F0CDA00EB4001664B03EBC1010023ED
:102FBC00172BF1D81522CA540133DBB2F8E70CF108
:102FCC00010CBCF10A0F07DCF445C2D00CF1FF3048
:102FDC000CFB00F08000E0E742F65813594A04213C
:102FEC005A48FFF72BFB1E20FDF782FD002006E060
:102FFC001522CA540133DBB2172BF9D90130B0F5C5
:10300C00DC7F23DA00EB40014E4B03EBC1010023C4
:10301C00F2E71522CA540133DBB2172BF9D9013070
:10302C00B0F5DC7F08DA00EB4001464B03EBC10145
:10303C002346F2E70020F3E742F65813414A0421F5
:10304C004248FFF7FBFA1420FDF752FD10BD01308A
:10305C00B0F5DC7F0CDA00EB40013A4B03EBC1011D
:10306C000023172BF3D81522CA540133DBB2F8E72F
:10307C004FF0010E24E001243CE001243AE001244D
:10308C0038E03422CA540133DBB2172B07D820FAAC
:10309C0003F212F0010FF4D11522CA54F3E7A44441
:1030AC000EFB0EE3BCEB830F08DA0CEB4C01254B4B
:1030BC0003EBC101244B18680023E6E70EF1010E67
:1030CC00BEF10A0F21DCBEF1090FD4D0BEF1060F00
:1030DC00D3D0BEF1030FD2D0BEF1050F08D0BEF194
:1030EC00070F05D0BEF1080F02D0BEF10A0FE5D1D3
:1030FC004FEA4E040EF1FF330EFB03F304EBD47CCA
:10310C004FEA6C0C0CEB830CCAE742F658130D4AD1
:10311C0004210E48FFF792FA1420FDF7E9FC002079
:10312C0000E00130B0F5DC7F90DA00EB4001054B9C
:10313C0003EBC1010023172BF3D81522CA5401331A
:10314C00DBB2F8E7801F00200C00002014070020E1
:10315C00F8B50646234D2946FFF7CAFC224F41F627
:10316C0018032A4608213846FFF768FA0A20FDF7AB
:10317C00BFFC1E4C02234FF4DC7231462046FFF795
:10318C0028FD1B4E41F2C863224608213046FFF74A
:10319C0055FA0A20FDF7ACFC6420FDF7A9FC294682
:1031AC000020FFF7A5FC41F618032A4608213846F3
:1031BC00FFF744FA0A20FDF79BFC02234FF4DC7264
:1031CC0000212046FFF705FD41F2C8632246082185
:1031DC003046FFF733FA0A20FDF78AFC6420FDF72E
:1031EC0087FCF8BD6407002084060020801F0020A7
:1031FC001407002010B5124C21460020FFF778FC74
:10320C0041F61803224608210E48FFF717FA0A2048
:10321C00FDF76EFC0C4C02234FF4DC7200212046AF
:10322C00FFF7D7FC41F2C863224608210748FFF795
:10323C0005FA0A20FDF75CFC0020FFF729FE10BD03
:10324C006407002084060020801F00201407002043
:10325C00F8B5174C42F6581632460021204600F0BD
:10326C003FF9144D41F618073A460021284600F064
:10327C0037F929460020FFF7F3FB4FF4DC720021ED
:10328C002046FFF785FC3B462A4608210A48FFF7F3
:10329C00D5F90A4D41F2C863224608212846FFF7AA
:1032AC00CDF93346224604212846FFF7C7F9F8BD6D
:1032BC00801F0020640700208406002014070020D3
:1032CC0038B5012269496A48FEF7BEFBE8B9674B7D
:1032DC001B78803B0F2B11D8DFE803F05721100827
:1032EC00102A10101010101010101030614B4FF4E9
:1032FC0048521A60604B4FF480421A6041F2C86326
:10330C005E4A08215E48FFF799F95E4B1B78013B3A
:10331C00032B00F2A280DFE803F03C5173A1554B64
:10332C004FF448121A60544B4FF480021A60E5E7D0
:10333C00FFF760FF534B01221A70DFE70120FFF704
:10334C00A7FD01224FF400414F48FDF7DEFE494C2A
:10335C004A4D01234FF4DC7221682846FFF739FCF3
:10336C0041F2C8632A4608214548FFF767F92068EF
:10337C00FFF7DEFB41F61803444A08214448FFF7E7
:10338C005DF9404B02221A70B8E73E4B04221A70CA
:10339C00B4E702213F48FDF7B1FE01285DD13D4C59
:1033AC00002204212046FDF7B0FE0A20FDF7A0FB09
:1033BC00012204212046FDF7A8FE4EE0FFF738FB62
:1033CC00C8280ED802213348FDF798FE012844D1B5
:1033DC002C4B03221A70002204212E48FDF795FE77
:1033EC003BE0244B1868FFF7A3FB41F61803274A70
:1033FC0008212748FFF722F90020FFF71FFBE1E720
:10340C000220FFF745FD214C1A4D21462868FFF795
:10341C006FFB41F61803224608211D48FFF70EF9F1
:10342C000A20FDF765FB154C02234FF4DC7229686A
:10343C002046FFF7CEFB41F2C86322460821104814
:10344C00FFF7FCF80A20FDF753FB01220421114879
:10345C00FDF75BFE0B4B01221A7038BD054B18684B
:10346C00FFF776FE074B01221A70F6E77C1F00204F
:10347C00900400200C00002010000020801F002071
:10348C0014070020440000200008014064070020BD
:10349C0084060020000C014070B50D4E0D4D761BBE
:1034AC00B61006D0002455F8043B01349847A642C8
:1034BC00F9D1094E094D00F0D5F8761BB61006D09F
:1034CC00002455F8043B01349847A642F9D170BD4D
:1034DC00B0360008B0360008B8360008B036000820
:1034EC00830730B548D0541E002A3FD00346CAB2D9
:1034FC0001E0013C3AD303F8012B9D07F9D1032CD1
:10350C002DD9CDB245EA05250F2C45EA054536D90E
:10351C00A4F1100222F00F0C03F1200EE6444FEA46
:10352C00121C03F1100242E9045542E90255103213
:10353C007245F8D10CF1010214F00C0F03EB0212DE
:10354C0004F00F0C13D0ACF1040323F00303043389
:10355C00134442F8045B9342FBD10CF003042CB1EE
:10356C00CAB21C4403F8012B9C42FBD130BD64460B
:10357C001346002CF4D1F9E703461446BFE71A466C
:10358C00A446E0E7024B13B1024800F005B87047BF
:10359C0000000000B1350008002301461A46184609
:1035AC0000F01AB838B5084B084D5B1B9C1007D0BF
:1035BC00043B1D44013C55F804399847002CF9D1C3
:1035CC00BDE8384000F054B8BC360008B8360008E6
:1035DC00704700BF704700BF2DE9F047DFF87CA0B3
:1035EC000646DAF8000098460F469146FFF7F0FFC2
:1035FC001B4B1B68D3F8484124B365681F2D26DC90
:10360C005EB96B1C0235DAF80000636044F8257073
:10361C00FFF7E0FF0020BDE8F087012304EB8501F4
:10362C00C1F88890D4F88821AB401A43022EC4F814
:10363C008821C1F80881E4D1D4F88C211343C4F853
:10364C008C31DEE703F5A674C3F84841D5E7DAF808
:10365C000000FFF7BFFF4FF0FF30DCE770040020E5
:10366C00AC360008F8B500BFF8BC08BC9E467047E5
:0C367C00F8B500BFF8BC08BC9E467047C3
:10368800000000000000000001020304060708090A
:1036980002030405060708090A0B0C0D0E0F10108B
:0836A8000000000048000020B2
:0836B00091350008310100080A
:0436B8000D010008F8
:1036BC000024F400010000001000000000320000A3
:1036CC0000400000000000000000000000010000AD
:1036DC0000000100000101000001010000010101D6
:1036EC0001010100000001010101000000000001C6
:1036FC000100000001000000000000003403002065
:10370C009C030020040400200000000000000000C6
:10371C00000000000000000000000000000000009D
:10372C00000000000000000000000000000000008D
:10373C00000000000000000000000000000000007D
:10374C00000000000000000000000000000000006D
:10375C00000000000000000000000000000000005D
:10376C00000000000000000000000000000000004D
:10377C00000000000000000000000000000000003D
:10378C00000000000000000000000000000000002D
:10379C00000000000000000000000000000000001D
:1037AC0001000000000000000E33CDAB34126DE6BA
:1037BC00ECDE05000B000000000000000000000023
:1037CC0000000000000000000000000000000000ED
:1037DC0000000000000000000000000000000000DD
:1037EC0000000000000000000000000000000000CD
:1037FC0000000000000000000000000000000000BD
:043B2C00D848002055
:0400000508000A1DC8
:00000001FF
