:020000040800F2
:10000000005000203D0B0008790700087B0700081E
:100010007D0700087F070008810700080000000036
:10002000000000000000000000000000830700083E
:1000300085070008000000008707000889070008FE
:10004000850B0008850B0008850B0008850B000850
:10005000850B0008850B0008850B0008850B000840
:10006000850B0008850B0008850B0008850B000830
:1000700091070008850B0008850B0008850B000818
:10008000850B0008850B0008850B0008850B000810
:10009000A1070008850B0008850B0008850B0008E8
:1000A000850B0008850B0008850B0008850B0008F0
:1000B000850B0008B1070008850B0008850B0008B8
:1000C000850B0008850B0008850B0008850B0008D0
:1000D000850B0008850B0008C1070008850B000888
:1000E000850B0008850B0008850B00080000000048
:1000F0000000000000000000000000000000000000
:0C01000000000000000000005FF808F1A3
:10010C000348044B834202D0034B03B1184770479A
:10011C004404002044040020000000000548064967
:10012C000B1AD90F01EBA301491002D0034B03B1F9
:10013C0018477047440400204404002000000000CD
:10014C0010B5064C237843B9FFF7DAFF044B13B113
:10015C000448AFF300800123237010BD4404002039
:10016C00000000005438000808B5044B1BB10449CA
:10017C000448AFF30080BDE80840CFE70000000062
:10018C004804002054380008002301461A4618463B
:10019C0000F08EB838B50A4C0A4D641BA4100AD076
:1001AC0004F18043013B05EB8305013C55F8043910
:1001BC009847002CF9D1BDE8384003F04BBB00BF89
:1001CC00983E0008943E000870B50D4E0D4D761B00
:1001DC00B61006D00024013455F8043B9847A642CB
:1001EC00F9D1094E094D03F02FFB761BB61006D042
:1001FC000024013455F8043B9847A642F9D170BD50
:10020C008C3E00088C3E0008943E00088C3E000892
:10021C00F0B4860746D0541E002A3CD0CAB203461E
:10022C0002E014F1FF3436D303F8012B9D07F8D10B
:10023C00032C29D9CDB245EA05250F2C45EA0545F5
:10024C0033D9A4F11006360903F1200707EB061782
:10025C0003F1100242E9045542E902551032BA4248
:10026C00F8D1721C14F00C0F03EB021204F00F0601
:10027C0013D0331F23F003030433134442F8045BFD
:10028C009342FBD106F003042CB1C9B21C4403F811
:10029C00011B9C42FBD1F0BC704734461346002C2A
:1002AC00F3D1F8E714460346C2E71A462646E0E7C0
:1002BC00F0B4174C2568D5F848410CB365681F2D70
:1002CC0023DC38B900206B1C0235636044F8251020
:1002DC00F0BC7047012604EB850CCCF88820D4F8D0
:1002EC00887106FA05F217430228C4F88871CCF815
:1002FC000831E7D1D4F88C311A43C4F88C21E1E7EA
:10030C0005F5A674C5F84841D8E74FF0FF30DFE794
:10031C006C38000808B50C480C4B0360092343608B
:10032C0000238360C3604FF4803202614361037623
:10033C0043768376C3760377437700F07DFC00B970
:10034C0008BD00F0DBF8FBE760040020006400400F
:10035C0030B587B00023029303930493059302688E
:10036C001B4B9A4201D007B030BD03F5D633DA6986
:10037C0042F00072DA61DA6902F000720092009ABF
:10038C009A6942F004029A619B6903F00403019399
:10039C00019B4FF4006302930024039404940D4DCD
:1003AC0002A9284601F02EF94FF480530293022340
:1003BC0003930323059302A9284601F023F922464F
:1003CC002146142000F080FF142000F0B1FFCAE792
:1003DC00006400400008014000B583B00A4B5A6924
:1003EC0042F001025A615B6903F001030193019B26
:1003FC00002211460C2000F067FF0C2000F098FF43
:10040C0003B05DF804FB00BF001002402DE9F04181
:10041C0088B000240494059406940794344B9A698C
:10042C0042F020029A619A6902F020020192019A2C
:10043C009A6942F004029A619A6902F004020292EB
:10044C00029A9A6942F008029A619B6903F00803C8
:10045C000393039B274D22464EF6E021284601F0DC
:10046C00E8F9254E22464FF48061304601F0E1F95F
:10047C0041F21053049305940127069704A92846CA
:10048C0001F0C0F84EF6E0230493059706944FF064
:10049C000208CDF81C8004A9284601F0B3F84FF4EB
:1004AC00007304930594069704A9304601F0AAF84A
:1004BC004FF48063049305970694CDF81C8004A92F
:1004CC00304601F09FF84FF40043049305940694D2
:1004DC0004A9304601F096F8082304930594069479
:1004EC0004A9284601F08EF808B0BDE8F08100BFE1
:1004FC0000100240000C01400008014072B6FEE7FB
:10050C0000B591B0002309930B930C9301930293C4
:10051C00039304930593012106914FF480320792C3
:10052C0008930A9102230D930E924FF480130F93AC
:10053C0006A801F0A3F980B90F23019302210291BF
:10054C00002303934FF480620492059301A801F0F9
:10055C00D9FB20B911B05DF804FBFFF7CFFFFFF713
:10056C00CDFF000030B583B000F02EFBFFF7C8FFC5
:10057C00FFF74CFFFFF730FFFFF7CCFE00F078F8E9
:10058C0000F01EFA00F076FA00F01EF900F054F9B3
:10059C00324801F01FFF324801F0EEFE02F08CFDF4
:1005AC0002F03EFF03F042F8002003F0ABF802F03B
:1005BC001BFD00238DF8073002F030FE01241EE0F5
:1005CC00284B1978E0B202F0F3FC0134264B1B786F
:1005DC00A342F5DA0A2000F01BFB00238DF807304C
:1005EC004FF40041214801F02AF92C460DF1070087
:1005FC0002F028FD02F064FCB0F5FA6F24D802F08A
:10060C0099FE0128F2D16542B4F1FF3F03D0012CD1
:10061C0009D02C46EAE70124D8E7124B5978E0B20E
:10062C0002F0C6FC0134104B1B78A342F5DA0A2009
:10063C0000F0EEFA00238DF807304FF400410B4820
:10064C0001F0FDF82C46D1E74FF48041074801F04A
:10065C00F6F8002002F03AFCD1E700BF6C05002050
:10066C00B40500203C04002041040020000C014093
:10067C0008B50E480E4B03604FF4827343600023A1
:10068C008360C360036143614FF40072826138225E
:10069C00C26180220262436283620A23C36201F058
:1006AC0087FC00B908BDFFF729FFFBE78804002091
:1006BC000030014010B586B00023029303930493DD
:1006CC0005930268164B9A4201D006B010BD03F593
:1006DC0060439A6942F480529A619A6902F480529A
:1006EC000092009A9A6942F004029A619B6903F0A5
:1006FC0004030193019BA02302930223039303237E
:10070C000593084C02A9204600F07CFF402302937D
:10071C0000230393049302A9204600F073FFD4E74F
:10072C00003001400008014082B00E4B9A6942F043
:10073C0001029A619A6902F001020092009ADA6948
:10074C0042F08052DA61DB6903F080530193019B24
:10075C00054A536823F0E06343F00073536002B022
:10076C00704700BF0010024000000140FEE7FEE7AA
:10077C00FEE7FEE7FEE770477047704708B500F0EC
:10078C0035FA08BD08B5024800F09AFE08BD00BF56
:10079C00E004002008B5024800F05FFC08BD00BF73
:1007AC006004002008B5024801F04CFE08BD00BFF3
:1007BC006C05002008B5024802F048FA08BD00BFDD
:1007CC00FC0500207047000000B587B000230293A1
:1007DC00039304930593009301931548154A026003
:1007EC0047224260836040F2E732C260036183615A
:1007FC0001F020FF90B94FF48053029302A90C48EA
:10080C0002F015F868B90023009301936946084873
:10081C0002F07AF840B907B05DF804FBFFF76EFE02
:10082C00E9E7FFF76BFEEEE7FFF768FEF3E700BFC3
:10083C006C0500200004004000B587B00023029333
:10084C00039304930593009301931448144A026094
:10085C002B22426083602D22C2600361836101F010
:10086C00E9FE90B94FF48053029302A90B4801F0B2
:10087C00DEFF68B90023009301936946074802F034
:10088C0043F840B907B05DF804FBFFF737FEE9E722
:10089C00FFF734FEEEE7FFF731FEF3E7B405002077
:1008AC00000800400268174B9A4200D0704710B500
:1008BC0082B0044603F564439A6942F400629A617B
:1008CC009B6903F400630193019B0F480F4B03607A
:1008DC0010234360002383608022C2604FF4807237
:1008EC0002614FF48062426120228261C36100F098
:1008FC0043FD20B9044B63625C6202B010BDFFF78C
:10090C00FDFDF7E7002C0140E00400201C00024034
:10091C0000B583B00368134A934205D0124A934240
:10092C0015D003B05DF804FB104BDA6942F00202FB
:10093C00DA61DB6903F002030093009B002211468D
:10094C001D2000F0C1FC1D2000F0F2FCE9E7074B74
:10095C00DA6942F00402DA61DB6903F00403019303
:10096C00019BDEE70004004000080040001002403C
:10097C0000B587B000230293039304930593026898
:10098C000D4B9A4202D007B05DF804FB03F56443AB
:10099C009A6942F004029A619B6903F00403019383
:1009AC00019B4FF48073029302230393059302A9D6
:1009BC00024800F027FEE6E7002C01400008014049
:1009CC0010B592B000241094119409940A940B94CD
:1009DC000C940D940E940F942022214601A8FFF73D
:1009EC0017FC2248224B0360446084604F23C36091
:1009FC0004614461846101F049FE002829D100237F
:100A0C001093119310A9194801F07EFF20BB6023AD
:100A1C00099300220A920B920C920D920E920F9255
:100A2C0009A9124801F090FEC8B900230193029362
:100A3C000393049305934FF400520692089301A973
:100A4C000A4801F095FF68B90848FFF791FF12B00A
:100A5C0010BDFFF753FDD2E7FFF750FDD7E7FFF7C7
:100A6C004DFDE2E7FFF74AFDEEE700BF240500204D
:100A7C00002C014008B50A480A4B03604FF4E133DF
:100A8C00436000238360C36003610C224261836175
:100A9C00C36102F029F800B908BDFFF72FFDFBE791
:100AAC00FC0500200044004030B587B000230293C1
:100ABC0003930493059302681B4B9A4201D007B031
:100ACC0030BD03F5E633DA6942F40032DA61DA69F3
:100ADC0002F400320092009A9A6942F004029A6180
:100AEC009B6903F004030193019B042302930223EB
:100AFC000393032305930D4D02A9284600F082FDB4
:100B0C00082302930024039404940DEB030128465C
:100B1C0000F078FD22462146262000F0D5FB262049
:100B2C0000F006FCCBE700BF004400400008014089
:100B3C000C480D490D4A002302E0D458C45004332C
:100B4C00C4188C42F9D30A4A0A4C002301E0136002
:100B5C000432A242FBD3FFF735FEFFF735FBFFF75C
:100B6C0001FD70470000002044040020983E00085E
:100B7C0044040020CC060020FEE7000010B504461B
:100B8C000E4B18784FF47A73B3FBF0F30C4A1068E1
:100B9C00B0FBF3F000F0DAFB68B90F2C01D901209F
:100BAC000AE0002221464FF0FF3000F08DFB054B90
:100BBC001C60002000E0012010BD00BF34040020A8
:100BCC00300400203804002008B5074A136843F0AD
:100BDC0010031360032000F065FB0F20FFF7CEFF1E
:100BEC00FFF7A2FD002008BD00200240034A116857
:100BFC00034B1B780B441360704700BF400600206A
:100C0C0034040020014B1868704700BF40060020D8
:100C1C0038B50446FFF7F6FF0546B4F1FF3F02D0A6
:100C2C00044B1B781C44FFF7EDFF401BA042FAD38A
:100C3C0038BD00BF34040020002800F0A18038B576
:100C4C00044690F82030D3B12268136843F00103B6
:100C5C001360FFF7D7FF054623685A6812F0010F9F
:100C6C0010D1FFF7CFFF401B0A28F5D9636A43F474
:100C7C0000336362052384F82030012038BDFFF770
:100C8C0067FBE1E71A6822F002021A60FFF7BAFF6D
:100C9C00054623685A6812F0020F0DD0FFF7B2FF19
:100CAC00401B0A28F5D9636A43F4003363620523B9
:100CBC0084F820300120E1E7227E012A3DD01A6819
:100CCC0022F080021A60637E012B3BD022681368ED
:100CDC0023F040031360A37E012B39D022681368E4
:100CEC0023F020031360E37E012B37D022681368B6
:100CFC0043F010031360237F012B35D02268136857
:100D0C0023F008031360637F012B33D02268136830
:100D1C0023F004031360A368E268134322691343AE
:100D2C00626913436268013A21681343CB61002066
:100D3C006062012384F82030A0E71A6842F0800238
:100D4C001A60C0E72268136843F040031360C2E7DF
:100D5C002268136843F020031360C4E72268136809
:100D6C0023F010031360C6E72268136843F00803EE
:100D7C001360C8E72268136843F004031360CAE7E2
:100D8C0001207047026890F82030013BDBB2012B48
:100D9C0005D9436A43F4802343620120704770B441
:100DAC00D2F8003243F00103C2F800324B6903F071
:100DBC001F03012000FA03F3D2F81C02DC4320EAE3
:100DCC000300C2F81C02C869A8B9D2F80C02204072
:100DDC00C2F80C02CE688D88486945EA0645483051
:100DEC0042F830508E680D88486945EA064548300F
:100DFC0002EBC0004560C869012819D0886970BB36
:100E0C00D2F804022040C2F80402086968BBD2F888
:100E1C0014020440C2F81442096A01292BD0D2F8FA
:100E2C00003223F00103C2F80032002070BC70477E
:100E3C00D2F80C021843C2F80C020E688D8848696F
:100E4C0045EA0645483042F830508E688D8948692D
:100E5C0045EA0645483002EBC0004560CEE7D2F8C3
:100E6C0004021843C2F80402CFE7D2F81402184364
:100E7C00C2F81402D0E7D2F81C120B43C2F81C3291
:100E8C00CDE770B5044690F82050EDB2012D06D098
:100E9C00436A43F4002343620125284670BD0223B4
:100EAC0080F820300268136823F001031360FFF709
:100EBC00A9FE064623685B6813F0010F0CD0FFF700
:100ECC00A1FE831B0A2BF5D9636A43F400336362DA
:100EDC00052384F82030E0E700256562DDE730B4B7
:100EEC0090F82040013CE4B2012C00F2918051B901
:100EFC000468E46814F0030F10D1436A43F4001340
:100F0C004362012089E00468246914F0030F05D1C1
:100F1C00436A43F40013436201207EE0056801F14B
:100F2C001B0424012C5904F004049460002C61D19E
:100F3C00056801F11B0424012C59640D146005682B
:100F4C0001F11B0424012D5905F00205D56005683B
:100F5C0025446D6805F00F051561056825446D681D
:100F6C00C5F30725956105682C446468240C54610D
:100F7C00026802EB0112D2F8B8211A70026802EB77
:100F8C000112D2F8B821C2F307225A70026802EBA0
:100F9C000112D2F8B821C2F307429A70026802EB30
:100FAC000112D2F8B821120EDA70026802EB0112AB
:100FBC00D2F8BC211A71026802EB0112D2F8BC21E2
:100FCC00C2F307225A71026802EB0112D2F8BC215B
:100FDC00C2F307429A71026802EB0112D2F8BC21EB
:100FEC00120EDA7171B90268D36843F02003D36032
:100FFC00002012E0056801F11B0424012C59E408BF
:10100C0054609CE70268136943F020031361EFE717
:10101C00436A43F480234362012030BC704790F84C
:10102C002030013BDBB2012B05D9436A43F480230A
:10103C0043620120704702685369194351610020D3
:10104C0070477047704770477047704770477047DC
:10105C00704770477047704770472DE9F84F054649
:10106C0003685C69D3F804809F68D3F80CB0D3F89C
:10107C0010A0D3F8189014F001063BD017F001061D
:10108C0016D001229A6017F0020F08D117F0040F46
:10109C000CD117F0080606D04FF4805608E0FFF785
:1010AC00D0FF002604E0FFF7CFFF01E04FF400660D
:1010BC0017F4807F0DD02B684FF480729A6017F470
:1010CC00007F40F0868017F4806F00F0868046F435
:1010DC00005617F4803F0DD02B684FF480329A6085
:1010EC0017F4003F40F0838017F4802F00F08380CA
:1010FC0046F4004614F0080F07D01BF0100F04D074
:10110C0046F400762B681022DA6014F0040F02D03B
:10111C001BF0080F79D114F0020F04D02B68DB6898
:10112C0013F0030F78D114F0400F07D01AF0100F02
:10113C0004D046F480662B6810221A6114F0200F3C
:10114C0002D01AF0080F6BD114F0100F04D02B68DA
:10115C001B6913F0030F6AD114F4003F02D018F08E
:10116C00100F68D114F4803F02D018F0080F69D129
:10117C0014F4004F7AD018F0040F74D014F4807F5C
:10118C0004D019F0010F01D046F0010614F4007FD1
:10119C0004D019F0020F01D046F0020614F4806F4F
:1011AC0004D019F0040F01D046F0040614F4006FBB
:1011BC0059D019F0700956D0B9F1400F65D058D8F4
:1011CC00B9F1200F5ED0B9F1300F42D146F02006B4
:1011DC0044E02846FFF736FF7BE717F4006F02D098
:1011EC0046F4804675E72846FFF72FFF71E728463F
:1011FC00FFF729FF7EE717F4002F02D046F4803664
:10120C0078E72846FFF722FF74E72B680822DA609C
:10121C002846FFF71CFF7EE7284602F0DDF882E740
:10122C002B6808221A612846FFF713FF8CE7284623
:10123C00FFF70EFF90E72B6810225A602846FFF745
:10124C0009FF8FE72B6808225A602846FFF703FF37
:10125C008EE7B9F1100F01D146F008062A689369A0
:10126C0023F0700393612B6804225A609EB9BDE889
:10127C00F88FB9F1500F0BD0B9F1600FEED146F4E5
:10128C008076EBE746F01006E8E746F04006E5E727
:10129C0046F08006E2E76B6A1E436E622846FFF753
:1012AC00DBFEE4E7074AD36823F4E0631B041B0C62
:1012BC00000200F4E060034343F0BF6343F40033E7
:1012CC00D360704700ED00E030B4174BDB68C3F31C
:1012DC000223C3F10704042C28BF04241D1D062D72
:1012EC0018D9033B4FF0FF3505FA04F421EA040149
:1012FC00994005FA03F322EA0303194300280BDB98
:10130C000901C9B200F1604000F5614080F800139A
:10131C0030BC70470023E5E700F00F000901C9B2AB
:10132C00024B1954F4E700BF00ED00E014ED00E0AF
:10133C00002807DB00F01F02400901239340024AFA
:10134C0042F82030704700BF00E100E00138B0F1F6
:10135C00807F0AD2064B5860064AF02182F823108F
:10136C000020986007221A6070470120704700BF68
:10137C0010E000E000ED00E060B310B4024601683C
:10138C00154B0B441548A0FB03031B099B0013646E
:10139C00134BD363022382F82130086820F47F506A
:1013AC0020F03000536894682343D46823431469B5
:1013BC0023435469234394692343D469234303434C
:1013CC000B6000209063012382F8213082F820000A
:1013DC0010BC704701207047F8FFFDBFCDCCCCCCC2
:1013EC000000024090F82130022B06D004238363C6
:1013FC00002380F82030012070470268136823F026
:10140C000E0313600268136823F001031360036C6E
:10141C00C16B012202FA03F34B6080F821200023F8
:10142C0080F820301846704708B590F82130022B10
:10143C0003D004238363012008BD0268136823F0E2
:10144C000E0313600268136823F001031360036832
:10145C00194A934214D0143293421FD0143293423F
:10146C001ED0143293421ED0143293421ED014322A
:10147C00934202D04FF0807203E04FF4801200E0F0
:10148C0001220E4B5A60012380F82130002380F892
:10149C002030436B6BB198470020CDE71022F0E76A
:1014AC004FF48072EDE74FF48052EAE74FF480324C
:1014BC00E7E70020C0E700BF080002400000024040
:1014CC0038B5C36B1A6804682568016C04238B401B
:1014DC00134235D015F0040F32D0236813F0200FCF
:1014EC0003D1236823F0040323600368434A934227
:1014FC0014D01432934218D01432934217D01432B1
:10150C00934217D01432934217D01432934202D024
:10151C004FF0806203E04FF4800200E00422384B6D
:10152C005A60C36A03B1984738BD4022F7E74FF4BD
:10153C008062F4E74FF48042F1E74FF48022EEE74B
:10154C0002238B4013423CD015F0020F39D0236894
:10155C0013F0200F06D1236823F00A032360012324
:10156C0080F821300368254A934214D014329342F8
:10157C001CD0143293421BD0143293421BD0143221
:10158C0093421BD01432934202D04FF0007203E00E
:10159C004FF4001200E00222194B5A60002380F82D
:1015AC002030836A002BBFD09847BDE72022F3E799
:1015BC004FF40072F0E74FF40052EDE74FF40032B5
:1015CC00EAE7082303FA01F11142ADD015F0080F38
:1015DC00AAD0236823F00E032360026CC16B012395
:1015EC0003FA02F24A60836380F82130002380F80A
:1015FC002030036B002B97D0984795E708000240EA
:10160C0000000240F0B482B000252C46A3E07F4FCE
:10161C00BB4210D007D97E4FBB420CD007F58037A8
:10162C00BB4208D013E0A7F58017BB4203D007F5E7
:10163C007027BB4207D18B68002B58D0012B51D09F
:10164C004261082503E0A7F58017BB42F3D0FF2EBB
:10165C004FD88446FF2E4FD8A200DCF800300F275D
:10166C00974023EA070305FA02F21343CCF8003043
:10167C004B6813F0805F6DD0664B9A6942F00102A3
:10168C009A619B6903F001030193019BA208971CCB
:10169C00614B53F8273004F00307BF004FF00F0CD9
:1016AC000CFA07FC23EA0C0C5C4B98422AD003F58D
:1016BC008063984200F08A8003F58063984200F0C2
:1016CC00878003F5806398421AD004231BE0CD6811
:1016DC00BDE7CD680435BAE7CD680835B7E7CD6806
:1016EC000C35B4E702610825B1E70025AFE7042506
:1016FC00ADE700F1040CADE7A4F108029200ACE7F1
:10170C00032300E00023BB4043EA0C030232424FA8
:10171C0047F822304B6813F4803F5BD0404A136883
:10172C00334313604B6813F4003F59D03C4A536861
:10173C00334353604B6813F4801F57D0384A936877
:10174C00334393604B6813F4001F55D0344AD3686D
:10175C001E43D66001340B6833FA04F252D00122D6
:10176C00A24003EA020632EA0303F3D14B68122BC0
:10177C003FF64DAF122B3FF66AAF01A757F823F097
:10178C0043160008DB160008E5160008F7160008DB
:10179C005B1600085B1600085B1600085B16000859
:1017AC005B1600085B1600085B1600085B16000849
:1017BC005B1600085B1600085B1600085B16000839
:1017CC005B160008DF160008EB16000801239AE7E9
:1017DC00022398E7124A136823EA06031360A1E771
:1017EC000F4A536823EA06035360A3E70C4A936835
:1017FC0023EA06039360A5E7094AD36823EA0606A1
:10180C00D660A7E702B0F0BC704700BF0000221002
:10181C00000031100010024000000140000801409F
:10182C00000401408368194201D001207047002058
:10183C0070470AB101617047090401617047C368C0
:10184C0001EA030221EA030141EA02410161704706
:10185C0082B0084B1B68084AA2FB03235B0A00FBFF
:10186C0003F3019300BF019B5A1E0192002BF9D187
:10187C0002B0704730040020D34D6210002800F0F5
:10188C00F18170B582B00446036813F0010F2CD0BF
:10189C00AA4B5B6803F00C03042B1DD0A74B5B68B1
:1018AC0003F00C03082B12D06368B3F5803F41D0D2
:1018BC00002B55D103F1804303F504331A6822F44D
:1018CC0080321A601A6822F480221A6037E09B4B2F
:1018DC005B6813F4803FE7D0984B1B6813F4003F10
:1018EC0003D06368002B00F0BF81236813F0020F54
:1018FC0075D0924B5B6813F00C0F5FD08F4B5B680D
:10190C0003F00C03082B54D02369002B00F08980C2
:10191C008B4B01221A60FFF775F90546874B1B6844
:10192C0013F0020F74D1FFF76DF9401B0228F5D9A3
:10193C0003209EE1814A136843F48033136063688B
:10194C0043B3FFF75FF905467C4B1B6813F4003F6C
:10195C00CBD1FFF757F9401B6428F5D9032088E158
:10196C00B3F5A02F09D0754B1A6822F480321A6097
:10197C001A6822F480221A60E1E703F18043A3F590
:10198C003C331A6842F480221A601A6842F480329E
:10199C001A60D4E7FFF736F90546684B1B6813F459
:1019AC00003FA2D0FFF72EF9401B6428F5D9032085
:1019BC005FE1624B5B6813F4803FA5D15F4B1B6802
:1019CC0013F0020F03D02369012B40F04F815B4AC7
:1019DC00136823F0F803616943EAC10313602368B9
:1019EC0013F0080F32D0A369002B45D0554B0122C0
:1019FC001A60FFF707F90546504B5B6A13F0020FAC
:101A0C0021D1FFF7FFF8401B0228F5D9032030E164
:101A1C004A4A136823F0F803616943EAC10313606F
:101A2C00DDE7474B00221A60FFF7ECF80546434B05
:101A3C001B6813F0020FD2D0FFF7E4F8401B02280A
:101A4C00F5D9032015E10120FFF702FF236813F0FD
:101A5C00040F00F09780394BDB6913F0805F1DD1C8
:101A6C00364BDA6942F08052DA61DB6903F080535D
:101A7C000193019B012512E0324B00221A60FFF703
:101A8C00C1F805462D4B5B6A13F0020FDED0FFF751
:101A9C00B9F8401B0228F5D90320EAE000252A4BAF
:101AAC001B6813F4807F11D0E368012B22D0002B2C
:101ABC0038D103F1804303F504331A6A22F0010292
:101ACC001A621A6A22F004021A6218E01E4A13689B
:101ADC0043F480731360FFF795F806461A4B1B68A6
:101AEC0013F4807FE0D1FFF78DF8801B6428F5D9C3
:101AFC000320BEE0114A136A43F001031362E3684A
:101B0C0073B3FFF77FF806460C4B1B6A13F0020FFA
:101B1C0037D1FFF777F8801B41F288339842F3D91D
:101B2C000320A6E0052B11D0044B1A6A22F0010207
:101B3C001A621A6A22F004021A62E0E700100240EC
:101B4C000000424280044242007000404D4B1A6A31
:101B5C0042F004021A621A6A42F001021A62CEE7DB
:101B6C00FFF750F80646474B1B6A13F0020F08D0DC
:101B7C00FFF748F8801B41F288339842F3D90320D1
:101B8C0077E0E5B9E369002B72D03E4A526802F067
:101B9C000C02082A56D0022B17D03B4B00221A609D
:101BAC00FFF730F80446374B1B6813F0007F47D023
:101BBC00FFF728F8001B0228F5D9032059E0314A19
:101BCC00D36923F08053D361DCE72F4B00221A60DA
:101BDC00FFF718F805462B4B1B6813F0007F06D057
:101BEC00FFF710F8401B0228F5D9032041E0236AC7
:101BFC00B3F5803F1AD023494B6823F47413226A3F
:101C0C00606A024313434B601F4B01221A60FEF7BC
:101C1C00F9FF04461B4B1B6813F0007F0ED1FEF737
:101C2C00F1FF001B0228F5D9032022E0154A536866
:101C3C0023F40033A1680B435360DCE7002018E069
:101C4C00002016E0012B16D00E4B5B6803F480319C
:101C5C00226A914211D103F47013626A93420ED13D
:101C6C00002006E001207047012002E0012000E086
:101C7C00002002B070BD0120FBE70120F9E7012034
:101C8C00F7E700BF001002406000424286B0184BDC
:101C9C000FCB0DF1180C0CE90F0040F20123ADF83D
:101CAC000430144B5A6802F00C03042B1AD0082B86
:101CBC001AD1C2F38343634413F8101C12F4803F0F
:101CCC000CD00C4B5B68C3F34043634413F8143CD7
:101CDC00094800FB01F0B0FBF3F006E0074800FBFD
:101CEC0001F002E0044800E0054806B0704700BF70
:101CFC008838000800100240001BB70000093D00A6
:101D0C0000127A00002800F0A08070B50D46044641
:101D1C00524B1B6803F007038B420BD24F4A1368DC
:101D2C0023F007030B431360136803F007038B4284
:101D3C0040F08D80236813F0020F17D013F0040FBE
:101D4C0004D0474A536843F4E0635360236813F0AC
:101D5C00080F04D0424A536843F460535360404A1E
:101D6C00536823F0F003A1680B435360236813F00E
:101D7C00010F31D06368012B20D0022B25D0384ABB
:101D8C00126812F0020F64D035494A6822F003023F
:101D9C0013434B60FEF736FF0646314B5B6803F08E
:101DAC000C036268B3EB820F16D0FEF72BFF801B7F
:101DBC0041F288339842F0D9032045E0284A126852
:101DCC0012F4003FE0D101203EE0254A126812F0E7
:101DDC00007FD9D1012037E0204B1B6803F00703AB
:101DEC00AB420AD91D4A136823F007032B43136037
:101DFC00136803F00703AB422DD1236813F0040FD3
:101E0C0006D0174A536823F4E063E1680B43536030
:101E1C00236813F0080F07D0114A536823F460535A
:101E2C00216943EAC1035360FFF730FF0C4B5B6839
:101E3C00C3F303130B4AD35CD8400B4B18600B4B0A
:101E4C001868FEF79BFE002070BD01207047012032
:101E5C00FAE70120F8E70120F6E700BF0020024076
:101E6C0000100240703800083004002038040020B4
:101E7C00014B1868704700BF3004002008B5FFF70D
:101E8C00F7FF044B5B68C3F30223034AD35CD840CF
:101E9C0008BD00BF001002408038000808B5FFF7ED
:101EAC00E7FF044B5B68C3F3C223034AD35CD840FF
:101EBC0008BD00BF00100240803800082DE9F04733
:101ECC0082B00546884617461E46FEF79BFE0A9BC7
:101EDC001B1A03EB0609FEF795FE82462A4B1B687C
:101EEC00C3F3CB3309FB03F301932B689C6838EAEB
:101EFC0004030CBF01240024BC4240D0B6F1FF3FC8
:101F0C00F3D0FEF77FFEA0EB0A0048450AD2B9F1E8
:101F1C00000F07D0019A02B14A46019B013B019385
:101F2C009146E2E72A68536823F0E00353606B683C
:101F3C00B3F5827F0BD0AB6AB3F5005F14D00123ED
:101F4C0085F85130002385F85030032018E0AB6839
:101F5C00B3F5004F02D0B3F5806FECD12A6813684B
:101F6C0023F040031360E6E72A68136823F4005358
:101F7C0013602A68136843F400531360DFE70020F2
:101F8C0002B0BDE8F08700BF3004002010B582B06D
:101F9C0004460B46009200228021FFF78FFF08B900
:101FAC0002B010BD636D43F0200363650320F7E7B7
:101FBC00002856D010B50446436A33B94368B3F5CC
:101FCC00827F05D00023C36102E0002303614361DB
:101FDC000023A36294F85130002B3CD0022384F8E8
:101FEC0051302268136823F040031360636803F4D4
:101FFC008273A26802F404421343E26802F40062A2
:10200C001343226902F002021343626902F00102D7
:10201C001343A26902F400721343E26902F038021E
:10202C001343226A02F080021343A26A02F40052A4
:10203C00216813430B60638B226803F00403536025
:10204C002268D36923F40063D36100206065012307
:10205C0084F8513010BD84F850302046FEF72AFB2E
:10206C00BCE7012070472DE9F04383B01D4690F882
:10207C005030012B00F0CC80044688469146012359
:10208C0080F85030FEF7BEFD074694F85160F6B26A
:10209C00012E40F0AA80B8F1000F00F0A780B9F132
:1020AC00000F00F0A380032384F8513000236365F4
:1020BC00C4F83080A4F83490A4F83690A363A387B6
:1020CC00E38763642364A368B3F5004F1ED02368D1
:1020DC001A6812F0400F03D11A6842F040021A60DD
:1020EC00E368B3F5006F1CD0636813B1B9F1010F4D
:1020FC0052D1226B236812781A73236B013323633A
:10210C00E38E9BB2013B9BB2E38645E022681368E9
:10211C0023F0400313602268136843F48043136078
:10212C00D5E7636813B1B9F1010F16D1226B23689F
:10213C001288DA60236B02332363E38E9BB2013B7C
:10214C009BB2E38609E0FEF75DFDC01BA84202D3FB
:10215C00B5F1FF3F54D1002D54D0E38E9BB2002B30
:10216C002ED023689A6812F0020FECD0226B1288E2
:10217C00DA60236B02332363E38E9BB2013B9BB289
:10218C00E386EAE7FEF73EFDC01BA84202D3B5F199
:10219C00FF3F39D1002D39D0E38E9BB283B1236838
:1021AC009A6812F0020FEDD0226B12781A73236B1F
:1021BC0001332363E28E92B2013A92B2E286EBE7EC
:1021CC003A4629462046FFF7E1FE08B12023636515
:1021DC00A36833B901932368DA6801929B68019371
:1021EC00019B636D13B9002600E00226012384F8DD
:1021FC005130002384F85030304603B0BDE8F083F2
:10220C000326F3E70326F1E70326EFE70326EDE7C2
:10221C000226F1E770B4036A23F001030362036A38
:10222C004668826922F073020C6844EA020523F0C6
:10223C0002028B6813430D4CA04209D00B4CA042F8
:10224C000DD0466085614A684263036270BC70477A
:10225C0023F00803CA68134323F00403EEE726F4C3
:10226C0040764A6932438E691643EAE7002C0140F6
:10227C0030B4036A23F480730362036A4568C2694D
:10228C0022F073020C68224323F400738C6843EA37
:10229C0004230F4CA04209D00D4CA0420ED0456037
:1022AC00C2614A68C263036230BC704723F40063A6
:1022BC00CC6843EA042323F48063EDE725F440550E
:1022CC004C6945EA04158C6945EA0415E7E700BF3B
:1022DC00002C014030B4036A23F480530362036A78
:1022EC004468C26922F4E6420D6842EA052223F4EE
:1022FC0000538D6843EA0533074DA84206D044606D
:10230C00C2614A680264036230BC704724F48044A2
:10231C004D6944EA8514F2E7002C014030B4036A9D
:10232C00056A25F001050562846924F0F00444EA8D
:10233C00021423F00A030B438461036230BC704720
:10234C0030B4056A25F0100505628469036A24F42B
:10235C00704444EA023423F0A00343EA011384617D
:10236C00036230BC7047836823F070030B4343F067
:10237C00070383607047000090F83D30DBB2012BFF
:10238C0022D1022380F83D300368114A934210D0C9
:10239C00B3F1804F0DD0A2F59432934209D002F5DF
:1023AC008062934205D01A6842F001021A60002044
:1023BC0070479A6802F00702062A07D01A6842F0A2
:1023CC0001021A60002070470120704700207047FE
:1023DC00002C014090F83D30DBB2012B27D10223B9
:1023EC0080F83D300268D36843F00103D360036882
:1023FC00114A934210D0B3F1804F0DD0A2F5943214
:10240C00934209D002F58062934205D01A6842F0DB
:10241C0001021A60002070479A6802F00702062A2F
:10242C0007D01A6842F001021A60002070470120A0
:10243C0070470020704700BF002C01407047704768
:10244C007047704710B5044603681A6912F0020F02
:10245C0011D0DA6812F0020F0DD06FF002021A617F
:10246C000123037703689B6913F0030F70D0FFF708
:10247C00E6FF0023237723681A6912F0040F12D0A9
:10248C00DA6812F0040F0ED06FF004021A61022306
:10249C00237723689B6913F4407F5FD02046FFF7B6
:1024AC00CEFF0023237723681A6912F0080F12D08D
:1024BC00DA6812F0080F0ED06FF008021A610423CC
:1024CC0023772368DB6913F0030F4ED02046FFF708
:1024DC00B6FF0023237723681A6912F0100F12D06D
:1024EC00DA6812F0100F0ED06FF010021A61082388
:1024FC0023772368DB6913F4407F3DD02046FFF738
:10250C009EFF0023237723681A6912F0010F03D072
:10251C00DA6812F0010F36D123681A6912F0800FB5
:10252C0003D0DA6812F0800F34D123681A6912F0E4
:10253C00400F03D0DA6812F0400F32D123681A69C9
:10254C0012F0200F03D0DA6812F0200F30D110BD3A
:10255C00FFF774FF2046FFF773FF8AE72046FFF76B
:10256C006DFF2046FFF76CFF9BE72046FFF766FFE9
:10257C002046FFF765FFACE72046FFF75FFF2046DC
:10258C00FFF75EFFBDE76FF001021A61204600F015
:10259C005FFCC1E76FF080021A61204600F012FA6E
:1025AC00C3E76FF040021A612046FFF74AFFC5E708
:1025BC006FF020021A61204600F003FAC7E7000012
:1025CC0003681B4A90420AD0B0F1804F07D0A2F5A5
:1025DC009432904203D002F58062904203D123F0F2
:1025EC0070034A681343124A90420AD0B0F1804FEC
:1025FC0007D0A2F59432904203D002F5806290424B
:10260C0003D123F44073CA68134323F080034A694F
:10261C00134303608B68C3620B688362044B98425C
:10262C0002D00123436170470B690363F9E700BFD4
:10263C00002C014040B310B5044690F83D30F3B186
:10264C00022384F83D30214651F8040BFFF7B8FF04
:10265C00012384F8463084F83E3084F83F3084F807
:10266C00403084F8413084F8423084F8433084F8A8
:10267C00443084F8453084F83D30002010BD80F89B
:10268C003C30FEF745F9DBE70120704740B310B54D
:10269C00044690F83D30F3B1022384F83D302146D6
:1026AC0051F8040BFFF78CFF012384F8463084F8B3
:1026BC003E3084F83F3084F8403084F8413084F860
:1026CC00423084F8433084F8443084F8453084F840
:1026DC003D30002010BD80F83C30FEF7E3F8DBE71E
:1026EC000120704730B4036A23F010030362036ABD
:1026FC004468826922F4E6420D6842EA052223F01E
:10270C0020038D6843EA05130E4DA84209D00D4DE8
:10271C00A8420ED0446082614A688263036230BC76
:10272C00704723F08003CD6843EA051323F0400380
:10273C00EDE724F440644D6944EA85048D6944EA6C
:10274C008504E7E7002C014038B590F83C30012BAC
:10275C0060D004460D46012380F83C300C2A1AD870
:10276C00DFE802F0071919191D191919311919196E
:10277C0044000068FFF74EFD2268936943F008039C
:10278C0093612268936923F004039361226893692F
:10279C0029690B439361002084F83C0038BD006824
:1027AC00FFF7A0FF2268936943F4006393612268EA
:1027BC00936923F48063936122689369296943EADE
:1027CC0001239361E7E70068FFF752FD2268D369A4
:1027DC0043F00803D3612268D36923F00403D36167
:1027EC002268D36929690B43D361D4E70068FFF7EA
:1027FC0071FD2268D36943F40063D3612268D36905
:10280C0023F48063D3612268D369296943EA0123E5
:10281C00D361C0E70220C1E710B4846824F47F447C
:10282C0042EA03220A432243826010BC704790F8AC
:10283C003C30012B66D010B50446012380F83C30A7
:10284C00022380F83D300268936823F47F4323F021
:10285C00770393600B68602B40D022D8402B47D075
:10286C000BD9502B0ED1CA6849680068FFF756FD8A
:10287C0050212068FFF777FD04E0202B0CD008D9FD
:10288C00302B09D0012384F83D30002084F83C0023
:10289C0010BD0BB1102BF5D119462068FFF763FD65
:1028AC00F0E7702B0ED0B3F5005FEBD1CB684A6824
:1028BC0089680068FFF7B0FF2268936843F480438F
:1028CC009360DFE7CB684A6889680068FFF7A4FF6C
:1028DC002268936843F077039360D3E7CA6849682A
:1028EC000068FFF72DFD60212068FFF73CFDC9E76C
:1028FC00CA6849680068FFF711FD40212068FFF79E
:10290C0032FDBFE70220704790F83C30012B2BD0F2
:10291C0030B4012380F83C30022380F83D3003684A
:10292C005C689D6824F070040A6822435A6003684E
:10293C000E4A93420AD0B3F1804F07D0A2F59432DD
:10294C00934203D002F58062934204D125F08005B6
:10295C004A6815439D60012380F83D30002380F8C0
:10296C003C30184630BC704702207047002C0140A8
:10297C0090F83C30012B22D0012380F83C30CB68FE
:10298C0023F440738A68134323F480634A68134327
:10299C0023F400630A68134323F480530A69134336
:1029AC0023F400534A69134323F48043CA69134345
:1029BC0002685364002380F83C30184670470220AC
:1029CC007047704770470268D36823F49073D360E4
:1029DC000268536923F001035361036B012B05D08B
:1029EC00202380F83E300023036370470268D368CD
:1029FC0023F01003D360F3E790F83D30DBB2212BCA
:102A0C0001D0022070478368B3F5805F17D0036A4A
:102A1C005A1C02621A7803685A60C38C9BB2013B41
:102A2C009BB2C3844BB90268D36823F08003D36094
:102A3C000268D36843F04003D360002070470369F9
:102A4C00002BE4D1036A1B880268C3F308035360AC
:102A5C00036A02330362E0E710B5044602681369A7
:102A6C0023F44053C1680B43136183680269134319
:102A7C0042691A430168CB6823F4B05323F00C036A
:102A8C001343CB600268536923F4407381690B4391
:102A9C0053610268124B9A421FD0FFF7EFF900EB1B
:102AAC00800303EB830362689200B3FBF2F20D48E0
:102ABC00A0FB02314909642303FB11231B013233B0
:102ACC00A0FB03235B0903F0F00202EB011203F0FD
:102ADC000F03216813448B6010BDFFF7DFF9DEE7AD
:102AEC00003801401F85EB5158B310B5044690F8DF
:102AFC003D300BB3242384F83D302268D36823F493
:102B0C000053D3602046FFF7A7FF2268136923F414
:102B1C00904313612268536923F02A03536122689E
:102B2C00D36843F40053D36000202064202384F83E
:102B3C003D3084F83E3010BD80F83C30FDF7B4FFDA
:102B4C00D8E701207047704708B50168CA6822F0C1
:102B5C004002CA60202280F83D20FFF7F4FF0020DD
:102B6C0008BD7047704708B5406A0023C385C3840D
:102B7C00FFF7F8FF08BD704790F83E30DBB2222B10
:102B8C0060D18368B3F5805F46D0826AB3F5805F0D
:102B9C0004D0002B4DD10369002B4AD103685B682C
:102BAC001370836A01338362C38D9BB2013B9BB26A
:102BBC00C385002B48D100B583B00268D36823F0DD
:102BCC002003D3600268D36823F48073D360026857
:102BDC00536923F001035361202380F83E30036BCB
:102BEC00012B2CD1002303630268D36823F010035C
:102BFC00D36003681A6812F0100F06D000220192FD
:102C0C001A6801925B680193019B818DFFF7B3FFFA
:102C1C00002003B05DF804FB0269002AB5D1826A7A
:102C2C0003685B68C3F308031380836A023383620F
:102C3C00BAE703685B6803F07F031370B1E7FFF733
:102C4C0090FFE5E7022070470020704730B583B055
:102C5C00044602681368D068516913F00F0505D15A
:102C6C0013F0200F02D010F0200F19D12DB111F05C
:102C7C00010119D110F4907F16D1216B012975D067
:102C8C0013F0800F03D010F0800F40F0D78013F0BA
:102C9C00400F03D010F0400F40F0D48003B030BD93
:102CAC002046FFF769FFF9E713F0010F06D010F487
:102CBC00807F03D0226C42F00102226413F0040FD7
:102CCC0004D019B1226C42F00202226413F0020FFC
:102CDC0004D019B1226C42F00402226413F0080FE4
:102CEC0007D010F0200F00D119B1226C42F008026D
:102CFC002264226C002AD1D013F0200F02D010F0E5
:102D0C00200F21D123685B6903F04003226C12F081
:102D1C00080F00D123B32046FFF755FE23685A69EC
:102D2C0012F0400F18D05A6922F040025A61A36B7E
:102D3C0073B1464A5A63A06BFEF776FB0028ADD000
:102D4C00A06B436B9847A9E72046FFF715FFD9E71F
:102D5C002046FFF707FFA1E72046FFF703FF9DE79B
:102D6C002046FFF7FFFE0023236497E713F0100FB4
:102D7C0086D010F0100F83D00023019313680193B9
:102D8C0053680193019B536913F0400F32D0A16B30
:102D9C000B685B689BB2002B80D0A08D98427FF6AD
:102DAC007DAFE3858B69202B08D1A18DE38D9BB280
:102DBC00C91A89B22046FFF7DEFE6FE7D36823F409
:102DCC008073D3602268536923F001035361226836
:102DDC00536923F040035361202384F83E300023D1
:102DEC0023632268D36823F01003D360A06BFEF733
:102DFC00F9FADAE7A18DE38D9BB2C91A89B2E38D9A
:102E0C009BB2002B3FF44AAF00293FF447AFD36885
:102E1C0023F49073D3602268536923F00103536148
:102E2C00202384F83E30002323632268D36823F0E8
:102E3C001003D3602046FFF79EFE2FE72046FFF7D6
:102E4C00DBFD2BE72046FFF77FFE27E7732B0008FF
:102E5C000A4B834200D07047094A13680133136050
:102E6C00084A136801331360074A1368013313606F
:102E7C00064A136801331360EDE700BF6C050020B0
:102E8C0044060020480600204C0600205006002076
:102E9C00044B1B685A6AB2FBF0F300FB13200130A1
:102EAC00704700BFB4050020014B1868704700BF85
:102EBC0048060020014B1860704700BF48060020F0
:102ECC00014B1868704700BF44060020014B186086
:102EDC00704700BF44060020014B1868704700BFC4
:102EEC0050060020014B1860704700BF50060020B0
:102EFC0008B5013804280AD8DFE800F0030A1117D6
:102F0C001E0001224FF400510F48FEF792FC08BD41
:102F1C0001224FF480610D48FEF78BFCF7E701228C
:102F2C0020210948FEF785FCF1E701224FF40071DE
:102F3C000548FEF77EFCEAE701224FF400610248E7
:102F4C00FEF777FCE3E700BF000C014000080140EE
:102F5C0008B5013804280AD8DFE800F0030A111775
:102F6C001E0000224FF400510F48FEF762FC08BD12
:102F7C0000224FF480610D48FEF75BFCF7E700225E
:102F8C0020210948FEF755FCF1E700224FF40071AF
:102F9C000548FEF74EFCEAE700224FF400610248B8
:102FAC00FEF747FCE3E700BF000C014000080140BE
:102FBC0010B582B004468DF80710FFF7C9FF0A2040
:102FCC0000F01CF84FF0FF3301220DF1070105480A
:102FDC00FFF749F82046FFF78BFF0A2000F00EF8A8
:102FEC0002B010BD8804002010B50124052C04DCAF
:102FFC00E0B2FFF77DFF0134F8E710BD30B40E4BA3
:10300C001C680E4BA3FB0434A40C0D4B5D6800FB39
:10301C0004F49B68002104E0E81A02441144A14224
:10302C0008D21A46064B9B689A42FBD0F4D9D21AA6
:10303C001144F4E730BC70473004002083DE1B439E
:10304C0010E000E010B504460378012B13D0022BDE
:10305C001DD03BB100F0D6F83E281FD0154B1B7885
:10306C00FBB910BD00F0DAF80020124B1870FFF716
:10307C0039FF0124EEE700F05FF80128EAD10D4A90
:10308C001378013313700020FFF72CFFE2E7094B94
:10309C0000221A7000F004F90124DBE702232370EC
:1030AC00DCE7FFF719FF41F288339842D9D90023A6
:1030BC002370D6E75406002008B5064B1878FFF7A6
:1030CC00E7FEC0B201238340034A10781843107006
:1030DC0008BD00BF410400205606002008B54FF47F
:1030EC0080511348FEF79EFB08B9012008BD4FF430
:1030FC0000711048FEF796FB08B90220F6E7102184
:10310C000B48FEF78FFB08B90320EFE74FF48071F3
:10311C000748FEF787FB08B90420E7E74FF4806106
:10312C000348FEF77FFB08B10020DFE70520DDE751
:10313C00000C01400008014070B5FFF7CFFF0028DC
:10314C0054D02B4B19782B4B1B7823EA01030341EA
:10315C0013F0010F01D1002070BD012303FA00F21E
:10316C001143234B1970244B1878FFF791FEC4B20E
:10317C0028E0224B19782046FFF71AFF012505FAA3
:10318C0004F21C4E337813433370002000F0BAFA6B
:10319C0032780021084600F011FB154B1A780021FB
:1031AC00302000F00BFB22460221002000F006FB31
:1031BC002846D1E74FF400411148FEF740FB0020B0
:1031CC00FFF784FE0A4B1B783E2BD7D0094B1B789C
:1031DC00234113F0010FCCD0074B1878FFF758FEA2
:1031EC00C4B2FFF76DFE6428ECD9E3E70220B3E725
:1031FC005506002056060020410400204304002000
:10320C00000C0140014B1878704700BF5506002098
:10321C00014B1878704700BF5606002038B50124C2
:10322C001A4B1B78A34206DB194B1978E0B2FFF757
:10323C00BFFE0134F4E74FF4FA70FDF7E9FC154CCE
:10324C0000232370144A1370104B1878FFF720FEDC
:10325C00C0B2012505FA00F02378184320700B4BFF
:10326C001B78AB4211DBFFF7D3FF0446FFF7CAFF15
:10327C0024EA00042C4114F0010F01D10135EEE7D2
:10328C00064B1978E8B2FFF793FE38BD41040020D5
:10329C00420400205606002055060020430400205E
:1032AC0010B501241F4B1B78A34206DB1E4BD978AB
:1032BC00E0B2FFF77DFE0134F4E7C820FDF7A8FC6F
:1032CC000120FFF745FE0220FFF742FE0320FFF727
:1032DC003FFE0420FFF73CFE0520FFF739FE0A20D5
:1032EC00FFF78CFE4FF0FF33012210491048FEF718
:1032FC00BAFE0120FFF7FCFD0220FFF7F9FD0320C9
:10330C00FFF7F6FD0420FFF7F3FD0520FFF7F0FDB6
:10331C006420FFF773FEFFF781FF6420FDF778FC54
:10332C0010BD00BF410400203C04002040040020DC
:10333C008804002008B508211448FEF773FA68B910
:10334C000A20FDF765FC08211048FEF76BFA0028EF
:10335C00F9D00A20FDF75CFC012008BD4FF40041B8
:10336C000B48FEF75FFA08B10020F6E70A20FDF7DC
:10337C004FFC4FF400410648FEF754FA0028F8D0F1
:10338C000A20FDF745FC0220E7E700BF000C0140D6
:10339C000008014010B58AB0012208920023069360
:1033AC00079244F22001009101934FF6E0710291D3
:1033BC00039305920493074C69462046FDF7E2FC03
:1033CC002046FDF75EFD02212046FDF728FE0AB0DF
:1033DC0010BD00BF6004002002680E4B9A4200D062
:1033EC00704710B588B00446FFF75EFDC82807D8B3
:1033FC00094B01AA00212046FDF771FD08B010BD54
:10340C004FF400410548FEF71AFA0020FFF752FD71
:10341C00EEE700BF00640040C4060020000C014031
:10342C0010B584B0FFF7B6FF084C094B0293094B5B
:10343C000193094B009344F620631A46032120465E
:10344C0000F01CF8054B236504B010BD5806002095
:10345C000000504117B751390000904100409C4684
:10346C000366C2658165009B0360019B4360029B00
:10347C0083607047016042608360704730B585B0EF
:10348C00064D4566064D85660A9C0294099C01947E
:10349C00089C0094FFF7E4FF05B030BD6D340008C4
:1034AC008134000810B50F4C012280212046FEF714
:1034BC00C0F9012240212046FEF7BBF90220FFF79C
:1034CC009DFD002280212046FEF7B3F90220FFF774
:1034DC0095FD002240212046FEF7ABF90220FFF7B4
:1034EC008DFD10BD000C014010B50B4C012240218C
:1034FC002046FEF79EF9002280212046FEF799F91E
:10350C000220FFF77BFD012280212046FEF791F976
:10351C000220FFF773FD10BD000C014038B5134CB1
:10352C00012280212046FEF784F901224021204609
:10353C00FEF77FF90220FFF761FD002480210B4884
:10354C00FEF770F9054630B10134FA2CF6DDFFF7C1
:10355C00CBFF012507E0002240210448FEF769F962
:10356C000220FFF74BFD284638BD00BF000C014080
:10357C0070B50446002516E0012280211448FEF7A0
:10358C0058F9134E012240213046FEF752F9022021
:10359C00FFF734FD002240213046FEF74AF9640063
:1035AC00E4B20135EDB2072D10D8002240210848B5
:1035BC00FEF73FF90220FFF721FD14F0800FDBD15D
:1035CC00002280210248FEF734F9DAE770BD00BF13
:1035DC00000C014010B50446FFF764FF7820FFF79C
:1035EC00C7FFFFF79BFF0020FFF7C2FFFFF796FF17
:1035FC002046FFF7BDFFFFF791FFFFF775FF10BDEA
:10360C0010B50446FFF74EFF7820FFF7B1FFFFF728
:10361C0085FF4020FFF7ACFFFFF780FF2046FFF748
:10362C00A7FFFFF77BFFFFF75FFF10BD08B5642016
:10363C00FDF7EEFAAE20FFF7CDFF2020FFF7CAFF13
:10364C001020FFF7C7FFB020FFF7C4FFC820FFF71B
:10365C00C1FF0020FFF7BEFF1020FFF7BBFF40208B
:10366C00FFF7B8FF8120FFF7B5FFFF20FFF7B2FF90
:10367C00A120FFF7AFFFA620FFF7ACFFA820FFF7B4
:10368C00A9FF3F20FFF7A6FFA420FFF7A3FFD3203D
:10369C00FFF7A0FF0020FFF79DFFD520FFF79AFF53
:1036AC00F020FFF797FFD920FFF794FF2220FFF7B8
:1036BC0091FFDA20FFF78EFF1220FFF78BFFDB2044
:1036CC00FFF788FF2020FFF785FF8D20FFF782FF93
:1036DC001420FFF77FFFAF20FFF77CFF08BD10B56C
:1036EC000446A1F15000C0B2FFF774FF200940F06E
:1036FC001000FFF76FFF04F00E0040F00100FFF721
:10370C0069FF10BD70B50546002601E00136F6B222
:10371C00072E14D8A6F15000C0B2FFF75BFF0020B3
:10372C00FFF758FF1020FFF755FF002414F0800F0F
:10373C00ECD12846FFF764FF0134E4B2F6E770BD24
:10374C002DE9F843064688469146002720E004EB15
:10375C000513194AD05CFFF753FF0134E4B2072C70
:10376C00F5D908F10101C9B23046FFF7B8FF0024C2
:10377C0008E004EB051308330F4AD05CFFF740FF59
:10378C000134E4B2072CF4D90836F6B20137FFB293
:10379C0019F8075075B1203DEDB2782E04D908F117
:1037AC0001085FFA88F8002641463046FFF797FF7C
:1037BC000024D4E7BDE8F8839C380008F0B587B046
:1037CC0000240A2A10D91A4BA3FB0253DB081D460E
:1037DC0003EB8303A2EB4303303306AA224402F823
:1037EC00143C2A460134ECE7303206AB234403F890
:1037FC00142C00230CE0E21A06AD2A4412F8146CC7
:10380C001D4415F8147C02F8147C05F8146C013373
:10381C0004EBD472B3EB620FEDDD013406AB1C4448
:10382C00002304F8143C01AAFFF78AFF07B0F0BD8F
:10383C00CDCCCCCC024B13B10248FCF7A5BC7047E5
:10384C0000000000A1010008F8B500BFF8BC08BCDE
:10385C009E467047F8B500BFF8BC08BC9E46704742
:10386C00080000200000000000000000010203041A
:10387C000607080900000000010203040203040506
:10388C00060708090A0B0C0D0E0F101000000000A3
:10389C00000000000000000000000000000000001C
:1038AC00000000F8000000000000003330000000B1
:1038BC0000100C06100C06000000000000000000B8
:1038CC0040C07840C0784000043F04043F0404002A
:1038DC00007088FC08300000001820FF211E00003A
:1038EC00F008F000E018000000211C031E211E004F
:1038FC0000F00888700000001E21232419272110D5
:10390C0010160E0000000000000000000000000077
:10391C00000000E01804020000000007182040001E
:10392C0000020418E000000000402018070000000E
:10393C00404080F0804040000202010F0102020072
:10394C00000000F0000000000101011F0101010056
:10395C00000000000000000080B0700000000000BB
:10396C000000000000000000000101010101010144
:10397C0000000000000000000030300000000000DB
:10398C0000000000806018040060180601000000B0
:10399C0000E010080810E000000F102020100F00AD
:1039AC00001010F8000000000020203F2020000034
:1039BC00007008080888700000302824222130008C
:1039CC0000300888884830000018202020110E0094
:1039DC000000C02010F8000000070424243F24003D
:1039EC0000F80888880808000019212020110E0012
:1039FC0000E0108888180000000F112020110E0024
:103A0C0000380808C83808000000003F000000001B
:103A1C000070880808887000001C222121221C00DC
:103A2C0000E010080810E0000000312222110F0005
:103A3C00000000C0C000000000000030300000009A
:103A4C00000000800000000000008060000000000A
:103A5C000000804020100800000102040810200023
:103A6C00404040404040400004040404040404006E
:103A7C000008102040800000002010080402010003
:103A8C00007048080808F000000000303601000003
:103A9C00C030C828E810E0000718272423140B00B6
:103AAC000000C038E0000000203C23020227382030
:103ABC0008F8888888700000203F202020110E0014
:103ACC00C03008080808380007182020201008000B
:103ADC0008F808080810E000203F202020100F00F4
:103AEC0008F88888E8081000203F202023201800C0
:103AFC0008F88888E8081000203F20000300000028
:103B0C00C03008080838000007182020221E0200C8
:103B1C0008F808000008F808203F210101213F2087
:103B2C00000808F8080800000020203F20200000B2
:103B3C0000000808F8080800C08080807F000000A2
:103B4C0008F888C028180800203F200126382000DB
:103B5C0008F8080000000000203F20202020300042
:103B6C0008F8F800F8F80800203F003F003F20005C
:103B7C0008F830C00008F808203F200007183F0064
:103B8C00E01008080810E0000F10202020100F0093
:103B9C0008F808080808F000203F21010101000086
:103BAC00E01008080810E0000F18242438504F00CB
:103BBC0008F8888888887000203F2000030C30208B
:103BCC0000708808080838000038202121221C00C9
:103BDC00180808F8080818000000203F2000000012
:103BEC0008F808000008F808001F202020201F00FB
:103BFC000878880000C83808000007380E0100005B
:103C0C00F80800F80008F800033C0700073C030024
:103C1C00081868808068180820302C03032C30208A
:103C2C000838C800C83808000000203F20000000F9
:103C3C0010080808C8380800203826212020180051
:103C4C00000000FE020202000000007F4040400025
:103C5C00000C30C000000000000000010638C0005D
:103C6C0000020202FE000000004040407F00000005
:103C7C00000004020202040000000000000000002A
:103C8C000000000000000000808080808080808028
:103C9C000002020400000000000000000000000010
:103CAC0000008080808000000019242222223F2006
:103CBC0008F8008080000000003F112020110E0049
:103CCC000000008080800000000E112020201100D8
:103CDC00000000808088F800000E112020103F208A
:103CEC000000808080800000001F2222222213000E
:103CFC00008080F0888888180020203F2020000059
:103D0C000000808080808000006B9494949360000D
:103D1C0008F8008080800000203F210000203F2018
:103D2C0000809898000000000020203F2020000018
:103D3C00000000809898000000C08080807F000008
:103D4C0008F8000080808000203F24022D302000E5
:103D5C00000808F8000000000020203F2020000090
:103D6C008080808080808000203F20003F20003FAA
:103D7C008080008080800000203F210000203F20B8
:103D8C000000808080800000001F202020201F0069
:103D9C00808000808000000080FFA12020110E0098
:103DAC000000008080808000000E112020A0FF8089
:103DBC00808080008080800020203F212000010036
:103DCC00000080808080800000332424242419008B
:103DDC00008080E0808000000000001F2020000098
:103DEC008080000000808000001F202020103F20D9
:103DFC00808080000080808000010E300806010069
:103E0C0080800080008080800F300C030C300F000D
:103E1C0000808000808080000020312E0E31200038
:103E2C00808080000080808080818E701806010068
:103E3C0000808080808080000021302C2221300086
:103E4C0000000000807C020200000000003F4040A7
:103E5C0000000000FF00000000000000FF00000058
:103E6C000002027C800000000040403F0000000087
:103E7C000006010102020404000000000000000022
:083E8C0041380008750100082F
:043E94004D010008D4
:103E9800080000200000000000000000F4020020DC
:103EA8005C030020C40300200000000000000000A4
:103EB80000000000000000000000000000000000FA
:103EC80000000000000000000000000000000000EA
:103ED80000000000000000000000000000000000DA
:103EE80000000000000000000000000000000000CA
:103EF80000000000000000000000000000000000BA
:103F080000000000000000000000000000000000A9
:103F18000000000000000000000000000000000099
:103F28000000000000000000000000000000000089
:103F38000000000000000000000000000000000079
:103F480001000000000000000E33CDAB34126DE616
:103F5800ECDE05000B00000000000000000000007F
:103F68000000000000000000000000000000000049
:103F78000000000000000000000000000000000039
:103F88000000000000000000000000000000000029
:103F98000000000000000000000000000000000019
:1042C8000024F400010000001000000083818F85A5
:0442D8008005858F49
:0400000508000B3DA7
:00000001FF
