:020000040800F2
:10000000005000201509000851050008530500089C
:1000100055050008570500085905000800000000B4
:100020000000000000000000000000005B05000868
:100030005D050008000000005F050008610500087C
:100040005D0900085D0900085D0900085D090008F8
:100050005D0900085D0900085D0900085D090008E8
:100060005D0900085D0900085D0900085D090008D8
:10007000690500085D0900085D0900085D090008C0
:100080005D0900085D0900085D0900085D090008B8
:10009000790500085D0900085D0900085D09000890
:1000A0005D0900085D0900085D0900085D09000898
:1000B0005D090008890500085D0900085D09000860
:1000C0005D0900085D0900085D0900085D09000878
:1000D0005D0900085D090008990500085D09000830
:1000E0005D0900085D0900085D09000800000000C6
:1000F0000000000000000000000000000000000000
:0C01000000000000000000005FF808F1A3
:10010C0010B5054C237833B9044B13B10448AFF345
:10011C0000800123237010BD3C040020000000006F
:10012C006434000808B5034B1BB103490348AFF313
:10013C00008008BD0000000040040020643400086A
:10014C0008B50C480C4B0360092343600023836003
:10015C00C3604FF480320261436103764376837649
:10016C00C3760377437700F053FC00B908BD00F069
:10017C00D9F8FBE7580400200064004010B586B0A5
:10018C000023029303930493059302681A4B9A423B
:10019C0001D006B010BD03F5D633DA6942F0007217
:1001AC00DA61DA6902F000720092009A9A6942F000
:1001BC0004029A619B6903F004030193019B4FF4C1
:1001CC00006302930D4C02A9204601F01BF94FF479
:1001DC0080530293022303930323059302A9204621
:1001EC0001F010F900221146142000F06BFF1420CE
:1001FC0000F0A0FFCDE700BF006400400008014004
:10020C0000B583B00A4B5A6942F001025A615B692E
:10021C0003F001030193019B002211460C2000F016
:10022C0051FF0C2000F086FF03B05DF804FB00BF0B
:10023C00001002402DE9F04188B00024049405948C
:10024C0006940794344B9A6942F020029A619A6999
:10025C0002F020020192019A9A6942F004029A611A
:10026C009A6902F004020292029A9A6942F0080218
:10027C009A619B6903F008030393039B274D224665
:10028C004EF6E021284601F0D6F9254E22464FF4D1
:10029C008061304601F0CFF941F21053049305947C
:1002AC000127069704A9284601F0ACF84EF6E02386
:1002BC000493059706944FF00208CDF81C8004A90E
:1002CC00284601F09FF84FF40073049305940697A9
:1002DC0004A9304601F096F84FF480630493059717
:1002EC000694CDF81C8004A9304601F08BF84FF42D
:1002FC00004304930594069404A9304601F082F857
:10030C00082304930594069404A9284601F07AF86E
:10031C0008B0BDE8F08100BF00100240000C0140A5
:10032C000008014072B6FEE700B591B0282200210A
:10033C0006A802F0CFFF00230193029303930493CA
:10034C000593012206924FF4803307930A920222FE
:10035C000D920E934FF480130F9306A801F090F9B1
:10036C0080B90F23019302210291002303934FF4D0
:10037C0080620492059301A801F0C8FB20B911B06A
:10038C005DF804FBFFF7CEFFFFF7CCFF10B500F0D4
:10039C0007FBFFF7C9FFFFF74DFFFFF731FFFFF733
:1003AC00CFFE00F051F800F0F7F900F04FFA00F032
:1003BC00F7F800F02DF9214801F018FF204801F062
:1003CC00E7FE02F059FD02F0DDFD02F0E7FE002031
:1003DC0002F03DFF02F01EFD012404E08521E0B295
:1003EC0002F0FCFC0134174B1B78A342F6DA4FF4F5
:1003FC007A7000F0F9FA8F21052002F0D3FC0A2064
:10040C0000F0F2FA10E08521E0B202F0E7FC0134D2
:10041C000C4B1B78A342F6DA4FF4FA7000F0E4FAB6
:10042C008F21052002F0DAFC02F038FD044664202E
:10043C0000F0DAFA052CF7D10124E9E76405002075
:10044C00AC0500200C00002008B50E480E4B0360D4
:10045C004FF48273436000238360C3600361436184
:10046C004FF4007282613822C261802202624362C0
:10047C0083620A23C36201F0A1FC00B908BDFFF737
:10048C0051FFFBE7800400200030014010B586B01E
:10049C00002302930393049305930268164B9A422C
:1004AC0001D006B010BD03F560439A6942F4805246
:1004BC009A619A6902F480520092009A9A6942F009
:1004CC0004029A619B6903F004030193019BA0232E
:1004DC0002930223039303230593084C02A920469D
:1004EC0000F090FF4023029300230393049302A98E
:1004FC00204600F087FFD4E700300140000801409F
:10050C0082B00E4B9A6942F001029A619A6902F02C
:10051C0001020092009ADA6942F08052DA61DB69DA
:10052C0003F080530193019B054A536823F0E06369
:10053C0043F00073536002B0704700BF00100240DC
:10054C0000000140FEE7FEE7FEE7FEE7FEE770472E
:10055C007047704708B500F035FA08BD08B5024879
:10056C0000F0AEFE08BD00BFD804002008B502485C
:10057C0000F071FC08BD00BF5804002008B502480B
:10058C0001F06CFE08BD00BF6405002008B50248F0
:10059C0002F06EFA08BD00BFF405002070470000A1
:1005AC0000B587B000230293039304930593009343
:1005BC0001931548154A026047224260836040F25D
:1005CC00E732C2600361836101F040FF90B94FF4E0
:1005DC008053029302A90C4802F036F868B9002344
:1005EC00009301936946084802F09CF840B907B0A3
:1005FC005DF804FBFFF796FEE9E7FFF793FEEEE7E5
:10060C00FFF790FEF3E700BF6405002000040040F4
:10061C0000B587B0002302930393049305930093D2
:10062C0001931448144A02602B22426083602D22ED
:10063C00C2600361836101F009FF90B94FF48053EC
:10064C00029302A90B4801F0FFFF68B90023009345
:10065C0001936946074802F065F840B907B05DF8A8
:10066C0004FBFFF75FFEE9E7FFF75CFEEEE7FFF741
:10067C0059FEF3E7AC050020000800400268174B58
:10068C009A4200D0704710B582B0044603F564431B
:10069C009A6942F400629A619B6903F400630193C6
:1006AC00019B0F480F4B03601023436000238360B2
:1006BC008022C2604FF4807202614FF4806242610A
:1006CC0020228261C36100F057FD20B9044B6362A4
:1006DC005C6202B010BDFFF725FEF7E7002C01406D
:1006EC00D80400201C00024000B583B00368134AF4
:1006FC00934205D0124A934215D003B05DF804FB27
:10070C00104BDA6942F00202DA61DB6903F0020392
:10071C000093009B002211461D2000F0D3FC1D20ED
:10072C0000F008FDE9E7074BDA6942F00402DA61F0
:10073C00DB6903F004030193019BDEE70004004036
:10074C00000800400010024000B587B0002302935F
:10075C0003930493059302680D4B9A4202D007B0A1
:10076C005DF804FB03F564439A6942F004029A6154
:10077C009B6903F004030193019B4FF48073029374
:10078C0002230393059302A9024800F03BFEE6E71F
:10079C00002C01400008014010B592B000241094C8
:1007AC00119409940A940B940C940D940E940F9438
:1007BC002022214601A802F08DFD2248224B036025
:1007CC00446084604F23C36004614461846101F020
:1007DC0069FE002829D100231093119310A9194800
:1007EC0001F0A0FF20BB6023099300220A920B9218
:1007FC000C920D920E920F9209A9124801F0B0FEC4
:10080C00C8B90023019302930393049305934FF407
:10081C0000520692089301A90A4801F0B9FF68B981
:10082C000848FFF791FF12B010BDFFF77BFDD2E730
:10083C00FFF778FDD7E7FFF775FDE2E7FFF772FDED
:10084C00EEE700BF1C050020002C014008B50A484B
:10085C000A4B03604FF4E133436000238360C360B1
:10086C0003610C2242618361C36102F04FF800B94D
:10087C0008BDFFF757FDFBE7F405002000440040DE
:10088C0030B587B000230293039304930593026859
:10089C001B4B9A4201D007B030BD03F5E633DA6941
:1008AC0042F40032DA61DA6902F400320092009A02
:1008BC009A6942F004029A619B6903F00403019364
:1008CC00019B0423029302230393032305930D4DF1
:1008DC0002A9284600F096FD0823029300240394F5
:1008EC0004940DEB0301284600F08CFD22462146B2
:1008FC00262000F0E7FB262000F01CFCCBE700BF15
:10090C0000440040000801400C480D490D4A0023EA
:10091C0002E0D458C4500433C4188C42F9D30A4AA8
:10092C000A4C002301E013600432A242FBD3FFF710
:10093C0035FE02F0ABFCFFF729FD704700000020EC
:10094C003C040020B83400083C040020CC060020F5
:10095C00FEE7000010B504460E4B18784FF47A737E
:10096C00B3FBF0F30C4A1068B0FBF3F000F0F0FBB3
:10097C0068B90F2C01D901200AE0002221464FF062
:10098C00FF3000F09FFB054B1C60002000E00120B5
:10099C0010BD00BF04000020000000200800002053
:1009AC0008B5074A136843F010031360032000F0E6
:1009BC0077FB0F20FFF7CEFFFFF7A2FD002008BD4D
:1009CC0000200240034A1168034B1B780B44136050
:1009DC00704700BF3806002004000020014B186847
:1009EC00704700BF3806002038B50446FFF7F6FF05
:1009FC000546B4F1FF3F02D0044B1B781C44FFF7B3
:100A0C00EDFF401BA042FAD338BD00BF040000200C
:100A1C00002800F0A18038B5044690F82030D3B1FE
:100A2C002268136843F001031360FFF7D7FF0546F4
:100A3C0023685A6812F0010F10D1FFF7CFFF401B4B
:100A4C000A28F5D9636A43F400336362052384F8FA
:100A5C002030012038BDFFF791FBE1E71A6822F046
:100A6C0002021A60FFF7BAFF054623685A6812F0B3
:100A7C00020F0DD0FFF7B2FF401B0A28F5D9636AAD
:100A8C0043F400336362052384F820300120E1E74E
:100A9C00227E012A3DD01A6822F080021A60637E01
:100AAC00012B3BD02268136823F040031360A37E14
:100ABC00012B39D02268136823F020031360E37EE6
:100ACC00012B37D02268136843F010031360237F87
:100ADC00012B35D02268136823F008031360637F61
:100AEC00012B33D02268136823F004031360A3682E
:100AFC00E268134322691343626913436268013A43
:100B0C0021681343CB6100206062012384F82030FC
:100B1C00A0E71A6842F080021A60C0E722681368E6
:100B2C0043F040031360C2E72268136843F02003CC
:100B3C001360C4E72268136823F010031360C6E740
:100B4C002268136843F008031360C8E7226813682F
:100B5C0043F004031360CAE701207047026890F861
:100B6C002030013BDBB2012B05D9436A43F48023CF
:100B7C0043620120704710B5D2F8003243F00103F4
:100B8C00C2F800324B6903F01F03012000FA03F393
:100B9C00D2F81C026FEA030C20EA0300C2F81C0214
:100BAC00C869C0B9D2F80C020CEA0000C2F80C02F9
:100BBC008C884869D1F80CE044EA0E44483042F87D
:100BCC0030400C884869D1F808E044EA0E444830BB
:100BDC0002EBC0004460C86901281AD0886988BB40
:100BEC00D2F804020CEA0000C2F80402086978BBCF
:100BFC00D2F814020CEA0000C2F81402096A0129A6
:100C0C002CD0D2F8003223F00103C2F800320020BD
:100C1C0010BDD2F80C021843C2F80C028C8848693B
:100C2C00D1F800E044EA0E44483042F830408C8958
:100C3C004869D1F808E044EA0E44483002EBC000A1
:100C4C004460CBE7D2F804021843C2F80402CDE7A3
:100C5C00D2F814021843C2F81402CFE7D2F81C12CF
:100C6C000B43C2F81C32CCE770B5044690F8205008
:100C7C00EDB2012D06D0436A43F4002343620125F3
:100C8C00284670BD022380F820300268136823F0D8
:100C9C0001031360FFF7A2FE064623685B6813F09E
:100CAC00010F0CD0FFF79AFE831B0A2BF5D9636A50
:100CBC0043F400336362052384F82030E0E7002519
:100CCC006562DDE790F820C00CF1FF3C5FFA8CFC0C
:100CDC00BCF1010F00F29B8010B451B90468E468B8
:100CEC0014F0030F10D1436A43F400134362012044
:100CFC007BE00468246914F0030F05D1436A43F4C4
:100D0C0000134362012070E001F11B042401D0F8B0
:100D1C0000C05CF8044004F004049460002C66D11C
:100D2C0001F11B042401D0F800C05CF80440640DF0
:100D3C001460046801F11B0C4FEA0C1C54F80C40B5
:100D4C0004F00204D46004686444646804F00F0482
:100D5C001461046864446468C4F3072494610468EF
:100D6C0064446468240C5461026802EB0112D2F8EA
:100D7C00B8211A70026802EB0112D2F8B821C2F342
:100D8C0007225A70026802EB0112D2F8B821C2F3A2
:100D9C0007429A70026802EB0112D2F8B821120EC7
:100DAC00DA70026802EB0112D2F8BC211A710268E7
:100DBC0002EB0112D2F8BC21C2F307225A7102686D
:100DCC0002EB0112D2F8BC21C2F307429A710268FD
:100DDC0002EB0112D2F8BC21120EDA7189B9026849
:100DEC00D36843F02003D360002010BC704701F19E
:100DFC001B042401D0F800C05CF80440E4085460E3
:100E0C0097E70268136943F020031361ECE7436A28
:100E1C0043F4802343620120704790F82030013B5B
:100E2C00DBB2012B05D9436A43F4802343620120D2
:100E3C00704702685369194351610020704770472D
:100E4C0070477047704770477047704770477047DE
:100E5C007047704770472DE9F84F054603685C6989
:100E6C00D3F804809F68D3F80CB0D3F810A0D3F853
:100E7C00189014F001063BD017F0010616D0012291
:100E8C009A6017F0020F08D117F0040F0CD117F06D
:100E9C00080606D04FF4805608E0FFF7D0FF002676
:100EAC0004E0FFF7CFFF01E04FF4006617F4807FFA
:100EBC000DD02B684FF480729A6017F4007F40F0CD
:100ECC00868017F4806F00F0868046F4005617F485
:100EDC00803F0DD02B684FF480329A6017F4003F9E
:100EEC0040F0838017F4802F00F0838046F4004696
:100EFC0014F0080F07D01BF0100F04D046F4007646
:100F0C002B681022DA6014F0040F02D01BF0080FCB
:100F1C0079D114F0020F04D02B68DB6813F0030FA7
:100F2C0078D114F0400F07D01AF0100F04D046F40B
:100F3C0080662B6810221A6114F0200F02D01AF070
:100F4C00080F6BD114F0100F04D02B681B6913F031
:100F5C00030F6AD114F4003F02D018F0100F68D1BF
:100F6C0014F4803F02D018F0080F69D114F4004F2C
:100F7C007AD018F0040F74D014F4807F04D019F0D8
:100F8C00010F01D046F0010614F4007F04D019F0D3
:100F9C00020F01D046F0020614F4806F04D019F051
:100FAC00040F01D046F0040614F4006F59D019F068
:100FBC00700956D0B9F1400F65D058D8B9F1200F4F
:100FCC005ED0B9F1300F42D146F0200644E02846FD
:100FDC00FFF736FF7BE717F4006F02D046F480462C
:100FEC0075E72846FFF72FFF71E72846FFF729FF23
:100FFC007EE717F4002F02D046F4803678E72846B7
:10100C00FFF722FF74E72B680822DA602846FFF707
:10101C001CFF7EE7284601F091FF82E72B6808222F
:10102C001A612846FFF713FF8CE72846FFF70EFFDF
:10103C0090E72B6810225A602846FFF709FF8FE7CC
:10104C002B6808225A602846FFF703FF8EE7B9F198
:10105C00100F01D146F008062A68936923F070033B
:10106C0093612B6804225A609EB9BDE8F88FB9F1E0
:10107C00500F0BD0B9F1600FEED146F48076EBE750
:10108C0046F01006E8E746F04006E5E746F0800635
:10109C00E2E76B6A1E436E622846FFF7DBFEE4E76D
:1010AC00074AD36823F4E0631B041B0C000200F412
:1010BC00E060034343F0BF6343F40033D3607047F5
:1010CC0000ED00E000B5194BDB68C3F30223C3F15C
:1010DC00070CBCF1040F28BF4FF0040C03F1040EF5
:1010EC00BEF1060F18D9033B4FF0FF3E0EFA0CFC75
:1010FC0021EA0C0199400EFA03F322EA0303194387
:10110C0000280BDB0901C9B200F1604000F5614019
:10111C0080F800135DF804FB0023E5E700F00F00F6
:10112C000901C9B2024B1954F4E700BF00ED00E00D
:10113C0014ED00E0002807DB00F01F02400901233A
:10114C009340024A42F82030704700BF00E100E0B3
:10115C000138B0F1807F0BD24FF0E0235861054A83
:10116C00F02182F823100020986107221A61704741
:10117C000120704700ED00E060B310B40246016836
:10118C00154B0B441548A0FB03031B099B00136470
:10119C00134BD363022382F82130086820F47F506C
:1011AC0020F03000536894682343D46823431469B7
:1011BC0023435469234394692343D469234303434E
:1011CC000B6000209063012382F8213082F820000C
:1011DC0010BC704701207047F8FFFDBFCDCCCCCCC4
:1011EC000000024090F82130022B06D004238363C8
:1011FC00002380F82030012070470268136823F028
:10120C000E0313600268136823F001031360036C70
:10121C00C16B012202FA03F34B6080F821200023FA
:10122C0080F820301846704708B590F82130022B12
:10123C0003D004238363012008BD0268136823F0E4
:10124C000E0313600268136823F001031360036834
:10125C00194A934214D0143293421FD01432934241
:10126C001ED0143293421ED0143293421ED014322C
:10127C00934202D04FF0807203E04FF4801200E0F2
:10128C0001220E4B5A60012380F82130002380F894
:10129C002030436B6BB198470020CDE71022F0E76C
:1012AC004FF48072EDE74FF48052EAE74FF480324E
:1012BC00E7E70020C0E700BF080002400000024042
:1012CC0038B5C36B1A6804682568016C04238B401D
:1012DC00134235D015F0040F32D0236813F0200FD1
:1012EC0003D1236823F0040323600368434A934229
:1012FC0014D01432934218D01432934217D01432B3
:10130C00934217D01432934217D01432934202D026
:10131C004FF0806203E04FF4800200E00422384B6F
:10132C005A60C36A03B1984738BD4022F7E74FF4BF
:10133C008062F4E74FF48042F1E74FF48022EEE74D
:10134C0002238B4013423CD015F0020F39D0236896
:10135C0013F0200F06D1236823F00A032360012326
:10136C0080F821300368254A934214D014329342FA
:10137C001CD0143293421BD0143293421BD0143223
:10138C0093421BD01432934202D04FF0007203E010
:10139C004FF4001200E00222194B5A60002380F82F
:1013AC002030836A002BBFD09847BDE72022F3E79B
:1013BC004FF40072F0E74FF40052EDE74FF40032B7
:1013CC00EAE7082303FA01F11142ADD015F0080F3A
:1013DC00AAD0236823F00E032360026CC16B012397
:1013EC0003FA02F24A60836380F82130002380F80C
:1013FC002030036B002B97D0984795E708000240EC
:10140C000000024070B582B00024A446A6E0804DD6
:10141C00AA4210D007D97F4DAA420CD005F58035D1
:10142C00AA4208D013E0A5F58015AA4203D005F511
:10143C007025AA4207D18A68002A58D0012A51D0B7
:10144C004361082403E0A5F58015AA42F3D0BEF150
:10145C00FF0F4ED80646BEF1FF0F4CD84FEA8C0258
:10146C0033680F25954023EA050304FA02F213436F
:10147C0033604B6813F0805F6ED0674B9A6942F013
:10148C0001029A619B6903F001030193019B4FEAEE
:10149C009C02951C614B53F825600CF003039D00D6
:1014AC000F23AB4026EA03065D4B984229D003F587
:1014BC008063984200F08E8003F58063984200F0C0
:1014CC008B8003F58063984219D004231AE0CC6812
:1014DC00BDE7CC680434BAE7CC680834B7E7CC680D
:1014EC000C34B4E703610824B1E70024AFE704240B
:1014FC00ADE7061DAFE7ACF108029200B0E703239D
:10150C0000E00023AB4033430232444D45F8223017
:10151C004B6813F4803F61D0424A136843EA0E03D0
:10152C0013604B6813F4003F5ED03E4A536843EAA5
:10153C000E0353604B6813F4801F5BD0394A9368D9
:10154C0043EA0E0393604B6813F4001F58D0354ADE
:10155C00D36843EA0E03D3600CF1010C0A6832FA2B
:10156C000CF353D0012303FA0CF302EA030E33EA13
:10157C000202F1D14A68122A3FF649AF122A3FF60D
:10158C0066AF01A555F822F043140008DB140008DF
:10159C00E5140008F71400085B1400085B1400083D
:1015AC005B1400085B1400085B1400085B14000853
:1015BC005B1400085B1400085B1400085B14000843
:1015CC005B1400085B1400085B140008DF140008AF
:1015DC00EB140008012395E7022393E7114A1368E3
:1015EC0023EA0E0313609CE70E4A536823EA0E03AA
:1015FC0053609FE70B4A936823EA0E039360A2E7BC
:10160C00084AD36823EA0E03D360A5E702B070BD85
:10161C0000002210000031100010024000000140B8
:10162C0000080140000401408368194201D00120E8
:10163C007047002070470AB10161704709040161CD
:10164C007047C36801EA030221EA030141EA02413F
:10165C000161704782B0084B1B68084AA2FB032348
:10166C005B0A00FB03F3019300BF019B5A1E01921E
:10167C00002BF9D102B0704700000020D34D62104E
:10168C00002800F0F18170B582B00446036813F0B5
:10169C00010F2CD0994B5B6803F00C03042B1DD06D
:1016AC00964B5B6803F00C03082B12D06368B3F500
:1016BC00803F41D0002B55D103F1804303F5043317
:1016CC001A6822F480321A601A6822F480221A6096
:1016DC0037E08A4B5B6813F4803FE7D0874B1B687D
:1016EC0013F4003F03D06368002B00F0BF81236824
:1016FC0013F0020F75D0814B5B6813F00C0F5FD0A9
:10170C007E4B5B6803F00C03082B54D02369002B31
:10171C0000F08A807A4B01221A60FFF75FF90546C8
:10172C00764B1B6813F0020F75D1FFF757F9401B6E
:10173C000228F5D903209EE1704A136843F48033E4
:10174C001360636843B3FFF749F905466B4B1B689D
:10175C0013F4003FCBD1FFF741F9401B6428F5D9B6
:10176C00032088E1B3F5A02F09D0644B1A6822F44A
:10177C0080321A601A6822F480221A60E1E703F1C1
:10178C008043A3F53C331A6842F480221A601A682D
:10179C0042F480321A60D4E7FFF720F90546574B24
:1017AC001B6813F4003FA2D0FFF718F9401B642804
:1017BC00F5D903205FE1514B5B6813F4803FA5D151
:1017CC004E4B1B6813F0020F03D02369012B40F022
:1017DC004F814A4A136823F0F803616943EAC10355
:1017EC001360236813F0080F33D0A369002B5CD06F
:1017FC00434B0122C3F88024FFF7F0F805463F4B1A
:10180C005B6A13F0020F21D1FFF7E8F8401B0228A6
:10181C00F5D903202FE1394A136823F0F8036169E5
:10182C0043EAC1031360DCE7354B00221A60FFF773
:10183C00D5F80546314B1B6813F0020FD1D0FFF7DA
:10184C00CDF8401B0228F5D9032014E10120FFF745
:10185C0001FF236813F0040F00F09680274BDB691F
:10186C0013F0805F34D1254BDA6942F08052DA6193
:10187C00DB6903F080530193019B0125214B1B680D
:10188C0013F4807F26D0E368012B3DD0002B53D17D
:10189C0003F1804303F504331A6A22F001021A6241
:1018AC001A6A22F004021A6233E0154B0022C3F8C4
:1018BC008024FFF793F80546104B5B6A13F0020F78
:1018CC00C7D0FFF78BF8401B0228F5D90320D2E0D4
:1018DC000025D3E70B4A136843F480731360FFF7BA
:1018EC007DF80646074B1B6813F4807FCBD1FFF7BE
:1018FC0075F8801B6428F5D90320BCE00010024069
:10190C0000004242007000405F4A136A43F001033A
:10191C001362E36833B3FFF761F806465A4B1B6A50
:10192C0013F0020F2FD1FFF759F8801B41F28833C7
:10193C009842F3D903209EE0052B09D0524B1A6A2A
:10194C0022F001021A621A6A22F004021A62E0E71B
:10195C004D4B1A6A42F004021A621A6A42F00102F2
:10196C001A62D6E7FFF73AF80646474B1B6A13F0A4
:10197C00020F08D0FFF732F8801B41F288339842EF
:10198C00F3D9032077E0E5B9E369002B72D03E4A26
:10199C00526802F00C02082A56D0022B17D03B4B8F
:1019AC0000221A66FFF71AF80446374B1B6813F02F
:1019BC00007F47D0FFF712F8001B0228F5D903204F
:1019CC0059E0314AD36923F08053D361DCE72F4BC4
:1019DC0000221A66FFF702F805462B4B1B6813F022
:1019EC00007F06D0FEF7FAFF401B0228F5D9032032
:1019FC0041E0236AB3F5803F1AD023494B6823F4A6
:101A0C007413226A606A024313434B601F4B01221A
:101A1C001A66FEF7E3FF04461B4B1B6813F0007FAE
:101A2C000ED1FEF7DBFF001B0228F5D9032022E0C4
:101A3C00154A536823F40033A1680B435360DCE769
:101A4C00002018E0002016E0012B16D00E4B5B682E
:101A5C0003F48031226A914211D103F47013626A4B
:101A6C0093420ED1002006E001207047012002E0D5
:101A7C00012000E0002002B070BD0120FBE7012036
:101A8C00F9E70120F7E700BF0010024000004242D6
:101A9C0086B0194B0FCB0DF1180C0CE90F0040F26E
:101AAC000123ADF80430154B5A6802F00C03042BDB
:101ABC001CD0082B1CD1C2F3834318336B4413F88E
:101ACC00100C12F4803F0DD00C4B5B68C3F34043F9
:101ADC0018336B4413F8143C094A02FB00F0B0FBBA
:101AEC00F3F006E0074B03FB00F002E0044800E0D3
:101AFC00054806B0704700BF94340008001002403F
:101B0C00001BB70000093D0000127A00002800F00D
:101B1C00A08070B50D460446524B1B6803F00703BA
:101B2C008B420BD24F4A136823F007030B4313600D
:101B3C00136803F007038B4240F08D80236813F089
:101B4C00020F17D013F0040F04D0474A536843F424
:101B5C00E0635360236813F0080F04D0424A5368C3
:101B6C0043F460535360404A536823F0F003A16878
:101B7C000B435360236813F0010F31D06368012BC2
:101B8C0020D0022B25D0384A126812F0020F64D0F4
:101B9C0035494A6822F0030213434B60FEF71EFFDF
:101BAC000646314B5B6803F00C036268B3EB820FA3
:101BBC0016D0FEF713FF801B41F288339842F0D900
:101BCC00032045E0284A126812F4003FE0D10120BE
:101BDC003EE0254A126812F0007FD9D1012037E08F
:101BEC00204B1B6803F00703AB420AD91D4A13684C
:101BFC0023F007032B431360136803F00703AB4276
:101C0C002DD1236813F0040F06D0174A536823F420
:101C1C00E063E1680B435360236813F0080F07D0AF
:101C2C00114A536823F46053216943EAC10353609A
:101C3C00FFF72EFF0C4B5B68C3F303130B4AD35C0B
:101C4C00D8400B4B18600B4B1868FEF783FE002036
:101C5C0070BD012070470120FAE70120F8E7012050
:101C6C00F6E700BF00200240001002407C34000860
:101C7C000000002008000020014B1868704700BFCE
:101C8C000000002008B5FFF7F7FF044B5B68C3F3B7
:101C9C000223034AD35CD84008BD00BF00100240A9
:101CAC008C34000808B5FFF7E7FF044B5B68C3F3FF
:101CBC00C223034AD35CD84008BD00BF00100240C9
:101CCC008C3400082DE9F04782B00546884617464B
:101CDC001E46FEF783FE0A9B1B1A03EB0609FEF752
:101CEC007DFE82462B4B1B68C3F3CB3309FB03F3FE
:101CFC0001932B689C6838EA04030CBF4FF0010C6D
:101D0C004FF0000CBC4540D0B6F1FF3FF1D0FEF7D0
:101D1C0065FEA0EB0A0048450AD2B9F1000F07D0C6
:101D2C00019A02B14A46019B013B01939146E0E7BF
:101D3C002A68536823F0E00353606B68B3F5827F25
:101D4C000BD0AB6AB3F5005F14D0012385F851308A
:101D5C00002385F85030032018E0AB68B3F5004F32
:101D6C0002D0B3F5806FECD12A68136823F04003DE
:101D7C001360E6E72A68136823F4005313602A689B
:101D8C00136843F400531360DFE7002002B0BDE892
:101D9C00F08700BF0000002010B582B004460B464F
:101DAC00009200228021FFF78DFF08B902B010BD10
:101DBC00636D43F0200363650320F7E7002856D0DA
:101DCC0010B50446436A33B94368B3F5827F05D036
:101DDC000023C36102E00023036143610023A3627B
:101DEC0094F85130002B3CD0022384F851302268F7
:101DFC00136823F040031360636803F48273A268D2
:101E0C0002F404421343E26802F4006213432269B1
:101E1C0002F002021343626902F001021343A26949
:101E2C0002F400721343E26902F038021343226A8F
:101E3C0002F080021343A26A02F400522168134399
:101E4C000B60638B226803F0040353602268D36930
:101E5C0023F40063D36100206065012384F85130C2
:101E6C0010BD84F850302046FEF710FBBCE7012073
:101E7C0070472DE9F04383B01D4690F85030012B8C
:101E8C0000F0D180044688469146012380F85030FA
:101E9C00FEF7A4FD074694F85160F6B2012E40F00F
:101EAC00AF80B8F1000F00F0AC80B9F1000F00F07A
:101EBC00A880032384F8513000236365C4F8308074
:101ECC00A4F83490A4F83690A363A387E3876364E3
:101EDC002364A368B3F5004F1ED023681A6812F070
:101EEC00400F03D11A6842F040021A60E368B3F560
:101EFC00006F1CD0636813B1B9F1010F52D1226B82
:101F0C00236812781A73236B01332363E38E9BB21D
:101F1C00013B9BB2E38645E02268136823F0400343
:101F2C0013602268136843F480431360D5E7636839
:101F3C0013B1B9F1010F16D1226B23681288DA6044
:101F4C00236B02332363E38E9BB2013B9BB2E3868C
:101F5C0009E0FEF743FDC01BA84202D3B5F1FF3FD9
:101F6C0059D1002D59D0E38E9BB2002B33D023686E
:101F7C009A6812F0020FECD0226B1288DA60236B95
:101F8C0002332363E38E9BB2013B9BB2E386EAE709
:101F9C00FEF724FDC01BA84202D3B5F1FF3F3ED192
:101FAC00002D3ED0E38E9BB2ABB123689A6812F041
:101FBC00020FEDD0226B12781A73236B013323635B
:101FCC00B4F836C01FFA8CFC0CF1FF3C1FFA8CFCE9
:101FDC00A4F836C0E6E73A4629462046FFF7DCFE71
:101FEC0008B120236365A36833B901932368DA68C9
:101FFC0001929B680193019B636D13B9002600E06D
:10200C000226012384F85130002384F850303046E6
:10201C0003B0BDE8F0830326F3E70326F1E70326BC
:10202C00EFE70326EDE70226F1E7000070B4036A40
:10203C0023F001030362036A4668826922F073028B
:10204C000C6844EA020523F002028B6813430D4C22
:10205C00A04209D00B4CA0420DD0466085614A6865
:10206C004263036270BC704723F00803CA681343D1
:10207C0023F00403EEE726F440764A6932438E6976
:10208C001643EAE7002C014030B4036A23F4807352
:10209C000362036A4568C26922F073020C6822432A
:1020AC0023F400738C6843EA04230F4CA04209D03C
:1020BC000D4CA0420ED04560C2614A68C2630362F7
:1020CC0030BC704723F40063CC6843EA042323F448
:1020DC008063EDE725F440554C6945EA04158C699D
:1020EC0045EA0415E7E700BF002C014030B4036A51
:1020FC0023F480530362036A4468C26922F4E64203
:10210C000D6842EA052223F400538D6843EA053337
:10211C00074DA84206D04460C2614A68026403625B
:10212C0030BC704724F480444D6944EA8514F2E7CE
:10213C00002C014010B4036A046A24F00104046208
:10214C00846924F0F00C4CEA021223F00A030B43CE
:10215C008261036210BC704710B4046A24F010044E
:10216C0004628469036A24F4704C4CEA023223F052
:10217C00A00343EA01138261036210BC70478368B9
:10218C0023F070030B4343F0070383607047000098
:10219C0090F83D30DBB2012B22D1022380F83D3088
:1021AC000368114A934210D0B3F1804F0DD0A2F5C1
:1021BC009432934209D002F58062934205D01A689A
:1021CC0042F001021A60002070479A6802F0070280
:1021DC00062A07D01A6842F001021A6000207047E4
:1021EC000120704700207047002C014090F83D30D2
:1021FC00DBB2012B27D1022380F83D300268D36873
:10220C0043F00103D3600368114A934210D0B3F139
:10221C00804F0DD0A2F59432934209D002F5806222
:10222C00934205D01A6842F001021A6000207047F0
:10223C009A6802F00702062A07D01A6842F00102D7
:10224C001A6000207047012070470020704700BFC3
:10225C00002C0140704770477047704710B504461A
:10226C0003681A6912F0020F11D0DA6812F0020F2B
:10227C000DD06FF002021A610123037703689B698A
:10228C0013F0030F70D0FFF7E6FF002323772368CA
:10229C001A6912F0040F12D0DA6812F0040F0ED083
:1022AC006FF004021A610223237723689B6913F4ED
:1022BC00407F5FD02046FFF7CEFF002323772368B3
:1022CC001A6912F0080F12D0DA6812F0080F0ED04B
:1022DC006FF008021A61042323772368DB6913F07B
:1022EC00030F4ED02046FFF7B6FF00232377236859
:1022FC001A6912F0100F12D0DA6812F0100F0ED00B
:10230C006FF010021A61082323772368DB6913F43A
:10231C00407F3DD02046FFF79EFF002323772368A4
:10232C001A6912F0010F03D0DA6812F0010F36D1DE
:10233C0023681A6912F0800F03D0DA6812F0800F4C
:10234C0034D123681A6912F0400F03D0DA6812F006
:10235C00400F32D123681A6912F0200F03D0DA68CB
:10236C0012F0200F30D110BDFFF774FF2046FFF79D
:10237C0073FF8AE72046FFF76DFF2046FFF76CFFDF
:10238C009BE72046FFF766FF2046FFF765FFACE7AB
:10239C002046FFF75FFF2046FFF75EFFBDE76FF0BB
:1023AC0001021A61204600F065FCC1E76FF0800263
:1023BC001A61204600F016FAC3E76FF040021A616A
:1023CC002046FFF74AFFC5E76FF020021A6120464E
:1023DC0000F007FAC7E7000003681B4A90420AD0D6
:1023EC00B0F1804F07D0A2F59432904203D002F5A1
:1023FC008062904203D123F070034A681343124A5F
:10240C0090420AD0B0F1804F07D0A2F5943290429E
:10241C0003D002F58062904203D123F44073CA6862
:10242C00134323F080034A69134303608B68C36230
:10243C000B688362044B984202D0012343617047BE
:10244C000B690363F9E700BF002C014040B310B5E2
:10245C00044690F83D30F3B1022384F83D30214618
:10246C0051F8040BFFF7B8FF012384F8463084F8C9
:10247C003E3084F83F3084F8403084F8413084F8A2
:10248C00423084F8433084F8443084F8453084F882
:10249C003D30002010BD80F83C30FEF725F9DBE71D
:1024AC000120704740B310B5044690F83D30F3B1AD
:1024BC00022384F83D30214651F8040BFFF78CFFC2
:1024CC00012384F8463084F83E3084F83F3084F899
:1024DC00403084F8413084F8423084F8433084F83A
:1024EC00443084F8453084F83D30002010BD80F82D
:1024FC003C30FEF7C3F8DBE70120704730B4036AC9
:10250C0023F010030362036A4468826922F4E642F2
:10251C000D6842EA052223F020038D6843EA051377
:10252C000E4DA84209D00D4DA8420ED044608261D8
:10253C004A688263036230BC704723F08003CD6825
:10254C0043EA051323F04003EDE724F440644D699E
:10255C0044EA85048D6944EA8504E7E7002C0140D0
:10256C0038B590F83C30012B60D004460D46012361
:10257C0080F83C300C2A1AD8DFE802F00719191938
:10258C001D1919193119191944000068FFF74EFD6E
:10259C002268936943F0080393612268936923F0DE
:1025AC00040393612268936929690B4393610020AA
:1025BC0084F83C0038BD0068FFF7A0FF22689369DF
:1025CC0043F4006393612268936923F480639361FD
:1025DC0022689369296943EA01239361E7E700685C
:1025EC00FFF752FD2268D36943F00803D3612268D8
:1025FC00D36923F00403D3612268D36929690B439F
:10260C00D361D4E70068FFF771FD2268D36943F406
:10261C000063D3612268D36923F48063D361226899
:10262C00D369296943EA0123D361C0E70220C1E7DA
:10263C0010B4846824F47F4C42EA03220A4342EA31
:10264C000C02826010BC704790F83C30012B66D0B5
:10265C0010B50446012380F83C30022380F83D304D
:10266C000268936823F47F4323F0770393600B682D
:10267C00602B40D022D8402B47D00BD9502B0ED1F9
:10268C00CA6849680068FFF755FD50212068FFF7BC
:10269C0076FD04E0202B0CD008D9302B09D0012377
:1026AC0084F83D30002084F83C0010BD0BB1102B99
:1026BC00F5D119462068FFF762FDF0E7702B0ED0BC
:1026CC00B3F5005FEBD1CB684A6889680068FFF707
:1026DC00AFFF2268936843F480439360DFE7CB68D5
:1026EC004A6889680068FFF7A3FF2268936843F083
:1026FC0077039360D3E7CA6849680068FFF72CFD3D
:10270C0060212068FFF73BFDC9E7CA68496800688B
:10271C00FFF710FD40212068FFF731FDBFE70220D5
:10272C007047000090F83C30012B2CD010B40123E2
:10273C0080F83C30022380F83D3003685A689C686E
:10274C0022F0700C0A6842EA0C025A6003680F4AC5
:10275C0093420AD0B3F1804F07D0A2F59432934242
:10276C0003D002F58062934204D124F080044A68BD
:10277C0014439C60012380F83D30002380F83C30EA
:10278C00184610BC70470220704700BF002C014057
:10279C0090F83C30012B22D0012380F83C30CB68E0
:1027AC0023F440738A68134323F480634A68134309
:1027BC0023F400630A68134323F480530A69134318
:1027CC0023F400534A69134323F48043CA69134327
:1027DC0002685364002380F83C301846704702208E
:1027EC007047704770470268D36823F49073D360C6
:1027FC000268536923F001035361036B012B05D06D
:10280C00202380F83E300023036370470268D368AE
:10281C0023F01003D360F3E790F83D30DBB2212BAB
:10282C0001D0022070478368B3F5805F17D0036A2C
:10283C005A1C02621A7803685A60C38C9BB2013B23
:10284C009BB2C3844BB90268D36823F08003D36076
:10285C000268D36843F04003D360002070470369DB
:10286C00002BE4D1036A1B880268C3F3080353608E
:10287C00036A02330362E0E710B504460268136989
:10288C0023F44053C1680B431361836802691343FB
:10289C0042691A430168CB6823F4B05323F00C034C
:1028AC001343CB600268536923F4407381690B4373
:1028BC0053610268134B9A4220D0FFF7E3F90246AA
:1028CC0002EB820202EB820263689B00B2FBF3F222
:1028DC000D48A0FB02314909642303FB11231B01A2
:1028EC003233A0FB03235B0903F0F00202EB01126D
:1028FC0003F00F03216813448B6010BDFFF7D2F96E
:10290C000246DDE7003801401F85EB5158B310B586
:10291C00044690F83D300BB3242384F83D302268F4
:10292C00D36823F40053D3602046FFF7A5FF226839
:10293C00136923F4904313612268536923F02A032B
:10294C0053612268D36843F40053D36000202064A1
:10295C00202384F83D3084F83E3010BD80F83C30A4
:10296C00FDF78EFFD8E701207047704708B5016866
:10297C00CA6822F04002CA60202280F83D20FFF78E
:10298C00F4FF002008BD7047704708B5406A00236B
:10299C00C385C384FFF7F8FF08BD704790F83E303D
:1029AC00DBB2222B60D18368B3F5805F46D0826A9C
:1029BC00B3F5805F04D0002B4DD10369002B4AD1B5
:1029CC0003685B681370836A01338362C38D9BB2A7
:1029DC00013B9BB2C385002B48D100B583B0026884
:1029EC00D36823F02003D3600268D36823F4807388
:1029FC00D3600268536923F001035361202380F8EC
:102A0C003E30036B012B2CD1002303630268D36887
:102A1C0023F01003D36003681A6812F0100F06D06D
:102A2C00002201921A6801925B680193019B818DCF
:102A3C00FFF7B3FF002003B05DF804FB0269002A26
:102A4C00B5D1826A03685B68C3F308031380836A99
:102A5C0002338362BAE703685B6803F07F03137089
:102A6C00B1E7FFF790FFE5E70220704700207047C1
:102A7C0030B583B0044602681368D068516913F00E
:102A8C000F0505D113F0200F02D010F0200F19D133
:102A9C002DB111F0010119D110F4907F16D1216BD9
:102AAC00012975D013F0800F03D010F0800F40F087
:102ABC00D78013F0400F03D010F0400F40F0D480BB
:102ACC0003B030BD2046FFF769FFF9E713F0010FA3
:102ADC0006D010F4807F03D0226C42F001022264F5
:102AEC0013F0040F04D019B1226C42F002022264DC
:102AFC0013F0020F04D019B1226C42F004022264CC
:102B0C0013F0080F07D010F0200F00D119B1226C70
:102B1C0042F008022264226C002AD1D013F0200F5C
:102B2C0002D010F0200F21D123685B6903F0400321
:102B3C00226C12F0080F00D123B32046FFF753FE8E
:102B4C0023685A6912F0400F18D05A6922F04002DB
:102B5C005A61A36B73B1464A5A63A06BFEF764FBD0
:102B6C000028ADD0A06B436B9847A9E72046FFF730
:102B7C0015FFD9E72046FFF707FFA1E72046FFF72F
:102B8C0003FF9DE72046FFF7FFFE0023236497E732
:102B9C0013F0100F86D010F0100F83D00023019388
:102BAC001368019353680193019B536913F0400F11
:102BBC0032D0A16B0B685B689BB2002B80D0A08DD0
:102BCC0098427FF67DAFE3858B69202B08D1A18DD0
:102BDC00E38D9BB2C91A89B22046FFF7DEFE6FE780
:102BEC00D36823F48073D3602268536923F0010304
:102BFC0053612268536923F040035361202384F806
:102C0C003E30002323632268D36823F01003D36083
:102C1C00A06BFEF7E7FADAE7A18DE38D9BB2C91A38
:102C2C0089B2E38D9BB2002B3FF44AAF00293FF4ED
:102C3C0047AFD36823F49073D3602268536923F0B1
:102C4C0001035361202384F83E3000232363226860
:102C5C00D36823F01003D3602046FFF79EFE2FE7C6
:102C6C002046FFF7D9FD2BE72046FFF77FFE27E72D
:102C7C00972900080A4B834200D07047094A136811
:102C8C0001331360084A136801331360074A136851
:102C9C0001331360064A136801331360EDE700BF7C
:102CAC00640500203C06002040060020440600205D
:102CBC0048060020044B1B685B6AB3FBF0F200FB78
:102CCC0012300130704700BFAC050020014B186872
:102CDC00704700BF40060020014B1860704700BFD2
:102CEC004006002008B5013804280AD8DFE800F0B7
:102CFC00030A11171E0001224FF400510F48FEF772
:102D0C009AFC08BD01224FF480610D48FEF793FC3C
:102D1C00F7E7012220210948FEF78DFCF1E701229B
:102D2C004FF400710548FEF786FCEAE701224FF4E8
:102D3C0000610248FEF77FFCE3E700BF000C014096
:102D4C000008014008B5013804280AD8DFE800F073
:102D5C00030A11171E0000224FF400510F48FEF712
:102D6C006AFC08BD00224FF480610D48FEF763FC3D
:102D7C00F7E7002220210948FEF75DFCF1E700226D
:102D8C004FF400710548FEF756FCEAE700224FF4B9
:102D9C0000610248FEF74FFCE3E700BF000C014066
:102DAC000008014010B582B004468DF80710FFF7FB
:102DBC00C9FF0A2000F038F84FF0FF3301220DF163
:102DCC0007010548FFF755F82046FFF78BFF0A204F
:102DDC0000F02AF802B010BD8004002010B582B0BB
:102DEC0004468DF80710FFF7ADFF0A2000F01CF821
:102DFC004FF0FF3301220DF107010548FFF739F8B9
:102E0C002046FFF76FFF0A2000F00EF802B010BD4D
:102E1C008004002010B5012403E0E0B2FFF762FF4C
:102E2C000134052CF9DD10BD10B4104B1B68104A91
:102E3C00A2FB03239B0C0F4A13604FF0E022546952
:102E4C0000FB03FC9369002104E0E01A02441144E6
:102E5C00614509D21A464FF0E0239B699A42FAD099
:102E6C00F3D9D21A1144F3E710BC704700000020CC
:102E7C0083DE1B434C06002008B5064B1878FFF781
:102E8C0019FFC0B201238340034A10781843107015
:102E9C0008BD00BF0C0000205006002008B54FF400
:102EAC0080511348FEF7C0FB08B9012008BD4FF450
:102EBC0000711048FEF7B8FB08B90220F6E71021A4
:102ECC000B48FEF7B1FB08B90320EFE74FF4807114
:102EDC000748FEF7A9FB08B90420E7E74FF4806127
:102EEC000348FEF7A1FB08B10020DFE70520DDE772
:102EFC00000C01400008014010B58AB00122089274
:102F0C0000230693079244F22001009101934FF69F
:102F1C00E0710291039305920493074C6946204695
:102F2C00FDF71CFE2046FDF79FFE02212046FDF713
:102F3C0074FF0AB010BD00BF5804002002680E4B8D
:102F4C009A4200D0704710B588B00446FFF7BEFE19
:102F5C00C82807D8094B01AA00212046FDF7B2FE6C
:102F6C0008B010BD4FF400410548FEF76AFB002085
:102F7C00FFF7B2FEEEE700BF00640040C006002081
:102F8C00000C014010B584B0FFF7B6FF084C094B9C
:102F9C000293094B0193094B009344F620631A46A4
:102FAC000321204600F01CF8054B236504B010BD2E
:102FBC00540600200000504117B7513900009041D1
:102FCC0000409C460366C2658165009B0360019BC3
:102FDC004360029B8360704701604260836070476E
:102FEC0010B584B0094C4466094C8466DDF820C0E9
:102FFC00CDF808C0DDF81CC0CDF804C0DDF818C051
:10300C00CDF800C0FFF7DEFF04B010BDD12F0008D3
:10301C00E52F000810B50F4C012280212046FEF749
:10302C000AFB012240212046FEF705FB0220FFF798
:10303C00FBFE002280212046FEF7FDFA0220FFF75E
:10304C00F3FE002240212046FEF7F5FA0220FFF79E
:10305C00EBFE10BD000C014010B50B4C01224021C1
:10306C002046FEF7E8FA002280212046FEF7E3FA1C
:10307C000220FFF7D9FE012280212046FEF7DBFA61
:10308C000220FFF7D1FE10BD000C014038B5134CE7
:10309C00012280212046FEF7CEFA01224021204653
:1030AC00FEF7C9FA0220FFF7BFFE002480210B486F
:1030BC00FEF7BAFA054630B10134FA2CF6DDFFF70B
:1030CC00CBFF012507E0002240210448FEF7B3FAAC
:1030DC000220FFF7A9FE284638BD00BF000C0140B6
:1030EC0070B50446002516E0002280211448FEF736
:1030FC00A2FA134E012240213046FEF79CFA022020
:10310C00FFF792FE002240213046FEF794FA64004D
:10311C00E4B20135EDB2072D10D800224021084849
:10312C00FEF789FA0220FFF77FFE14F0800FDBD048
:10313C00012280210248FEF77EFADAE770BD00BF5B
:10314C00000C014010B50446FFF764FF7820FFF730
:10315C00C7FFFFF79BFF0020FFF7C2FFFFF796FFAB
:10316C002046FFF7BDFFFFF791FFFFF775FF10BD7E
:10317C0010B50446FFF74EFF7820FFF7B1FFFFF7BD
:10318C0085FF4020FFF7ACFFFFF780FF2046FFF7DD
:10319C00A7FFFFF77BFFFFF75FFF10BD08B56420AB
:1031AC00FDF722FCAE20FFF7CDFF2020FFF7CAFF72
:1031BC001020FFF7C7FFB020FFF7C4FFC820FFF7B0
:1031CC00C1FF0020FFF7BEFF1020FFF7BBFF402020
:1031DC00FFF7B8FF8120FFF7B5FFFF20FFF7B2FF25
:1031EC00A120FFF7AFFFA620FFF7ACFFA820FFF749
:1031FC00A9FF3F20FFF7A6FFA420FFF7A3FFD320D2
:10320C00FFF7A0FF0020FFF79DFFD520FFF79AFFE7
:10321C00F020FFF797FFD920FFF794FF2220FFF74C
:10322C0091FFDA20FFF78EFF1220FFF78BFFDB20D8
:10323C00FFF788FF2020FFF785FF8D20FFF782FF27
:10324C001420FFF77FFFAF20FFF77CFF08BD70B5A0
:10325C000546002609E02846FFF78AFF0134E4B250
:10326C0014F0800FF7D00136F6B2072E0CD8A6F169
:10327C005000C0B2FFF766FF0020FFF763FF10207D
:10328C00FFF760FF0024EBE770BD000070B50D4E3A
:10329C000D4D761BB61006D0002455F8043B0134B6
:1032AC009847A642F9D1094E094D00F0D5F8761B86
:1032BC00B61006D0002455F8043B01349847A642BA
:1032CC00F9D170BDAC340008AC340008B43400083B
:1032DC00AC340008830730B548D0541E002A3FD0C8
:1032EC000346CAB201E0013C3AD303F8012B9D0717
:1032FC00F9D1032C2DD9CDB245EA05250F2C45EA81
:10330C00054536D9A4F1100222F00F0C03F1200E62
:10331C00E6444FEA121C03F1100242E9045542E95B
:10332C00025510327245F8D10CF1010214F00C0F59
:10333C0003EB021204F00F0C13D0ACF1040323F0D6
:10334C0003030433134442F8045B9342FBD10CF0A7
:10335C0003042CB1CAB21C4403F8012B9C42FBD1D0
:10336C0030BD64461346002CF4D1F9E703461446ED
:10337C00BFE71A46A446E0E7024B13B1024800F03F
:10338C0005B8704700000000A53300080023014673
:10339C001A46184600F01AB838B5084B084D5B1B96
:1033AC009C1007D0043B1D44013C55F80439984748
:1033BC00002CF9D1BDE8384000F054B8B8340008FE
:1033CC00B4340008704700BF704700BF2DE9F047C8
:1033DC00DFF87CA00646DAF8000098460F469146C6
:1033EC00FFF7F0FF1B4B1B68D3F8484124B365680B
:1033FC001F2D26DC5EB96B1C0235DAF80000636009
:10340C0044F82570FFF7E0FF0020BDE8F0870123AA
:10341C0004EB8501C1F88890D4F88821AB401A439D
:10342C00022EC4F88821C1F80881E4D1D4F88C218B
:10343C001343C4F88C31DEE703F5A674C3F8484196
:10344C00D5E7DAF80000FFF7BFFF4FF0FF30DCE7FD
:10345C0038040020A8340008F8B500BFF8BC08BC3C
:10346C009E467047F8B500BFF8BC08BC9E46704736
:10347C000000000000000000010203040607080918
:10348C0000000000010203040203040506070809FA
:10349C000A0B0C0D0E0F1010000000001000002085
:0834AC0085330008310100081E
:0434B4000D010008FE
:1034B8000024F400010000001000000005000000D6
:1034C80000000000FC02002064030020CC03002060
:1034D80000000000000000000000000000000000E4
:1034E80000000000000000000000000000000000D4
:1034F80000000000000000000000000000000000C4
:1035080000000000000000000000000000000000B3
:1035180000000000000000000000000000000000A3
:103528000000000000000000000000000000000093
:103538000000000000000000000000000000000083
:103548000000000000000000000000000000000073
:103558000000000000000000000000000000000063
:103568000000000000000000010000000000000052
:103578000E33CDAB34126DE6ECDE05000B00000017
:103588000000000000000000000000000000000033
:103598000000000000000000000000000000000023
:1035A8000000000000000000000000000000000013
:1035B8000000000000000000000000000000000003
:0C38E8000000000000000000C8060020E6
:0400000508000915D1
:00000001FF
